:100000000C9404010C942E010C942E010C942E01DE
:100010000C942E010C942E010C942E010C942E01A4
:100020000C942E010C942E010C942E010C942E0194
:100030000C942E010C942E010C942E010C942E0184
:100040000C942E010C942E010C942E010C942E0174
:100050000C942E010C942E010C942E010C9464111E
:100060000C942E010C9438120C940E120C942E0148
:100070000C942E010C942E010C942E010C942E0144
:100080000C942E010C942E010C942E010C942E0134
:100090000C94D8110C94AE110C942E010C944410B5
:1000A0000C942E010C942E010C942E010C942E0114
:1000B0000C942E010C942E010C942E010C942E0104
:1000C0000C942E010C942E010C942E010C942E01F4
:1000D0000C942E010C942E010C942E010C942E01E4
:1000E0000C942E0100002100240027002A002D007E
:1000F0003000330001010000040107010A01000083
:100100002200250028002B002E00310034000201BF
:100110000000050108010B0100002000230026005B
:1001200029002C002F00320000010000030106010D
:10013000090105050505070508080808020202026D
:100140000A0A080804040404010101010101010173
:100150000303030303030303040707070C0C0C0C3E
:100160000C0C0C0C02020202060606060606060627
:100170000B0B0B0B0B0B0B0B0102102020080810B4
:100180002040102040800201020108040201010207
:1001900004081020408080402010080402018004E0
:1001A000020180402010080402010804020101023B
:1001B0000408102040800102040810204080000044
:1001C0000A0B02090C0D0E080703040100000000D1
:1001D000000000000000000000000000000000001F
:1001E00000000000000000000000121110000000DC
:1001F00000000000000000000000000000000000FF
:10020000000000006E12941B11241FBECFEFD1E23C
:10021000DEBFCDBF2AE0A4EDB2E001C01D92AE3139
:10022000B207E1F712E0A0E0B2E0E4E5FCE300E0B1
:100230000BBF02C007900D92A43DB107D9F711E0A2
:10024000C3E0D1E004C02197FE010E94EA1BC23046
:10025000D107C9F70E9449130C941D1E0C9400008D
:100260002091A905260F3327331F21323105ECF4E5
:100270002091CD05FC0190E080E0243069F082E01F
:100280000895A091A9052191AC0147575A4FA40F99
:10029000B52FB11D2C930196861798F38091A9056F
:1002A000680F6093A90580E0089581E0089508959E
:1002B0008FEF9FEF08958FEF9FEF08958091820554
:1002C00090E09195819591090895CF92DF92EF92F8
:1002D000FF920F931F93CF93DF937C01CB018A0191
:1002E00020918105222389F0EB016B01C40ED51EFC
:1002F000CC15DD0569F06991D701ED91FC91019074
:10030000F081E02DC7010995F3CF642F0E943001E1
:10031000C801DF91CF911F910F91FF90EF90DF9077
:10032000CF900895CF93DF931F92CDB7DEB7698347
:10033000209181052223F9F020918005203258F088
:1003400021E030E0FC013383228390E080E00F90D5
:10035000DF91CF91089580917F05E82FF0E0E15A79
:10036000FA4F998190838F5F80937F0580938005FA
:1003700081E090E0ECCF61E0CE0101960E94300177
:10038000F7CF8150823108F058C0E82FF0E0E553F4
:10039000FE4F0C94EA1BEB01EF01DD01E301E701E5
:1003A0001D02F201F801FC01020206020A0210021B
:1003B00014021D0218021E022202809180008F7713
:1003C000809380000895809180008F7DF9CF809187
:1003D0008000877FF5CF84B58F7784BD089584B57D
:1003E0008F7DFBCF8091B0008F778093B000089510
:1003F0008091B0008F7DF9CF809190008F778093AE
:1004000090000895809190008F7DF9CF80919000A9
:10041000877FF5CF8091A0008F778093A00008950B
:100420008091A0008F7DF9CF8091A000877FF5CFCC
:10043000809120018F778093200108958091200181
:100440008F7DF9CF80912001877FF5CFCF93DF9308
:10045000282F30E0F901E254FE4F8491F901E85869
:10046000FE4FD491F901EE5CFE4FC491CC23A1F074
:1004700081110E94C101EC2FF0E0EE0FFF1FE85E3A
:10048000FE4FA591B491EC91ED2381E090E009F449
:1004900080E0DF91CF91089580E090E0FACF1F9344
:1004A000CF93DF93282F30E0F901E254FE4F84917F
:1004B000F901E858FE4FD491F901EE5CFE4FC4916A
:1004C000CC23A9F0162F81110E94C101EC2FF0E07E
:1004D000EE0FFF1FE250FF4FA591B4918FB7F89434
:1004E000EC91111108C0D095DE23DC938FBFDF9112
:1004F000CF911F910895DE2BF8CF1F93CF93DF93F9
:10050000C1E0C0938805882399F1D091B80010917B
:10051000BA008091BC008A7B8093BC0060E084E1DB
:100520000E944F0260E085E10E944F021092CD05CB
:10053000C093CF051092CE0561E084E10E944F0286
:1005400061E085E10E944F028091B9008E7F809327
:10055000B9008091B9008D7F8093B90088E48093C1
:10056000B80085E48093BC001093BA00D093B80023
:10057000DF91CF911F910895CF93DF9390E0FC011D
:10058000E858FE4F24918E5C9E4FFC018491882395
:10059000D1F090E0880F991FFC01EC51FF4FA5911D
:1005A000B491FC01E250FF4FC591D49161110EC08E
:1005B0009FB7F8948C91E22FE0958E238C9328813D
:1005C000E223E8839FBFDF91CF9108958FB7F8941E
:1005D000EC91E22BEC938FBFF6CF3FB7F89480916C
:1005E0005B0590915C05A0915D05B0915E0526B517
:1005F000A89B05C02F3F19F00196A11DB11D3FBF5B
:10060000BA2FA92F982F8827BC01CD01620F711D29
:10061000811D911D42E0660F771F881F991F4A9523
:10062000D1F708958F929F92AF92BF92CF92DF92AF
:10063000EF92FF926B017C010E94ED024B015C0185
:10064000C114D104E104F104B9F00E94ED0268196B
:1006500079098A099B09683E73408105910580F3F9
:1006600021E0C21AD108E108F10888EE880E83E083
:10067000981EA11CB11CE4CFFF90EF90DF90CF90AB
:10068000BF90AF909F908F9008952FB7F89460918E
:100690005705709158058091590590915A052FBFC3
:1006A00008950895DB0114964D915C9115976D9115
:1006B0007C91DC01ED91FC910280F381E02D0994A5
:1006C000AF92BF92CF92DF92EF92FF920F931F9360
:1006D000CF93DF936C017B018B01040F151FEB019E
:1006E0005E01AE18BF08C017D10759F06991D60155
:1006F000ED91FC910190F081E02DC6010995892BC7
:1007000079F7C501DF91CF911F910F91FF90EF9085
:10071000DF90CF90BF90AF900895FC01538D448D32
:10072000252F30E0842F90E0821B930B541710F09C
:10073000CF96089501970895FC01918D828D9817A9
:1007400061F0A28DAE0FBF2FB11D5D968C91928D81
:100750009F5F9F73928F90E008958FEF9FEF0895B2
:10076000FC01918D828D981731F0828DE80FF11D7B
:10077000858D90E008958FEF9FEF0895FC01918D96
:10078000228D892F90E0805C9F4F821B91098F738F
:10079000992708958FEF97E00E94BE0321E0892BEF
:1007A00009F420E0822F08958CE998E00E94BE03AE
:1007B00021E0892B09F420E0822F0895FC01A48D0B
:1007C000A80FB92FB11DA35ABF4F2C91848D90E073
:1007D00001968F739927848FA689B7892C93A08956
:1007E000B1898C91837080648C93938D848D9813E0
:1007F00006C00288F389E02D80818F7D8083089573
:10080000EF92FF920F931F93CF93DF93EC0181E060
:10081000888F9B8D8C8D98131AC0E889F989808107
:1008200085FF15C09FB7F894EE89FF896083E8893A
:10083000F98980818370806480839FBF81E090E02C
:10084000DF91CF911F910F91FF90EF900895F62EB9
:100850000B8D10E00F5F1F4F0F731127E02E8C8D53
:100860008E110CC00FB607FCFACFE889F989808198
:1008700085FFF5CFCE010E94DE03F1CFEB8DEC0FAB
:10088000FD2FF11DE35AFF4FF0829FB7F8940B8FB5
:10089000EA89FB8980818062CFCFCF93DF93EC011F
:1008A000888D8823B9F0AA89BB89E889F9898C9158
:1008B00085FD03C0808186FD0DC00FB607FCF7CF14
:1008C0008C9185FFF2CF808185FFEDCFCE010E9414
:1008D000DE03E9CFDF91CF91089580E090E0892B8E
:1008E00029F00E94D40381110E94000080E090E072
:1008F000892B29F00E94CA0381110E94000080E028
:1009000090E0892B49F080E090E0892B29F00E944B
:10091000000081110E94000080E090E0892B49F0E6
:1009200080E090E0892B29F00E94000081110C9456
:10093000000008952091D502211109C021E02093E3
:10094000D5023091390920913A093CBD2DBD60E0B6
:10095000FC0184810C944F0261E0FC0184810E94BF
:100960004F028091D50281111092D50208958EBD5B
:1009700000000DB407FEFDCF8EB508958FEF0C94E7
:10098000B7040F931F93CF93DF93EC010E944503AD
:100990008B010E94BE048F3F69F00E944503601BDB
:1009A000710B6C177D07A8F380E0DF91CF911F9149
:1009B0000F91089581E0F9CFCF92DF92EF92FF92ED
:1009C0000F931F93CF93DF93EC01162F69017A01E8
:1009D0008E81882389F08F8198859C012F5F3F4FFE
:1009E00038872F838230924018F40E94BE04F3CFE0
:1009F000CE010E94AC041E82CE010E949A048CE2B9
:100A000091E00E94C104812F80640E94B70408E134
:100A100010E0D701C601002E04C0B695A7959795A2
:100A200087950A94D2F70E94B70408501109083F2D
:100A30008FEF180771F78FEF0E94B70410E00E9444
:100A4000BE048A8787FF04C01F3F11F01F5FF7CFE6
:100A5000DF91CF911F910F91FF90EF90DF90CF909A
:100A60000895AF92BF92CF92DF92EF92FF920F93D1
:100A70001F93CF93DF93EC016901C801820F931F8D
:100A80008130924050F58E81882379F08881998158
:100A9000AA81BB8184179507A607B70731F48F8118
:100AA0009885C816D90608F042C0488359836A83DE
:100AB0007B838B85833039F089E0440F551F661F97
:100AC000771F8A95D1F79A01AB0161E1CE010E94AF
:100AD000DC04882389F083E08D83CE010E94AC047E
:100AE00080E0DF91CF911F910F91FF90EF90DF9009
:100AF000CF90BF90AF9008950E9445035B010E9484
:100B0000BE048A878F3F69F40E9445036A197B09F6
:100B10006D327140A0F38FE08D83CE010E94AC0452
:100B2000DCCF8E3F89F418861F8281E08E838F810F
:100B300098858C159D0550F40E94BE048F81988580
:100B4000019698878F83F3CF8DE0E6CF6701E00EA3
:100B5000F11E0E94BE04F60181936F01EE15FF05A0
:100B6000C1F78F819885080F191F18870F83898512
:100B7000882319F001151240A0F08E81882389F096
:100B80008F8198859C012F5F3F4F38872F8382305C
:100B9000924018F40E94BE04F3CFCE010E94AC0430
:100BA0001E8281E09ECFCF92DF92EF92FF920F9351
:100BB000CF93DF93EC01690182E141155105610595
:100BC000710599F08B85833039F089E0440F551F0A
:100BD000661F771F8A95D1F79A01AB0168E1CE01B4
:100BE0000E94DC04882319F084E08D832DC08EEFF1
:100BF0000E94B70476018EEFD81AF70181917F0128
:100C00000E94B704EC14FD04C1F78FEF0E94B704F3
:100C10008FEF0E94B7040E94BE048A878F718530CF
:100C200071F4011116C0CE010E94AC0481E0DF9185
:100C3000CF910F91FF90EF90DF90CF90089581E1D9
:100C40008D83CE010E94AC04CE010E94AC0480E0F2
:100C5000EECF88E592E00E94C104811102C085E1D7
:100C6000C4CF20E030E0A9016DE0CE010E94DC0499
:100C7000882311F084E1B9CF0E94BE048111FACF1C
:100C8000D2CF0F934091D7025091D8026091D902F0
:100C90007091DA02411551056105710589F0082F3F
:100CA00023EF35E090E080E00E94D305882349F0EF
:100CB0001092D7021092D8021092D9021092DA0242
:100CC00081E00F9108950F93CF93C82F8091D602A2
:100CD000811105C0C1E08C2FCF910F9108954091F3
:100CE00001025091020260910302709104020C2FE4
:100CF00023EF35E090E080E00E94D305811102C02F
:100D0000C0E0E9CFCC2331F381E00E944106882383
:100D1000B9F31092D602DFCF8F929F92AF92BF921B
:100D2000EF92FF920F931F93CF934B015C01C42F5F
:100D30008091010290910202A0910302B0910402FD
:100D400088159905AA05BB0541F181E00E9463065B
:100D500081110BC080E0CF911F910F91FF90EF9018
:100D6000BF90AF909F908F90089583EFE82E85E01D
:100D7000F82E00E012E030E020E0B501A40190E0A0
:100D800080E00E943105882329F38092010290922D
:100D90000202A0920302B09204024091D6024C2BB0
:100DA0004093D60281E0D7CF4F925F926F927F92AD
:100DB0008F929F92AF92BF92CF92DF92EF92FF926B
:100DC0000F931F93CF93DF93EC01423051056105E0
:100DD000710590F480E0DF91CF911F910F91FF900A
:100DE000EF90DF90CF90BF90AF909F908F907F90CB
:100DF0006F905F904F90089589859A85AB85BC85EB
:100E00000196A11DB11D84179507A607B70710F31A
:100E1000CB88DC88ED88FE888F89803109F042C05C
:100E2000BB27A72F962F852F480159012A013B0187
:100E3000C80ED91EEA1EFB1E80910102909102028B
:100E4000A0910302B0910402C816D906EA06FB0677
:100E500099F58F898031C1F5B301A2015527662725
:100E60007727440F551F4D505A4FFA0191828082C7
:100E70008091D60281608093D6028A89823080F088
:100E80008D819E81AF81B8858C0D9D1DAE1DBF1DCE
:100E90008093D7029093D802A093D902B093DA023C
:100EA00081E099CFDB01CA01E7E0B695A795979558
:100EB0008795EA95D1F7B8CF40E0C701B6010E9407
:100EC0008C068111C6CF86CFB301A2014F7755277B
:100ED00066277727440F551F440F551F4D505A4F13
:100EE000FA0180829182A282B382C2CF8F929F92B6
:100EF000AF92BF92CF92DF92EF92FF920F931F9328
:100F0000CF93DF93FC0181859285A385B4850196FB
:100F1000A11DB11D84179507A607B70770F480E0DF
:100F2000DF91CF911F910F91FF90EF90DF90CF90C5
:100F3000BF90AF909F908F90089583889488A588E4
:100F4000B6888789803189F5BB27A72F962F852FF3
:100F5000E9016A017B018F01BC01CD01680D791D9A
:100F60008A1D9B1D8090010290900202A0900302B6
:100F7000B090040286169706A806B90601F5F80196
:100F80008789803111F5DD24EE24FF24F601EE0F70
:100F9000FF1FED50FA4F80819181B0E0A0E088837F
:100FA0009983AA83BB8381E0BBCFDB01CA01C7E081
:100FB000B695A79597958795CA95D1F7C9CF40E083
:100FC0000E948C068111DBCFAACFE894C7F8DD24FC
:100FD000EE24FF24F601EE0FFF1FEE0FFF1FED5072
:100FE000FA4F80819181A281B381BF70D8CF2F92B7
:100FF0003F924F925F926F927F928F929F92AF92A9
:10100000BF92CF92DF92EF92FF920F931F93CF93F5
:10101000DF93EC014B018D81811115C08FEF9FEFA4
:10102000DF91CF911F910F91FF90EF90DF90CF90C4
:10103000BF90AF909F908F907F906F905F904F90F8
:101040003F902F9008958C8180FFE8CF4B895C8979
:101050006D897E898A859B85AC85BD85412C481725
:1010600059076A077B0711F044244394512C52011D
:101070001E0126E0220E311CA114B10409F4B1C0F6
:101080004A855B856C857D856A0181E0D8228B8DE0
:101090009C8D8A019B01E9E0369527951795079568
:1010A000EA95D1F7ED81E230E1F5FC01628D738DB7
:1010B000848D958D600F711F821F931F612C22E01C
:1010C000722E6C187D08A614B70408F435012C8123
:1010D00026FD04C06114F2E07F0671F40091010264
:1010E00010910202209103023091040206171707A3
:1010F0002807390709F053C040E00E948C06882376
:1011000009F48CCFC6018D509A4FD4019C01260D55
:10111000371DFC012E173F0709F45EC041914D9326
:10112000F9CFFC0174807A947022C114D10471F457
:1011300071100CC0452B462B472B39F58F89988DA4
:10114000A98DBA8D8E839F83A887B987EB8DFC8D7F
:101150006E817F8188859985625071098109910925
:10116000258504C0660F771F881F991F2A95D2F71F
:101170000685178520893189600F711F821F931F93
:10118000670D711D811D911D99CF4E815F8168850D
:10119000798591010E9476078111D8CF3FCF7401E4
:1011A00083019601AB01BC0190E080E00E94310513
:1011B000882309F433CF860C971C8A859B85AC85E0
:1011C000BD85860D971DA11DB11D8A879B87AC87A4
:1011D000BD87A618B70850CF281B390B820E931E67
:1011E000ECCFC2011DCF8F929F92AF92BF92CF9250
:1011F000DF92EF92FF920F931F93CF93DF93EC0157
:101200008D8181110EC080E0DF91CF911F910F91F0
:10121000FF90EF90DF90CF90BF90AF909F908F9016
:1012200008950B891C892D893E8904171507260707
:10123000370748F34A015B01823031F48A869B8686
:10124000AC86BD8681E0E0CF81149104A104B10495
:1012500049F41E821F82188619861A861B861C86F0
:101260001D86F0CF0A851B852C853D85EB8DFC8D79
:10127000858590E00996B901A8014150510961099D
:101280007109082E04C076956795579547950A947D
:10129000D2F775016401E1E0CE1AD108E108F10846
:1012A00004C0F694E794D794C7948A95D2F7C416ED
:1012B000D506E606F70620F0012B022B032B11F5CD
:1012C0008F89988DA98DBA8D8E839F83A887B987C2
:1012D0008E010A5F1F4FC114D104E104F10409F427
:1012E000ADCF4E815F816885798598018B8D9C8D0E
:1012F0000E94760791E0C91AD108E108F10881112E
:10130000EACF81CFC41AD50AE60AF70AE1CF3F92A5
:101310004F925F926F927F928F929F92AF92BF9205
:10132000CF92DF92EF92FF920F931F93CF93DF93B1
:10133000CDB7DEB72C970FB6F894DEBF0FBECDBF8A
:101340005C01DC015B968D909C905C9716964D90AD
:101350005D906D907C901997411451046104710463
:1013600009F468C0BFEF4B1A5B0A6B0A7B0A312C89
:10137000F40181859285A385B4859C01AD012F5F21
:101380003F4F4F4F5F4F29873A874B875C877301E9
:1013900062011D821E821F821886F401818592855A
:1013A000A385B4852D813E814F8158852817390743
:1013B0004A075B0708F056C089859A85AB85BC85CE
:1013C0008C159D05AE05BF0550F482E0C82ED12CCA
:1013D000E12CF12C92E0492E512C612C712C9E01B4
:1013E0002F5F3F4FB701A601C4010E9476078823F3
:1013F000C9F189819A81AB81BC81892B8A2B8B2B86
:1014000009F1260137019FEF491A590A690A790A39
:101410002D813E814F8158852F5F3F4F4F4F5F4F4A
:101420002D833E834F8358873FEFC31AD30AE30AC5
:10143000F30AB3CFF401408051806280738033247B
:10144000339496CFC414D504E604F70409F70FEFDC
:101450001FEF2FEF3FE0B701A601C4010E94D406A1
:10146000811119C080E02C960FB6F894DEBF0FBE34
:10147000CDBFDF91CF911F910F91FF90EF90DF9043
:10148000CF90BF90AF909F908F907F906F905F9024
:101490004F903F900895D50116964D915D916D91B5
:1014A0007C911997411551056105710539F0970136
:1014B0008601C4010E94D4068823A1F2D5011696A4
:1014C000CD92DD92ED92FC921997332051F0D70125
:1014D000C6010196A11DB11DF40180839183A283F1
:1014E000B383F5018789908DA18DB28D892B8A2BCD
:1014F0008B2B39F48481C78AD08EE18EF28E80687E
:101500008483F50184818062848381E0ACCF1F9362
:10151000CF93DF93FC0125812223D1F1162FEC011B
:10152000848187FF2AC0668577858089918941E01B
:101530000E948C06882361F1EA8980E2E89FF0012D
:101540001124ED50FA4F309719F18D81823040F41B
:101550008B899C89AD89BE89848F958FA68FB78F23
:101560008F89988D938F828F8F89988DA98DBA8D51
:10157000B58BA48B8C818F778C83111103C08C81E8
:101580008F7E8C83812FDF91CF911F910C94630606
:1015900080E0DF91CF911F9108951F93CF93DF9348
:1015A000EC018D81813031F090E080E0DF91CF91CE
:1015B0001F9108958C8181FFF7CF82FD18C090E0C4
:1015C00080E00E949A040E94BE04182F90E080E000
:1015D0000E94AC041F3F41F78C8185FF1BC060E077
:1015E000CE010E94870A8C818F7D8C83DDCF4B8951
:1015F0005C896D897E898A859B85AC85BD858417CC
:101600009507A607B707D9F2CE010E94F30881110A
:10161000D6CFCACF4091D7025091D8026091D9025B
:101620007091DA02452B462B472B21F080E00E9477
:101630004106BACF80618C832A853B85317080E07A
:1016400092E0821B930BB2CF2F923F924F925F9208
:101650006F927F928F929F92AF92BF92CF92DF92C2
:10166000EF92FF920F931F93CF93DF9300D000D0A0
:101670001F92CDB7DEB77C015B01342E5D83DC01A8
:1016800015968C911597813009F0CCC014962C904A
:1016900021FEC8C022FCB2C0C32CDD8022947FE0B2
:1016A00027222094B22DB1702B2ED7011A964D917E
:1016B0005D916D917C911D97C114D10409F426C1EF
:1016C0005B968D919C915C97FC0174807A948A0161
:1016D0009B0169E036952795179507956A95D1F78F
:1016E00070228A011170711020C001151105E9F4F2
:1016F00016964D915D916D917C911997411551050B
:101700006105710509F097C057968D919D910D90D7
:10171000BC91A02D0097A105B10509F0AEC0C7018D
:101720000E948709882309F47DC080E092E0801B35
:10173000910B46018C159D0508F44C01D7015B9671
:101740004D915C915C9716968D919D910D90BC91F9
:10175000A02D0297A109B109FA01258504C0880FBF
:10176000991FAA1FBB1F2A95D2F746855785608906
:101770007189840F951FA61FB71F9C01AD01270D0E
:10178000311D411D511D29013A01811432E093069A
:1017900009F079C08091010290910202A0910302A8
:1017A000B091040284159505A605B70559F48FEF8D
:1017B0009FEFDC018093010290930202A093030249
:1017C000B0930402022D9501B301A20190E080E0E4
:1017D0000E94D305882331F19EEFB91AC818D908A1
:1017E000F70182859385A485B585880D991DA11D76
:1017F000B11D82879387A487B58757CFF7014389A7
:1018000054896589768982859385A485B58548172D
:1018100059076A077B0709F43FCFC7010E94F30805
:1018200081113ACF81E090E0D70113969C938E937B
:10183000129780E007C09E012F5F3F4F0E947607FE
:10184000811102C090E079C089819A81AB81BC810D
:10185000F701238D348DF901278948EF5FEF60E0B0
:1018600070E0203121F048EF5FEF6FEF7FE08417E9
:101870009507A607B70708F052CFF701868397832D
:10188000A087B18752CF0115110599F5D7011A9696
:101890004D915D916D917C911D9753968D919D9188
:1018A0000D90BC91A02D481759076A077B0708F1D6
:1018B00081E00E946306882309F4B4CF40920102BC
:1018C0005092020260920302709204028091D6024A
:1018D00081608093D602C8018D509A4FD5019C013A
:1018E000280D391DFC012E173F0759F04D914193EA
:1018F000FACF41E0C301B2010E948C068111EBCF07
:1019000091CF281B390BA20EB31E68CFF701838934
:101910009489A589B68984179507A607B70738F46F
:101920008481438B548B658B768B80688483F7012D
:10193000848183FD1AC0832D9D810F900F900F909D
:101940000F900F90DF91CF911F910F91FF90EF902B
:10195000DF90CF90BF90AF909F908F907F906F90CF
:101960005F904F903F902F90089561E0C7010E94D3
:10197000870A882309F456CFDECFCF93DF931F92D7
:10198000CDB7DEB7698341E050E0BE016F5F7F4FA6
:101990000E94240B0F90DF91CF910895FC01818D5F
:1019A000928D009719F061E00C94870A0895DC018C
:1019B0005996ED91FC913097B9F083899489A58966
:1019C000B6894285538564857585841B950BA60B66
:1019D000B70B811520E89207A105B10538F08FEF0C
:1019E0009FE7A0E0B0E0089590E080E00895CF93F5
:1019F000DF931F92CDB7DEB7FC01818D928D0097EA
:101A000069F0BE016F5F7F4F0E94F707019731F4C5
:101A1000898190E00F90DF91CF9108958FEF9FEF34
:101A2000F9CFEF92FF920F931F93CF93DF931F9203
:101A3000CDB7DEB7FC01818D928D10E000E00097FC
:101A4000D1F07F01BE016F5F7F4F0E94F7070FEF5C
:101A50001FEF019781F4098110E0F701818D928DCC
:101A6000FC014285538564857585415051096109A2
:101A700071090E94F308C8010F90DF91CF911F9167
:101A80000F91FF90EF900895DC0159968D919C91F4
:101A9000009739F0DC01ED91FC910480F581E02D97
:101AA000099490E080E00895CF93DF93EC01E98DF5
:101AB000FA8D309749F481E090E09B838A8390E02F
:101AC00080E0DF91CF91089513821282898D9A8DE3
:101AD0000E94240BE98DFA8D22813381232B59F743
:101AE000F0CFCF93DF931F92CDB7DEB76983DC01D0
:101AF000ED91FC910280F381E02D41E050E0BE01C8
:101B00006F5F7F4F09950F90DF91CF910895CF922E
:101B1000DF92EF92FF920F931F93CF93DF93FC011D
:101B2000C48121E020938105C093D40210927F05E7
:101B3000109280058485682B83EF97E00E949201C4
:101B4000D0918005D13208F092C00E94ED026B0165
:101B50007C018091CD05811165C082E08093CD0527
:101B600081E08093CF058FEF8093CC051092F10533
:101B7000D093F005AFE5B5E0E0EDF5E080E0D813F7
:101B800085C01092F2058091F205CC0FC82BC0934E
:101B9000F2058091CE05813009F07CC01092CE050F
:101BA0000E94ED026B017C018091F2058093BB00E5
:101BB0008091840590918505A0918605B091870557
:101BC000892B8A2B8B2B99F00E94ED0200918405C2
:101BD0001091850520918605309187056C197D0946
:101BE0008E099F090617170728073907E0F180912A
:101BF000BC0083FDD9CF85EC8093BC000E94ED0230
:101C00006B017C018091CD05823009F445C0809143
:101C1000CC058F3F61F18091CC05803241F18091FC
:101C2000CC0525C08091840590918505A0918605FD
:101C3000B0918705892B8A2B8B2B09F48ACF0E94C0
:101C4000ED02009184051091850520918605309163
:101C500087056C197D098E099F0906171707280744
:101C6000390708F076CF809183050E947D0210929B
:101C70007F051092800510928105DF91CF911F9111
:101C80000F91FF90EF90DF90CF9008959D919193E9
:101C90008F5F75CF85EEB0CF8091840590918505DB
:101CA000A0918605B0918705892B8A2B8B2B09F48F
:101CB000A9CF0E94ED020091840510918505209125
:101CC0008605309187056C197D098E099F090617D5
:101CD00017072807390708F095CFC5CF28E0FC0182
:101CE000248760E00C94870D2091E00930E046EFF6
:101CF00052E090E080E08217930790F44D5E5F4FD2
:101D0000FA013497608171816230710539F460E0C5
:101D10008091CC090E944F0281E008950196EBCF9B
:101D200060E08091CA090E944F0282E0089590E02D
:101D300080E008950F931F93CF938C01C62F0E94CC
:101D4000870D6C2F6460C8010E94870D6C2F6B7F1C
:101D5000C8010E94870D83EC90E00197F1F7CF91C5
:101D60001F910F9108950F931F93CF93DF938C01D1
:101D7000D62FC42F607F642B0E949A0E80E1D89FDB
:101D8000B00111246C2BC801DF91CF911F910F91ED
:101D90000C949A0E41E00E94B30E81E090E0089509
:101DA000FC016681262F246026836C6040E00C9441
:101DB000B30ECF93DF93CDB7DEB728970FB6F89465
:101DC000DEBF0FBECDBF28E0EBE0F2E0DE011196F2
:101DD00001900D922A95E1F7FC012085241710F45B
:101DE0004FEF420F50E0440F551F21E030E02C0F21
:101DF0003D1F420F531FFA012081620F606840E0CF
:101E000028960FB6F894DEBF0FBECDBFDF91CF91FD
:101E10000C94B30ECF93DF93EC0140E061E00E949D
:101E2000B30E8BE39FE10197F1F78985882339F0A1
:101E300040E060E0CE01DF91CF910C94D90EDF91AC
:101E4000CF91089585ED8093BC0080918405909199
:101E50008505A0918605B09187050796A11DB11D46
:101E600023E0B695A795979587952A95D1F7209168
:101E7000BC0024FD03C01092CD0508954091840557
:101E8000509185056091860570918705452B462BFD
:101E9000472B69F30097A105B10541F02AE22A9585
:101EA000F1F700C00197A109B109E1CF8091830545
:101EB0000C947D02CF93DF93EC0188819981009788
:101EC00011F00E94A31C198218821D821C821B82A1
:101ED0001A82DF91CF910895FC0180819181009752
:101EE00011F00C94A31C0895FB0101900020E9F768
:101EF0003197AF01461B570BDC01ED91FC9102803D
:101F0000F381E02D09940F931F93CF93DF93EC019E
:101F100088819981009759F02A813B8126173707DC
:101F200030F081E0DF91CF911F910F9108958B01E7
:101F30006F5F7F4F0E942C1D009759F09983888313
:101F40001B830A832C813D81232B59F7FC011082CE
:101F5000E8CF80E0E7CFEF92FF920F931F93CF93EC
:101F6000DF936115710541F480E0DF91CF911F91FE
:101F70000F91FF90EF90089541155105B1F07B014D
:101F8000EC010C811D81040F151FB8010E94830F05
:101F9000882351F3288139818C819D81B701820F7B
:101FA000931F0E94161E1D830C8381E0DECFEF92EB
:101FB000FF920F931F93CF93DF93EC017B018A0174
:101FC000BA010E94830F81110BC0CE010E945A0FEB
:101FD000CE01DF91CF911F910F91FF90EF90089567
:101FE0001D830C83B701888199810E94161EF0CF52
:101FF000FB0101900020E9F73197AF01461B570B19
:102000000C94D70F0F931F93CF93DF93CDB7DEB709
:1020100029970FB6F894DEBF0FBECDBF8C01862F77
:10202000F8011182108213821282158214824AE012
:10203000BE016F5F7F4F90E00E94AC1BBE016F5FDF
:102040007F4FC8010E94F80F29960FB6F894DEBFA3
:102050000FBECDBFDF91CF911F910F910895FC016D
:102060001182108213821282158214826115710509
:1020700051F0FB0101900020E9F73197AF01461BB9
:10208000570B0C94D70F08951F920F920FB60F9213
:1020900011240BB60F922F933F934F935F936F933F
:1020A0007F938F939F93AF93BF93EF93FF93809111
:1020B000B900887F803609F44DC008F040C08832EE
:1020C00009F4A7C028F5803109F49BC0C8F488231F
:1020D00009F4F7C0883009F494C0FF91EF91BF91E3
:1020E000AF919F918F917F916F915F914F913F91B0
:1020F0002F910F900BBE0F900FBE0F901F90189551
:10210000883109F486C0803241F78093CC0514C031
:10211000803409F49BC040F48033B9F38833E9F686
:102120008093CC0585ECAEC0803509F483C088353A
:1021300009F494C0883489F60E94220FCECF8839E2
:1021400009F48AC038F5883729F050F4883611F040
:10215000803719F683E08093CD051092CB0555C0EA
:10216000883809F479C0803919F0803809F0B5CF82
:102170008091CB05803208F06FC0E091CB0581E003
:102180008E0F8093CB058091BB00F0E0E555FA4FB0
:1021900080833BC0803B39F0D0F4803A09F477C0AB
:1021A000883A09F09ACF84E08093CD051092AA0571
:1021B0001092A905F0E0E0E009958091A905811150
:1021C0000FC081E08093A9051092890509C0803C69
:1021D00009F4A8CF883C09F4A5CF883B09F07DCF4E
:1021E000E091AA0581E08E0F8093AA05F0E0E75701
:1021F000FA4F80818093BB009091AA058091A90538
:1022000029C08091F2058093BB0085EC8093BC00CF
:1022100064CF9091F1058091F005981758F5E09101
:10222000F10581E08E0F8093F105F0E0E053FA4F65
:102230008081E9CFE091F10581E08E0F8093F10577
:102240008091BB00F0E0E053FA4F80839091F1055C
:102250008091F0059817C8F285E8D8CFE091F10594
:1022600081E08E0F8093F1058091BB00F0E0E05398
:10227000FA4F80838091CF0581115ECF81E08093FA
:10228000CE0584EA8093BC001092CD0526CF85EC64
:102290008093BC001092CD058091CB05803230F444
:1022A000E091CB05F0E0E555FA4F10826091CB0547
:1022B00070E08BEA95E0F0E0E0E009951092CB0544
:1022C0000CCF1092CC0538CF1F920F920FB60F9201
:1022D00011242F933F938F939F93AF93BF9380913C
:1022E000570590915805A0915905B0915A05309124
:1022F000560523E0230F2D3758F50196A11DB11D7A
:10230000209356058093570590935805A09359053F
:10231000B0935A0580915B0590915C05A0915D0595
:10232000B0915E050196A11DB11D80935B05909350
:102330005C05A0935D05B0935E05BF91AF919F9141
:102340008F913F912F910F900FBE0F901F90189576
:1023500026E8230F0296A11DB11DD2CF1F920F9226
:102360000FB60F9211240BB60F922F933F934F93FA
:102370005F936F937F938F939F93AF93BF93EF93ED
:10238000FF938FEF97E00E94DE03FF91EF91BF91E3
:10239000AF919F918F917F916F915F914F913F91FD
:1023A0002F910F900BBE0F900FBE0F901F9018959E
:1023B0001F920F920FB60F9211240BB60F922F930C
:1023C0008F939F93EF93FF93E0910F08F091100884
:1023D0008081E0911508F091160882FD1DC0908162
:1023E000809118088F5F8F7320911908821741F030
:1023F000E0911808F0E0E150F84F958F80931808AD
:10240000FF91EF919F918F912F910F900BBE0F90A5
:102410000FBE0F901F9018958081F2CF1F920F92E0
:102420000FB60F9211240BB60F922F933F934F9339
:102430005F936F937F938F939F93AF93BF93EF932C
:10244000FF938CE998E00E94DE03FF91EF91BF912A
:10245000AF919F918F917F916F915F914F913F913C
:102460002F910F900BBE0F900FBE0F901F901895DD
:102470001F920F920FB60F9211240BB60F922F934B
:102480008F939F93EF93FF93E091AC08F091AD0889
:102490008081E091B208F091B30882FD1DC0908167
:1024A0008091B5088F5F8F732091B608821741F035
:1024B000E091B508F0E0E456F74F958F8093B508AA
:1024C000FF91EF919F918F912F910F900BBE0F90E5
:1024D0000FBE0F901F9018958081F2CFE3EFF7E0C9
:1024E0001382128288EE93E0A0E0B0E084839583AB
:1024F000A683B7832DE332E031832083EFEFF7E04B
:102500001382128284839583A683B7832FE432E0FB
:10251000318320834DEC50E0558744874CEC50E0EC
:102520005787468748EC50E0518B408B49EC50E090
:10253000538B428B4AEC50E0558B448B4EEC50E071
:10254000578B468B118E128E138E148EECE9F8E0A9
:102550001382128284839583A683B7833183208379
:1025600025EC30E03587248724EC30E03787268758
:1025700020EC30E0318B208B21EC30E0338B228B50
:1025800022EC30E0358B248B26EC30E0378B268B29
:10259000118E128E138E148EE9E3F9E020E520836C
:1025A0001182EBE3F9E0158216821186138642E070
:1025B00050E060E070E0448755876687778713A214
:1025C00015A614A621E632E033A722A717A6EFEF3F
:1025D000F9E01382128284839583A683B78389E707
:1025E00092E091838083128E118E148662EC72E0E9
:1025F00081EF99E00E942F10EDEDF9E084E6828FE3
:10260000138E62EC72E089EF99E00E942F10E0EDEA
:10261000F9E0138212828DE692E091838083118625
:1026200087E2848384E1828784E08387148686E05E
:10263000E3E1F2E0A8ECB9E001900D928A95E1F7B0
:10264000EEEBF9E0108288EE93E09283818394832D
:1026500083831582168217821086118667E872E0DE
:1026600082EA99E00E942F1061E972E088EA99E01D
:102670000E942F1066E972E08EEA99E00E942F1006
:102680006BE972E084EB99E00E942F101092BD0973
:102690000895CF93DF93CDB7DEB7C255D1090FB6FA
:1026A000F894DEBF0FBECDBF789484B5826084BD40
:1026B00084B5816084BD85B5826085BD85B5816046
:1026C00085BD80916E00816080936E0010928100C4
:1026D000809181008260809381008091810081607F
:1026E0008093810080918000816080938000809140
:1026F000B10084608093B1008091B00081608093CC
:10270000B00080919100826080939100809191004F
:10271000816080939100809190008160809390000F
:102720008091A10082608093A1008091A1008160CE
:102730008093A1008091A00081608093A00080918F
:102740002101826080932101809121018160809329
:1027500021018091200181608093200180917A0085
:10276000846080937A0080917A00826080937A00FE
:1027700080917A00816080937A0080917A008068ED
:1027800080937A001092C100E0910F08F091100838
:1027900022E02083E0910B08F0910C0881E0808317
:1027A000E0910D08F0910E0880EA808310921708DE
:1027B000E0911308F091140896E09083E0911108DD
:1027C000F0911208808180618083E0911108F0917E
:1027D0001208808188608083E0911108F0911208CE
:1027E000808180688083E0911108F09112088081D7
:1027F0008F7D8083E091AC08F091AD082083E0915B
:10280000A808F091A9081082E091AA08F091AB08FD
:102810008FEC80831092B408E091B008F091B10879
:102820009083E091AE08F091AF0880818061808351
:10283000E091AE08F091AF08808188608083E091DC
:10284000AE08F091AF08808180688083E091AE0887
:10285000F091AF0880818F7D808386E3898387E351
:102860008A8388E38B838E010F5F1F4F6E0124E004
:10287000C20ED11C64E8E62E69E0F62E302E212E21
:1028800074EC872E79E0972EA12CB12CF801819160
:102890008F01F701818760E00E94BC02F70180820E
:1028A0009182A282B3821086FAE0EF0EF11C0C1521
:1028B0001D0561F78091D50988608093D50994E062
:1028C000F92EF092D80962E370E080E090E00E9477
:1028D00012036091DC0980ED99E00E94870D68EE9B
:1028E00073E080E090E00E94120360E380ED99E0E5
:1028F0000E949A0E0BE416E4C8010197F1F760E319
:1029000080ED99E00E949A0EC8010197F1F760E30B
:1029100080ED99E00E949A0E83E592E00197F1F72D
:1029200060E280ED99E00E949A0E6091D5096062A4
:1029300040E080ED99E00E94B30EF092D60980ED60
:1029400099E00E94D00E80ED99E00E940A0F82E08B
:102950008093D70940E066E080ED99E00E94B30ED5
:1029600040E062E080ED99E00E94B30E8BE39FE1CE
:102970000197F1F780ED99E00E946E0E61E0809181
:10298000C8090E94BC0261E08091CA090E94BC0291
:1029900061E08091CC090E94BC021092F80910926B
:1029A000E0091092DF0966EA72E081EF99E00E9487
:1029B000F80F1092EE091092ED0980ED99E09093D6
:1029C000DE098093DD0988E99AE3A0E0B0E0809316
:1029D000E9099093EA09A093EB09B093EC0961E04F
:1029E0008091C8090E944F0264EC79E080E090E099
:1029F0000E94120329E1C22E22E0D22E36EFE32EEE
:102A000032E0F32E10E000E043E0A42EB12C882445
:102A10008394912C8091F5099091F6098017910784
:102A200080F160E08091C8090E944F0261E08091CE
:102A3000CA090E944F0241E065E0600F80ED99E015
:102A40000E94D90E8091F5099091F609081719078F
:102A500038F4E091F109F091F209309709F013C2CE
:102A60001092DB02EBEDF2E041E0608180ED99E055
:102A70000E94B30E6091F70970E090E080E00E9440
:102A8000120360E08091CA090E944F02F601819111
:102A90006F01F701828313861486158616861782C6
:102AA000108611861286B08AA786928A818A109231
:102AB000E5091092E6091092E7091092E80960E032
:102AC0000E94BC0261E08091CC090E944F0264E642
:102AD00070E080E090E00E94120360E08091CC09F9
:102AE0000E944F020F5F1F4FF3E1EF0EF11C003207
:102AF000110509F08FCF61E089E30E94BC0260E01C
:102B000088E30E94BC0260E087E30E94BC0260E0B0
:102B100086E30E94BC020E9445036093E109709322
:102B2000E2098093E3099093E409E6EFF2E030E0F4
:102B300020E0B3E0EB2EF12C16E0C12ED12C88243E
:102B40008394912C82E0A82EB12CC901B7010E9478
:102B5000D61B8C016183C901B6010E94D61B8083FC
:102B60000115110509F092C1108A17862F5F3F4F9A
:102B700073962032310549F78091EF099091F00961
:102B8000891741F08093F0098091DD099091DE0969
:102B90000E940A0F62EB72E08CE998E00E94740FC9
:102BA00060EC72E08CE998E00E94740F8E01095C81
:102BB0001F4F0E9445034B015C01F4E8EF2EF9E042
:102BC000FF2ED12CC12CA3E06A2E77247394F70139
:102BD00081850E942602019709F061C1F701808575
:102BE00081115DC184819581A681B781B501A40160
:102BF000481B590B6A0B7B0B80819181A281B381A9
:102C000084179507A607B70708F04EC18AE08C9D88
:102C1000F0018D9DF00D1124EC57F64F84829582C2
:102C2000A682B78281E080878092DC029092DD02EA
:102C3000A092DE02B092DF028093BD098091BD09AF
:102C40008823A1F180ED99E00E946E0EE2EACE2E7B
:102C5000E9E0DE2EF12CE12C4E2D62E080ED99E0D2
:102C60000E94D90EB60180ED99E00E945203809136
:102C7000BA09082E000C990B4E2D60E08E159F05A9
:102C800009F071C180ED99E00E94D90E41E06EE338
:102C900080ED99E00E94B30E8FEFE81AF80A96E0F3
:102CA000C90ED11CE4E0EE16F104B1F676EFE72E82
:102CB00072E0F72EF70182810E942602019709F047
:102CC00059C18091DF098F5F8093DF09F701128A74
:102CD000118A0E9445036093E1097093E209809391
:102CE000E3099093E40953E1E50EF11C86E5E8164B
:102CF00085E0F806F9F60E9445038090E10990907E
:102D0000E209A090E309B090E409681979098A09F9
:102D10009B096093E5097093E6098093E709909316
:102D2000E8098090E00962EC72E0CE01875B9F4F7A
:102D30000E942F1046EFC42E42E0D42EB12CA12CBD
:102D4000912C5DE2652E6EE2762EA814B90408F08F
:102D500025C1F601878590898130910509F410C15C
:102D600008F415C1029731F440EA52E063965FAF70
:102D70004EAF639763966EAD7FAD6397CE018D5B6B
:102D80009F4F0E942F10F6016181CE01CD960E94C7
:102D90000210F6016281832D922D0E94021018AE5E
:102DA0001FAA1AAE19AE1CAE1BAE69817A816115DD
:102DB000710529F04D815E81C8010E94D70F609690
:102DC0006FAE609761961FAE619741E050E0BE0123
:102DD000615B7F4FC8010E94AB0F811103C0C80126
:102DE0000E945A0F23964EAD5FAD23976DAD7EAD19
:102DF000C8010E94AB0F811103C0C8010E945A0F85
:102E000029964EAD5FAD299725966EAD7FAD25977E
:102E1000C8010E94AB0F811103C0C8010E945A0F64
:102E200060967FAE609761961FAE619741E050E07B
:102E3000BE01615B7F4FC8010E94AB0F811103C0CF
:102E4000C8010E945A0F4BAD5CAD6FA978ADCE01A1
:102E5000875B9F4F0E94AB0FC8010E946C0F832DB0
:102E6000922D0E946C0FCE01CD960E946C0FCE0168
:102E70008D5B9F4F0E946C0FFFEFAF1ABF0A23E1DB
:102E8000C20ED11C62CFE00FF11FEECD0130110553
:102E900019F4B08AA7866ACE908A878667CEF70132
:102EA00084829582A682B78280918C09882381F0E2
:102EB00080918D090E942602892B51F410928C0971
:102EC0008091BA098F5F84300CF043C08093BA09B7
:102ED00080919609882371F0809197090E942602BB
:102EE000892B41F4109296098091BA098150A0F182
:102EF0008093BA098091A009882351F08091A1099B
:102F00000E942602892B21F41092A0097092BB091D
:102F1000FFEFCF1ADF0A2AE0E20EF11C43E0C416ED
:102F2000D10409F054CE8091DC029091DD02A09191
:102F3000DE02B091DF02881A990AAA0ABB0A50E59C
:102F4000851653EC9506A104B10448F41092BC090F
:102F500075CE1092BA09BCCF6092BA09CBCF81E08E
:102F60008093BC096BCE80ED99E00E94D90E41E0C0
:102F700060E28ECE41E050E0F701528B418BB3CE40
:102F800084EA92E063969FAF8EAF6397F3CEE2EA56
:102F9000F2E06396FFAFEEAF6397ECCE2B966EAD8B
:102FA0007FAD2B976115710509F47BC02F964EAD4F
:102FB0005FAD2F9789EF99E00E94D70FCE01875B15
:102FC0009F4F0E946C0F8091ED099091EE0902973E
:102FD00009F481C09091E0098091E002981709F40A
:102FE0007AC036EFC32E32E0D32E812C912C5401BF
:102FF000F60181899289892B09F058C0C501B40175
:103000000E9412030E944503F601478050846184A8
:10301000728464197509860997096387748785879F
:103020009687F3E1CF0ED11C22E0820E911CA11CE9
:10303000B11C40E484169104A104B104C9F686EFE2
:1030400092E043E455E09C0142175307D9F1FC019B
:103050004384548465847684F901868C978CA0A07F
:10306000B1A0481459046A047B04C0F463E1739668
:10307000A32DB22D01900D926A95E1F763E1FC0159
:10308000D901539601900D926A95E1F763E1E32D22
:10309000F22DDC0101900D926A95E1F72D5E3F4F14
:1030A000D3CF89EF99E00E945A0F88CF0E94450341
:1030B000F601678370878187928713861486158649
:1030C0001686AFCF4396E816F90609F0BCCF80917B
:1030D000E0098093E0024091E5095091E609609192
:1030E000E7097091E8098091E9099091EA09A091B6
:1030F000EB09B091EC09481759076A077B0708F4F8
:103100006EC01092F80982E090E09093EE098093EF
:10311000ED098091EF099091F009891741F08093B2
:10312000F0098091DD099091DE090E940A0F8091DB
:10313000DF098093E0091092DF098091ED099091F9
:10314000EE098230910509F4AEC008F0A3C00097E3
:1031500009F4D1C0019709F4BEC08091BD098093E4
:10316000F8098091E0099091DF09981771F08111B9
:10317000EEC065EC72E08CE998E00E94740F60ECA0
:1031800072E08CE998E00E94740F8091E00981114F
:1031900099C160E08091CA090E944F0260E080916D
:1031A000CC090E944F0261E089E30E94BC0260E00A
:1031B00089E30E944F0280910002882309F4A9C28A
:1031C000109200020E9445036093E5027093E602AC
:1031D0008093E7029093E8020E946D04EACC80910C
:1031E000F809882369F00E9445036093E109709310
:1031F000E2098093E3099093E40983E090E085CFAE
:103200009091E009911105C01092EE091092ED091C
:1032100080CF8091DF099817B1F12091ED093091AD
:10322000EE092130310579F58E3068F584E090E0C3
:103230009093EE098093ED09F12CE12C4F2D6E2D2A
:103240008091DD099091DE090E94D90E63EC72E055
:103250008091DD099091DE090E94740F62E070E0B8
:1032600080E090E00E941203E394F4E1EF12E6CFD5
:1032700065E070E080E090E00E941203F39424E0A7
:10328000F212DBCF46CF41E050E05093EE0940937D
:10329000ED093FCF8330910509F44BC0049709F045
:1032A0005CCF85E025C08091DD099091DE09FC01AD
:1032B000148660E00E94870D8091DD099091DE09FF
:1032C000FC0166816B7F6683686040E00E94B30EFC
:1032D0001092EF0942CF8091DD099091DE090E94A2
:1032E000D00E8091DD099091DE090E946E0E81E082
:1032F0008093EF0932CF41E065E08091DD09909144
:10330000DE090E94D90E8091DD099091DE090E94AC
:10331000D00E8091DD099091DE090E946E0E61EF62
:1033200079E08091DD099091DE090E94520382E0EC
:10333000DFCF8091DD099091DE090E94D00E80914F
:10334000DD099091DE090E946E0E84E0D1CF432CFE
:10335000522CE32CF22C62EC72E0C7010E942F1079
:10336000F6E0EF0EF11C0E151F05A9F7E32CF22C69
:1033700090E080E02091FD093091FE09AC014C5EA7
:103380005F4F5A018217930708F054C03A014C016D
:103390004817590710F04A013C0162EC72E0C8017D
:1033A0000E942F10C090FD09D090FE096C147D047E
:1033B00008F58C149D0408F46401E091F909F0917A
:1033C000FA09EC0DFD1D908010826091F909709151
:1033D000FA09660D771DC8016115710509F45BC016
:1033E0000E94F80F8091F9099091FA09C80ED91E30
:1033F000F6019082F70180819181009709F450C015
:103400006FA978AD6115710509F448C042815381F7
:103410002BAD3CAD4217530708F440C00E94161E66
:103420008BAD9CADF701958384831CAE1BAEC801A8
:103430000E946C0FC501F6E0EF0EF11C843B910574
:1034400009F098CFF12CE12C24E0E216F10458F4B5
:103450004E2D60E080ED99E00E94D90EB20180ED22
:1034600099E00E9452034FEFE41AF40A56E0450E29
:10347000511C89E0E816F10439F77801FE01319614
:103480006F01F6E0EF1AF108C7010E946C0FCE142D
:10349000DF04B9F77ACE0E945A0FA4CF0E94A31C72
:1034A0008FA998ADF7019183808389AD9AAD9383FD
:1034B00082838BAD9CAD9583848318AE1FAA1AAE10
:1034C00019AEB3CF0E944503C090E102D090E20252
:1034D000E090E302F090E4026C197D098E099F09E7
:1034E000643F71408105910508F465CE0E94740E19
:1034F000E82FF0E0EE0FFF1FE853F64F80810E94A7
:10350000260261E0019709F0FFC089E30E94BC0236
:10351000E7EFF1E0E491E150E23108F0F0C0F0E0D3
:10352000EC56F54E0C94EA1BA61AD21AD81AE41AD5
:10353000F01A7F1BFC1A051B0E1B1A1B261B321BC5
:10354000431B4F1B7F1B5B1B671B731B84B5806872
:1035500084BD88EC87BD0E94740EE82FF0E0EE0F6A
:10356000FF1FE853F64F80810E9426027C010E94D3
:10357000740E61E0EA94EF2809F460E0E82FF0E0CF
:10358000EE0FFF1FE853F64F80810E944F020E940A
:1035900045036093E1027093E2028093E30290930B
:1035A000E40209CE84B5806284BD88EC88BDD3CFA7
:1035B0008091800080688093800088EC90E09093F8
:1035C000890080938800C7CF8091800080628093BB
:1035D000800088EC90E090938B0080938A00BBCFB2
:1035E0008091800088608093800088EC90E09093C8
:1035F0008D0080938C00AFCF8091B0008068809365
:10360000B00088EC8093B300A6CF8091B0008062B8
:103610008093B00088EC8093B4009DCF809190009F
:1036200080688093900088EC90E09093990080935C
:10363000980091CF8091900080628093900088ECF8
:1036400090E090939B0080939A0085CF80919000AA
:1036500088608093900088EC90E090939D00809328
:103660009C0079CF8091A00080688093A000809119
:10367000A0008F7B8093A00088EC90E09093A9003D
:103680008093A80068CF8091A00080628093A00002
:1036900088EC90E09093AB008093AA005CCF80917F
:1036A000A00088608093A00088EC90E09093AD002B
:1036B0008093AC0050CF80912001806880932001DE
:1036C00088EC90E0909329018093280144CF809169
:1036D000200180628093200188EC90E090932B0180
:1036E00080932A0138CF8091200188608093200147
:1036F00088EC90E090932D0180932C012CCF61E019
:1037000089E30E944F0227CF89E30E94BC0260E058
:10371000F7CF81E0809300020E9445038091E5028B
:10372000681B6093F50258CD84EB99E00E946C0F02
:103730008EEA99E00E946C0F88EA99E00E946C0F73
:1037400082EA99E00E946C0F89EF99E00E946C0F69
:1037500081EF99E00C946C0FBB27FB015527AA273A
:10376000880F991FAA1FA41710F0A41B839550510E
:10377000B9F7A05DAA3308F0A95DA193009779F786
:10378000B111B1931192CB010C94C61BDC01FC0169
:10379000672F71917723E1F7329704C07C916D9385
:1037A00070836291AE17BF07C8F3089597FB072E89
:1037B00016F4009407D077FD09D00E94F31B07FC94
:1037C00005D03EF4909581959F4F08957095619531
:1037D0007F4F0895EE0FFF1F0024001C0BBE0790C3
:1037E000F691E02D0994AA1BBB1B51E107C0AA1F4B
:1037F000BB1FA617B70710F0A61BB70B881F991F92
:103800005A95A9F780959095BC01CD0108950F9325
:103810001F93CF93DF938230910510F482E090E004
:10382000E0911C0AF0911D0A30E020E0B0E0A0E039
:10383000309799F42115310509F44AC0281B390B3A
:1038400024303105D8F58A819B816115710589F194
:10385000FB0193838283FE0111C04081518102816B
:10386000138148175907E0F04817590799F4109742
:1038700061F012960C93129713961C933296CF0117
:10388000DF91CF911F910F91089500931C0A10931F
:103890001D0AF4CF2115310551F04217530738F0B6
:1038A000A901DB019A01BD01DF01F801C1CFEF01E0
:1038B000F9CF90931D0A80931C0ACDCFFE01E20F31
:1038C000F31F819391932250310939832883D7CFF5
:1038D00020911A0A30911B0A232B41F420910702F0
:1038E0003091080230931B0A20931A0A2091050296
:1038F000309106022115310541F42DB73EB74091B4
:10390000090250910A02241B350BE0911A0AF0912A
:103910001B0AE217F307A0F42E1B3F0B28173907E9
:1039200078F0AC014E5F5F4F2417350748F04E0F1B
:103930005F1F50931B0A40931A0A819391939FCF64
:10394000F0E0E0E09CCFCF93DF930097E9F0FC013B
:10395000329713821282A0911C0AB0911D0AED01C8
:1039600030E020E01097A1F420813181820F931F75
:1039700020911A0A30911B0A2817390709F061C0F3
:10398000F0931B0AE0931A0ADF91CF910895EA01A0
:10399000CE17DF07E8F54A815B819E01411551058D
:1039A000B1F7E901FB83EA8349915991C40FD51F0F
:1039B000EC17FD0761F4808191810296840F951FB9
:1039C000E90199838883828193819B838A83F0E0D4
:1039D000E0E012968D919C9113970097B9F52D9187
:1039E0003C911197CD010296820F931F20911A0AE4
:1039F00030911B0A2817390739F6309751F5109284
:103A00001D0A10921C0AB0931B0AA0931A0ABCCF7D
:103A1000D383C28340815181840F951FC817D90772
:103A200061F44E5F5F4F88819981480F591F518320
:103A300040838A819B81938382832115310509F01C
:103A4000B0CFF0931D0AE0931C0A9ECFFD01DC016C
:103A5000C0CF13821282D7CF4F925F926F927F9224
:103A60008F929F92AF92BF92CF92DF92EF92FF928E
:103A70000F931F93CF93DF938C01009799F4CB01A1
:103A8000DF91CF911F910F91FF90EF90DF90CF903A
:103A9000BF90AF909F908F907F906F905F904F906E
:103AA0000C94071CFC01E60FF71F9C012250310902
:103AB000E217F30708F4AEC0D901CD91DC9111975C
:103AC000C617D70720F1C530D10578F0CE0104978D
:103AD0008617970750F0C61BD70B2297C193D19337
:103AE0006D937C93CF010E94A31CC801DF91CF91FD
:103AF0001F910F91FF90EF90DF90CF90BF90AF900C
:103B00009F908F907F906F905F904F9008955B0192
:103B1000AC1ABD0A4C018C0E9D1EA0911C0AB091DE
:103B20001D0A512C412CF12CE12C109731F580917C
:103B30001A0A90911B0A8815990509F05CC046166F
:103B4000570608F058C08091050290910602009730
:103B500041F48DB79EB74091090250910A02841B2F
:103B6000950BE817F90708F055C0F0931B0AE0938E
:103B70001A0AF90171836083B8CF8D919C911197D6
:103B800012966C90129713967C901397A815B9050E
:103B900059F56C0142E0C40ED11CCA14DB0420F1BB
:103BA000AC014A195B09DA011296159780F062821E
:103BB000738251834083D9016D937C93E114F104A6
:103BC00071F0D7011396FC93EE9312978ECF229645
:103BD0008C0F9D1FF90191838083F301EFCFF09348
:103BE0001D0AE0931C0A81CF4816590608F42C01DF
:103BF0007D01D3019ACFCB010E94071C7C01009765
:103C000049F0AE01B8010E940D1EC8010E94A31C1C
:103C100087016BCF10E000E068CFFB01DC0102C040
:103C200001900D9241505040D8F70895FB01DC01FE
:103C300001900D920020E1F7089511E0C3E0D1E07A
:103C400004C0FE010E94EA1B2196C430D107C9F7C7
:043C5000F894FFCF16
:103C540001FFFFFFFF00001E0A8000000040001467
:103C64000054000C000B000D00161718191A1B1C29
:103C74001D1E1F202122232425262728292A2B2CF8
:103C84002D2E2F303132333435000000009201657F
:103C940001970E57015E015B01580100000000000E
:103CA4000460038D034D04BE039C03B003000000B5
:103CB40000BD0C6003CD0A510300000000CA0E6071
:103CC40003970E510300000000710D540D440DCEF6
:103CD4000CD70CF70C110D6576656E742D6C6F673F
:103CE4000074657374006261636B006265657000E3
:103CF400430045005000274D5A4B2D2D5445434851
:103D040027004465657669636520526561647900BE
:103D14000D0A002A003E3E2D2D206E6F2042757440
:043D2400746F6E004A
:00000001FF
