:100000000C9404010C942E010C942E010C942E01DE
:100010000C942E010C942E010C942E010C942E01A4
:100020000C942E010C942E010C942E010C942E0194
:100030000C942E010C942E010C942E010C942E0184
:100040000C942E010C942E010C942E010C942E0174
:100050000C942E010C942E010C942E010C9456112C
:100060000C942E010C942A120C9400120C942E0164
:100070000C942E010C942E010C942E010C942E0144
:100080000C942E010C942E010C942E010C942E0134
:100090000C94CA110C94A0110C942E010C943610DF
:1000A0000C942E010C942E010C942E010C942E0114
:1000B0000C942E010C942E010C942E010C942E0104
:1000C0000C942E010C942E010C942E010C942E01F4
:1000D0000C942E010C942E010C942E010C942E01E4
:1000E0000C942E0100002100240027002A002D007E
:1000F0003000330001010000040107010A01000083
:100100002200250028002B002E00310034000201BF
:100110000000050108010B0100002000230026005B
:1001200029002C002F00320000010000030106010D
:10013000090105050505070508080808020202026D
:100140000A0A080804040404010101010101010173
:100150000303030303030303040707070C0C0C0C3E
:100160000C0C0C0C02020202060606060606060627
:100170000B0B0B0B0B0B0B0B0102102020080810B4
:100180002040102040800201020108040201010207
:1001900004081020408080402010080402018004E0
:1001A000020180402010080402010804020101023B
:1001B0000408102040800102040810204080000044
:1001C0000A0B02090C0D0E080703040100000000D1
:1001D000000000000000000000000000000000001F
:1001E00000000000000000000000121110000000DC
:1001F00000000000000000000000000000000000FF
:10020000000000006012841B11241FBECFEFD1E25A
:10021000DEBFCDBF2AE0ACEBB2E001C01D92A23040
:10022000B207E1F712E0A0E0B2E0E4E3FCE300E0B3
:100230000BBF02C007900D92AC3BB107D9F711E09C
:10024000C3E0D1E004C02197FE010E94DA1BC23056
:10025000D107C9F70E94D4130C940D1E0C94000012
:1002600020918D05260F3327331F21323105ECF401
:100270002091B105FC0190E080E0243069F082E03B
:100280000895A0918D052191AC0143595A4FA40FB7
:10029000B52FB11D2C930196861798F380918D058B
:1002A000680F60938D0580E0089581E008950895BA
:1002B0008FEF9FEF08958FEF9FEF08958091660570
:1002C00090E09195819591090895CF92DF92EF92F8
:1002D000FF920F931F93CF93DF937C01CB018A0191
:1002E00020916505222389F0EB016B01C40ED51E18
:1002F000CC15DD0569F06991D701ED91FC91019074
:10030000F081E02DC7010995F3CF642F0E943001E1
:10031000C801DF91CF911F910F91FF90EF90DF9077
:10032000CF900895CF93DF931F92CDB7DEB7698347
:10033000209165052223F9F020916405203258F0C0
:1003400021E030E0FC013383228390E080E00F90D5
:10035000DF91CF91089580916305E82FF0E0ED5B88
:10036000FA4F998190838F5F809363058093640532
:1003700081E090E0ECCF61E0CE0101960E94300177
:10038000F7CF8150823108F058C0E82FF0E0E553F4
:10039000FE4F0C94DA1BEB01EF01DD01E301E701F5
:1003A0001D02F201F801FC01020206020A0210021B
:1003B00014021D0218021E022202809180008F7713
:1003C000809380000895809180008F7DF9CF809187
:1003D0008000877FF5CF84B58F7784BD089584B57D
:1003E0008F7DFBCF8091B0008F778093B000089510
:1003F0008091B0008F7DF9CF809190008F778093AE
:1004000090000895809190008F7DF9CF80919000A9
:10041000877FF5CF8091A0008F778093A00008950B
:100420008091A0008F7DF9CF8091A000877FF5CFCC
:10043000809120018F778093200108958091200181
:100440008F7DF9CF80912001877FF5CFCF93DF9308
:10045000282F30E0F901E254FE4F8491F901E85869
:10046000FE4FD491F901EE5CFE4FC491CC23A1F074
:1004700081110E94C101EC2FF0E0EE0FFF1FE85E3A
:10048000FE4FA591B491EC91ED2381E090E009F449
:1004900080E0DF91CF91089580E090E0FACF1F9344
:1004A000CF93DF93282F30E0F901E254FE4F84917F
:1004B000F901E858FE4FD491F901EE5CFE4FC4916A
:1004C000CC23A9F0162F81110E94C101EC2FF0E07E
:1004D000EE0FFF1FE250FF4FA591B4918FB7F89434
:1004E000EC91111108C0D095DE23DC938FBFDF9112
:1004F000CF911F910895DE2BF8CF1F93CF93DF93F9
:10050000C1E0C0936C05882399F1D091B800109197
:10051000BA008091BC008A7B8093BC0060E084E1DB
:100520000E944F0260E085E10E944F021092B105E7
:10053000C093B3051092B20561E084E10E944F02BE
:1005400061E085E10E944F028091B9008E7F809327
:10055000B9008091B9008D7F8093B90088E48093C1
:10056000B80085E48093BC001093BA00D093B80023
:10057000DF91CF911F910895CF93DF9390E0FC011D
:10058000E858FE4F24918E5C9E4FFC018491882395
:10059000D1F090E0880F991FFC01EC51FF4FA5911D
:1005A000B491FC01E250FF4FC591D49161110EC08E
:1005B0009FB7F8948C91E22FE0958E238C9328813D
:1005C000E223E8839FBFDF91CF9108958FB7F8941E
:1005D000EC91E22BEC938FBFF6CF3FB7F89480916C
:1005E0003F0590914005A0914105B091420526B587
:1005F000A89B05C02F3F19F00196A11DB11D3FBF5B
:10060000BA2FA92F982F8827BC01CD01620F711D29
:10061000811D911D42E0660F771F881F991F4A9523
:10062000D1F708958F929F92AF92BF92CF92DF92AF
:10063000EF92FF926B017C010E94ED024B015C0185
:10064000C114D104E104F104B9F00E94ED0268196B
:1006500079098A099B09683E73408105910580F3F9
:1006600021E0C21AD108E108F10888EE880E83E083
:10067000981EA11CB11CE4CFFF90EF90DF90CF90AB
:10068000BF90AF909F908F9008952FB7F89460918E
:100690003B0570913C0580913D0590913E052FBF33
:1006A00008950895AF92BF92CF92DF92EF92FF929A
:1006B0000F931F93CF93DF936C017B018B01040F8A
:1006C000151FEB015E01AE18BF08C017D10759F026
:1006D0006991D601ED91FC910190F081E02DC60168
:1006E0000995892B79F7C501DF91CF911F910F9162
:1006F000FF90EF90DF90CF90BF90AF900895FC01F6
:10070000538D448D252F30E0842F90E0821B930B76
:10071000541710F0CF96089501970895FC01918D1C
:10072000828D981761F0A28DAE0FBF2FB11D5D961F
:100730008C91928D9F5F9F73928F90E008958FEFC1
:100740009FEF0895FC01918D828D981731F0828D75
:10075000E80FF11D858D90E008958FEF9FEF0895CC
:10076000FC01918D228D892F90E0805C9F4F821B30
:1007700091098F739927089583EE97E00E94B00343
:1007800021E0892B09F420E0822F089580E898E089
:100790000E94B00321E0892B09F420E0822F089504
:1007A000FC01A48DA80FB92FB11DA35ABF4F2C91E6
:1007B000848D90E001968F739927848FA689B789DD
:1007C0002C93A089B1898C91837080648C93938DD4
:1007D000848D981306C00288F389E02D80818F7D77
:1007E00080830895EF92FF920F931F93CF93DF932F
:1007F000EC0181E0888F9B8D8C8D98131AC0E8895D
:10080000F989808185FF15C09FB7F894EE89FF892B
:100810006083E889F98980818370806480839FBFC9
:1008200081E090E0DF91CF911F910F91FF90EF90C9
:100830000895F62E0B8D10E00F5F1F4F0F731127D9
:10084000E02E8C8D8E110CC00FB607FCFACFE88914
:10085000F989808185FFF5CFCE010E94D003F1CFC9
:10086000EB8DEC0FFD2FF11DE35AFF4FF0829FB788
:10087000F8940B8FEA89FB8980818062CFCFCF9378
:10088000DF93EC01888D8823B9F0AA89BB89E889B8
:10089000F9898C9185FD03C0808186FD0DC00FB65E
:1008A00007FCF7CF8C9185FFF2CF808185FFEDCFDC
:1008B000CE010E94D003E9CFDF91CF91089580E06F
:1008C00090E0892B29F00E94C60381110E9400004C
:1008D00080E090E0892B29F00E94BC0381110E94E6
:1008E000000080E090E0892B49F080E090E0892BC7
:1008F00029F00E94000081110E94000080E090E039
:10090000892B49F080E090E0892B29F00E940000BB
:1009100081110C94000008952091BD02211109C09D
:1009200021E02093BD0230911D0920911E093CBD9C
:100930002DBD60E0FC0184810C944F0261E0FC015C
:1009400084810E944F028091BD0281111092BD02EC
:1009500008958EBD00000DB407FEFDCF8EB508953D
:100960008FEF0C94A9040F931F93CF93DF93EC01A7
:100970000E9445038B010E94B0048F3F69F00E94E2
:100980004503601B710B6C177D07A8F380E0DF91B6
:10099000CF911F910F91089581E0F9CFCF92DF920F
:1009A000EF92FF920F931F93CF93DF93EC01162FDB
:1009B00069017A018E81882389F08F8198859C0155
:1009C0002F5F3F4F38872F838230924018F40E9468
:1009D000B004F3CFCE010E949E041E82CE010E947D
:1009E0008C048CE291E00E94B304812F80640E9409
:1009F000A90408E110E0D701C601002E04C0B69595
:100A0000A795979587950A94D2F70E94A904085054
:100A10001109083F8FEF180771F78FEF0E94A904A3
:100A200010E00E94B0048A8787FF04C01F3F11F0C6
:100A30001F5FF7CFDF91CF911F910F91FF90EF9044
:100A4000DF90CF900895AF92BF92CF92DF92EF9256
:100A5000FF920F931F93CF93DF93EC016901C801BD
:100A6000820F931F8130924050F58E81882379F058
:100A700088819981AA81BB8184179507A607B7074A
:100A800031F48F819885C816D90608F042C0488392
:100A900059836A837B838B85833039F089E0440FE7
:100AA000551F661F771F8A95D1F79A01AB0161E147
:100AB000CE010E94CE04882389F083E08D83CE018D
:100AC0000E949E0480E0DF91CF911F910F91FF90D3
:100AD000EF90DF90CF90BF90AF9008950E944503B4
:100AE0005B010E94B0048A878F3F69F40E9445032E
:100AF0006A197B096D327140A0F38FE08D83CE01BE
:100B00000E949E04DCCF8E3F89F418861F8281E00C
:100B10008E838F8198858C159D0550F40E94B004BA
:100B20008F819885019698878F83F3CF8DE0E6CFEC
:100B30006701E00EF11E0E94B004F60181936F017F
:100B4000EE15FF05C1F78F819885080F191F1887CB
:100B50000F838985882319F001151240A0F08E813A
:100B6000882389F08F8198859C012F5F3F4F3887BC
:100B70002F838230924018F40E94B004F3CFCE014C
:100B80000E949E041E8281E09ECFCF92DF92EF9260
:100B9000FF920F93CF93DF93EC01690182E141153E
:100BA00051056105710599F08B85833039F089E035
:100BB000440F551F661F771F8A95D1F79A01AB0125
:100BC00068E1CE010E94CE04882319F084E08D8371
:100BD0002DC08EEF0E94A90476018EEFD81AF7017E
:100BE00081917F010E94A904EC14FD04C1F78FEFED
:100BF0000E94A9048FEF0E94A9040E94B0048A8772
:100C00008F71853071F4011116C0CE010E949E04CF
:100C100081E0DF91CF910F91FF90EF90DF90CF9027
:100C2000089581E18D83CE010E949E04CE010E9431
:100C30009E0480E0EECF88E592E00E94B30481112B
:100C400002C085E1C4CF20E030E0A9016DE0CE0113
:100C50000E94CE04882311F084E1B9CF0E94B00431
:100C60008111FACFD2CF0F934091BF025091C002B1
:100C70006091C1027091C202411551056105710573
:100C800089F0082F27ED35E090E080E00E94C5054F
:100C9000882349F01092BF021092C0021092C10244
:100CA0001092C20281E00F9108950F93CF93C82F45
:100CB0008091BE02811105C0C1E08C2FCF910F91B0
:100CC00008954091010250910202609103027091D7
:100CD00004020C2F27ED35E090E080E00E94C5056E
:100CE000811102C0C0E0E9CFCC2331F381E00E9442
:100CF00033068823B9F31092BE02DFCF8F929F9202
:100D0000AF92BF92EF92FF920F931F93CF934B013D
:100D10005C01C42F8091010290910202A091030214
:100D2000B091040288159905AA05BB0541F181E03F
:100D30000E94550681110BC080E0CF911F910F9149
:100D4000FF90EF90BF90AF909F908F90089587EDA8
:100D5000E82E85E0F82E00E012E030E020E0B5015A
:100D6000A40190E080E00E942305882329F380926B
:100D7000010290920202A0920302B09204024091FA
:100D8000BE024C2B4093BE0281E0D7CF4F925F92C0
:100D90006F927F928F929F92AF92BF92CF92DF928B
:100DA000EF92FF920F931F93CF93DF93EC014230AA
:100DB00051056105710590F480E0DF91CF911F919D
:100DC0000F91FF90EF90DF90CF90BF90AF909F90EA
:100DD0008F907F906F905F904F90089589859A854E
:100DE000AB85BC850196A11DB11D84179507A6078B
:100DF000B70710F3CB88DC88ED88FE888F898031B7
:100E000009F042C0BB27A72F962F852F4801590113
:100E10002A013B01C80ED91EEA1EFB1E8091010269
:100E200090910202A0910302B0910402C816D90663
:100E3000EA06FB0699F58F898031C1F5B301A2015D
:100E4000552766277727440F551F49525A4FFA01F5
:100E5000918280828091BE0281608093BE028A89E5
:100E6000823080F08D819E81AF81B8858C0D9D1D73
:100E7000AE1DBF1D8093BF029093C002A093C1021C
:100E8000B093C20281E099CFDB01CA01E7E0B695D9
:100E9000A79597958795EA95D1F7B8CF40E0C70118
:100EA000B6010E947E068111C6CF86CFB301A20192
:100EB0004F77552766277727440F551F440F551F37
:100EC00049525A4FFA0180829182A282B382C2CFE4
:100ED0008F929F92AF92BF92CF92DF92EF92FF924A
:100EE0000F931F93CF93DF93FC0181859285A38598
:100EF000B4850196A11DB11D84179507A607B707F4
:100F000070F480E0DF91CF911F910F91FF90EF90EF
:100F1000DF90CF90BF90AF909F908F90089583887F
:100F20009488A588B6888789803189F5BB27A72F43
:100F3000962F852FE9016A017B018F01BC01CD014C
:100F4000680D791D8A1D9B1D809001029090020200
:100F5000A0900302B090040286169706A806B90670
:100F600001F5F8018789803111F5DD24EE24FF2495
:100F7000F601EE0FFF1FE952FA4F80819181B0E038
:100F8000A0E088839983AA83BB8381E0BBCFDB0188
:100F9000CA01C7E0B695A79597958795CA95D1F7E9
:100FA000C9CF40E00E947E068111DBCFAACFE89432
:100FB000C7F8DD24EE24FF24F601EE0FFF1FEE0F2D
:100FC000FF1FE952FA4F80819181A281B381BF70E6
:100FD000D8CF2F923F924F925F926F927F928F92D3
:100FE0009F92AF92BF92CF92DF92EF92FF920F93B8
:100FF0001F93CF93DF93EC014B018D81811115C0BD
:101000008FEF9FEFDF91CF911F910F91FF90EF90A6
:10101000DF90CF90BF90AF909F908F907F906F9018
:101020005F904F903F902F9008958C8180FFE8CF84
:101030004B895C896D897E898A859B85AC85BD8558
:10104000412C481759076A077B0711F04424439441
:10105000512C52011E0126E0220E311CA114B104B4
:1010600009F4B1C04A855B856C857D856A0181E0A4
:10107000D8228B8D9C8D8A019B01E9E036952795BE
:1010800017950795EA95D1F7ED81E230E1F5FC017E
:10109000628D738D848D958D600F711F821F931FDC
:1010A000612C22E0722E6C187D08A614B70408F497
:1010B00035012C8126FD04C06114F2E07F0671F435
:1010C000009101021091020220910302309104026A
:1010D000061717072807390709F053C040E00E9498
:1010E0007E06882309F48CCFC60189529A4FD40119
:1010F0009C01260D371DFC012E173F0709F45EC029
:1011000041914D93F9CFFC0174807A947022C114FF
:10111000D10471F471100CC0452B462B472B39F5C7
:101120008F89988DA98DBA8D8E839F83A887B98763
:10113000EB8DFC8D6E817F81888599856250710968
:1011400081099109258504C0660F771F881F991FA3
:101150002A95D2F70685178520893189600F711F7E
:10116000821F931F670D711D811D911D99CF4E81A7
:101170005F816885798591010E9468078111D8CFC8
:101180003FCF740183019601AB01BC0190E080E088
:101190000E942305882309F433CF860C971C8A8587
:1011A0009B85AC85BD85860D971DA11DB11D8A87C8
:1011B0009B87AC87BD87A618B70850CF281B390B73
:1011C000820E931EECCFC2011DCF8F929F92AF92E1
:1011D000BF92CF92DF92EF92FF920F931F93CF9324
:1011E000DF93EC018D8181110EC080E0DF91CF9102
:1011F0001F910F91FF90EF90DF90CF90BF90AF9035
:101200009F908F9008950B891C892D893E89041722
:1012100015072607370748F34A015B01823031F48E
:101220008A869B86AC86BD8681E0E0CF81149104DE
:10123000A104B10449F41E821F82188619861A86F9
:101240001B861C861D86F0CF0A851B852C853D8557
:10125000EB8DFC8D858590E00996B901A801415080
:10126000510961097109082E04C076956795579553
:1012700047950A94D2F775016401E1E0CE1AD108CE
:10128000E108F10804C0F694E794D794C7948A95CE
:10129000D2F7C416D506E606F70620F0012B022B7E
:1012A000032B11F58F89988DA98DBA8D8E839F831D
:1012B000A887B9878E010A5F1F4FC114D104E104CA
:1012C000F10409F4ADCF4E815F816885798598017D
:1012D0008B8D9C8D0E94680791E0C91AD108E108A6
:1012E000F1088111EACF81CFC41AD50AE60AF70ABC
:1012F000E1CF3F924F925F926F927F928F929F9237
:10130000AF92BF92CF92DF92EF92FF920F931F9313
:10131000CF93DF93CDB7DEB72C970FB6F894DEBF2F
:101320000FBECDBF5C01DC015B968D909C905C97FD
:1013300016964D905D906D907C90199741145104D4
:101340006104710409F468C0BFEF4B1A5B0A6B0AB1
:101350007B0A312CF40181859285A385B4859C019B
:10136000AD012F5F3F4F4F4F5F4F29873A874B8724
:101370005C87730162011D821E821F821886F40140
:1013800081859285A385B4852D813E814F815885C5
:10139000281739074A075B0708F056C089859A85E0
:1013A000AB85BC858C159D05AE05BF0550F482E06C
:1013B000C82ED12CE12CF12C92E0492E512C612C1D
:1013C000712C9E012F5F3F4FB701A601C4010E94FF
:1013D00068078823C9F189819A81AB81BC81892BF7
:1013E0008A2B8B2B09F1260137019FEF491A590AE5
:1013F000690A790A2D813E814F8158852F5F3F4FC1
:101400004F4F5F4F2D833E834F8358873FEFC31A63
:10141000D30AE30AF30AB3CFF4014080518062801B
:1014200073803324339496CFC414D504E604F704B0
:1014300009F70FEF1FEF2FEF3FE0B701A601C4013F
:101440000E94C606811119C080E02C960FB6F89450
:10145000DEBF0FBECDBFDF91CF911F910F91FF90E7
:10146000EF90DF90CF90BF90AF909F908F907F9044
:101470006F905F904F903F900895D50116964D91D3
:101480005D916D917C91199741155105610571052B
:1014900039F097018601C4010E94C6068823A1F293
:1014A000D5011696CD92DD92ED92FC9219973320DC
:1014B00051F0D701C6010196A11DB11DF401808331
:1014C0009183A283B383F5018789908DA18DB28D1D
:1014D000892B8A2B8B2B39F48481C78AD08EE18E9D
:1014E000F28E80688483F50184818062848381E048
:1014F000ACCF1F93CF93DF93FC0125812223D1F141
:10150000162FEC01848187FF2AC066857785808944
:10151000918941E00E947E06882361F1EA8980E298
:10152000E89FF0011124E952FA4F309719F18D81AB
:10153000823040F48B899C89AD89BE89848F958FD8
:10154000A68FB78F8F89988D938F828F8F89988D73
:10155000A98DBA8DB58BA48B8C818F778C8311115B
:1015600003C08C818F7E8C83812FDF91CF911F915F
:101570000C94550680E0DF91CF911F9108951F9341
:10158000CF93DF93EC018D81813031F090E080E0EA
:10159000DF91CF911F9108958C8181FFF7CF82FD5C
:1015A00018C090E080E00E948C040E94B004182FC4
:1015B00090E080E00E949E041F3F41F78C8185FFF0
:1015C0001BC060E0CE010E94790A8C818F7D8C83E4
:1015D000DDCF4B895C896D897E898A859B85AC8549
:1015E000BD8584179507A607B707D9F2CE010E94DB
:1015F000E5088111D6CFCACF4091BF025091C002F9
:101600006091C1027091C202452B462B472B21F0FD
:1016100080E00E943306BACF80618C832A853B85A7
:10162000317080E092E0821B930BB2CF2F923F92F9
:101630004F925F926F927F928F929F92AF92BF92E2
:10164000CF92DF92EF92FF920F931F93CF93DF938E
:1016500000D000D01F92CDB7DEB77C015B01342EE5
:101660005D83DC0115968C911597813009F0CCC013
:1016700014962C9021FEC8C022FCB2C0C32CDD8081
:1016800022947FE027222094B22DB1702B2ED70117
:101690001A964D915D916D917C911D97C114D10465
:1016A00009F426C15B968D919C915C97FC01748036
:1016B0007A948A019B0169E03695279517950795DD
:1016C0006A95D1F770228A011170711020C001153E
:1016D0001105E9F416964D915D916D917C911997E4
:1016E000411551056105710509F097C057968D9117
:1016F0009D910D90BC91A02D0097A105B10509F019
:10170000AEC0C7010E947909882309F47DC080E03A
:1017100092E0801B910B46018C159D0508F44C014D
:10172000D7015B964D915C915C9716968D919D913A
:101730000D90BC91A02D0297A109B109FA01258550
:1017400004C0880F991FAA1FBB1F2A95D2F7468590
:10175000578560897189840F951FA61FB71F9C014B
:10176000AD01270D311D411D511D29013A01811483
:1017700032E0930609F079C0809101029091020253
:10178000A0910302B091040284159505A605B70542
:1017900059F48FEF9FEFDC018093010290930202D6
:1017A000A0930302B0930402022D9501B301A2019C
:1017B00090E080E00E94C505882331F19EEFB91AC0
:1017C000C818D908F70182859385A485B585880D49
:1017D000991DA11DB11D82879387A487B58757CF17
:1017E000F701438954896589768982859385A48523
:1017F000B585481759076A077B0709F43FCFC7012A
:101800000E94E50881113ACF81E090E0D70113965C
:101810009C938E93129780E007C09E012F5F3F4FED
:101820000E946807811102C090E079C089819A8185
:10183000AB81BC81F701238D348DF901278948EFF5
:101840005FEF60E070E0203121F048EF5FEF6FEF75
:101850007FE084179507A607B70708F052CFF70176
:1018600086839783A087B18752CF0115110599F51B
:10187000D7011A964D915D916D917C911D9753966C
:101880008D919D910D90BC91A02D481759076A0725
:101890007B0708F181E00E945506882309F4B4CF44
:1018A000409201025092020260920302709204027E
:1018B0008091BE0281608093BE02C80189529A4F16
:1018C000D5019C01280D391DFC012E173F0759F049
:1018D0004D914193FACF41E0C301B2010E947E06CF
:1018E0008111EBCF91CF281B390BA20EB31E68CF0D
:1018F000F70183899489A589B68984179507A60776
:10190000B70738F48481438B548B658B768B806862
:101910008483F701848183FD1AC0832D9D810F90FC
:101920000F900F900F900F90DF91CF911F910F911B
:10193000FF90EF90DF90CF90BF90AF909F908F90EF
:101940007F906F905F904F903F902F90089561E04F
:10195000C7010E94790A882309F456CFDECFCF93BE
:10196000DF931F92CDB7DEB7698341E050E0BE013F
:101970006F5F7F4F0E94160B0F90DF91CF910895FC
:10198000FC01818D928D009719F061E00C94790A29
:101990000895DC015996ED91FC913097B9F0838957
:1019A0009489A589B6894285538564857585841B8C
:1019B000950BA60BB70B811520E89207A105B10581
:1019C00038F08FEF9FE7A0E0B0E0089590E080E06E
:1019D0000895CF93DF931F92CDB7DEB7FC01818DC1
:1019E000928D009769F0BE016F5F7F4F0E94E907FB
:1019F000019731F4898190E00F90DF91CF910895A4
:101A00008FEF9FEFF9CFEF92FF920F931F93CF933A
:101A1000DF931F92CDB7DEB7FC01818D928D10E070
:101A200000E00097D1F07F01BE016F5F7F4F0E9401
:101A3000E9070FEF1FEF019781F4098110E0F7012B
:101A4000818D928DFC014285538564857585415059
:101A50005109610971090E94E508C8010F90DF91E1
:101A6000CF911F910F91FF90EF900895DC0159964F
:101A70008D919C91009739F0DC01ED91FC910480EF
:101A8000F581E02D099490E080E00895CF93DF93F5
:101A9000EC01E98DFA8D309749F481E090E09B8369
:101AA0008A8390E080E0DF91CF91089513821282C3
:101AB000898D9A8D0E94160BE98DFA8D22813381D2
:101AC000232B59F7F0CFCF93DF931F92CDB7DEB71B
:101AD0006983DC01ED91FC910280F381E02D41E00E
:101AE00050E0BE016F5F7F4F09950F90DF91CF915E
:101AF0000895CF92DF92EF92FF920F931F93CF93AF
:101B0000DF93FC01C48121E020936505C093BC02F2
:101B100010926305109264058485682B87ED97E029
:101B20000E949201D0916405D13208F092C00E94C7
:101B3000ED026B017C018091B105811165C082E0ED
:101B40008093B10581E08093B3058FEF8093B0055A
:101B50001092D505D093D405A3E4B5E0E4EBF5E00D
:101B600080E0D81385C01092D6058091D605CC0FA1
:101B7000C82BC093D6058091B205813009F07CC096
:101B80001092B2050E94ED026B017C018091D60596
:101B90008093BB008091680590916905A0916A05CA
:101BA000B0916B05892B8A2B8B2B99F00E94ED024B
:101BB000009168051091690520916A0530916B05C7
:101BC0006C197D098E099F09061717072807390721
:101BD000E0F18091BC0083FDD9CF85EC8093BC00FF
:101BE0000E94ED026B017C018091B105823009F405
:101BF00045C08091B0058F3F61F18091B005803282
:101C000041F18091B00525C08091680590916905EA
:101C1000A0916A05B0916B05892B8A2B8B2B09F457
:101C20008ACF0E94ED02009168051091690520910C
:101C30006A0530916B056C197D098E099F0906179D
:101C400017072807390708F076CF809167050E94AB
:101C50007D02109263051092640510926505DF9174
:101C6000CF911F910F91FF90EF90DF90CF9008954B
:101C70009D9191938F5F75CF85EEB0CF8091680570
:101C800090916905A0916A05B0916B05892B8A2B0B
:101C90008B2B09F4A9CF0E94ED02009168051091E9
:101CA000690520916A0530916B056C197D098E09D3
:101CB0009F09061717072807390708F095CFC5CFE2
:101CC00028E0FC01248760E00C94790D2091C40980
:101CD00030E04AED52E090E080E08217930790F404
:101CE0004D5E5F4FFA0134976081718162307105FA
:101CF00039F460E08091B0090E944F0281E00895BC
:101D00000196EBCF60E08091AE090E944F0282E025
:101D1000089590E080E008950F931F93CF938C0176
:101D2000C62F0E94790D6C2F6460C8010E94790D46
:101D30006C2F6B7FC8010E94790D83EC90E00197B6
:101D4000F1F7CF911F910F9108950F931F93CF93A8
:101D5000DF938C01D62FC42F607F642B0E948C0EE2
:101D600080E1D89FB00111246C2BC801DF91CF9185
:101D70001F910F910C948C0E41E00E94A50E81E002
:101D800090E00895FC016681262F246026836C6014
:101D900040E00C94A50ECF93DF93CDB7DEB7289724
:101DA0000FB6F894DEBF0FBECDBF28E0EBE0F2E047
:101DB000DE01119601900D922A95E1F7FC01208534
:101DC000241710F44FEF420F50E0440F551F21E04D
:101DD00030E02C0F3D1F420F531FFA012081620F8C
:101DE000606840E028960FB6F894DEBF0FBECDBF06
:101DF000DF91CF910C94A50ECF93DF93EC0140E0DF
:101E000061E00E94A50E8BE39FE10197F1F78985C0
:101E1000882339F040E060E0CE01DF91CF910C944F
:101E2000CB0EDF91CF91089585ED8093BC0080911A
:101E3000680590916905A0916A05B0916B050796B8
:101E4000A11DB11D23E0B695A795979587952A9575
:101E5000D1F72091BC0024FD03C01092B105089574
:101E6000409168055091690560916A0570916B0514
:101E7000452B462B472B69F30097A105B10541F08F
:101E80002AE22A95F1F700C00197A109B109E1CF33
:101E9000809167050C947D02CF93DF93EC018881DC
:101EA0009981009711F00E94931C198218821D825B
:101EB0001C821B821A82DF91CF910895FC018081E0
:101EC0009181009711F00C94931C0895FB010190EF
:101ED0000020E9F73197AF01461B570BDC01ED916C
:101EE000FC910280F381E02D09940F931F93CF930F
:101EF000DF93EC0188819981009759F02A813B8119
:101F00002617370730F081E0DF91CF911F910F91B5
:101F100008958B016F5F7F4F0E941C1D009759F041
:101F2000998388831B830A832C813D81232B59F756
:101F3000FC011082E8CF80E0E7CFEF92FF920F9391
:101F40001F93CF93DF936115710541F480E0DF911A
:101F5000CF911F910F91FF90EF900895411551057A
:101F6000B1F07B01EC010C811D81040F151FB8013C
:101F70000E94750F882351F3288139818C819D81BE
:101F8000B701820F931F0E94061E1D830C8381E000
:101F9000DECFEF92FF920F931F93CF93DF93EC016D
:101FA0007B018A01BA010E94750F81110BC0CE011D
:101FB0000E944C0FCE01DF91CF911F910F91FF90A6
:101FC000EF9008951D830C83B701888199810E9449
:101FD000061EF0CFFB0101900020E9F73197AF0119
:101FE000461B570B0C94C90F0F931F93CF93DF938E
:101FF000CDB7DEB729970FB6F894DEBF0FBECDBFC1
:102000008C01862FF80111821082138212821582B0
:1020100014824AE0BE016F5F7F4F90E00E949C1BDC
:10202000BE016F5F7F4FC8010E94EA0F29960FB66D
:10203000F894DEBF0FBECDBFDF91CF911F910F91FE
:102040000895FC011182108213821282158214827B
:102050006115710551F0FB0101900020E9F73197FE
:10206000AF01461B570B0C94C90F08951F920F9296
:102070000FB60F9211240BB60F922F933F934F93ED
:102080005F936F937F938F939F93AF93BF93EF93E0
:10209000FF938091B900887F803609F44DC008F025
:1020A00040C0883209F4A7C028F5803109F49BC0EC
:1020B000C8F4882309F4F7C0883009F494C0FF916C
:1020C000EF91BF91AF919F918F917F916F915F91B0
:1020D0004F913F912F910F900BBE0F900FBE0F901D
:1020E0001F901895883109F486C0803241F780939B
:1020F000B00514C0803409F49BC040F48033B9F3B8
:102100008833E9F68093B00585ECAEC0803509F4DC
:1021100083C0883509F494C0883489F60E94140F6E
:10212000CECF883909F48AC038F5883729F050F4C1
:10213000883611F0803719F683E08093B10510924C
:10214000AF0555C0883809F479C0803919F0803856
:1021500009F0B5CF8091AF05803208F06FC0E091F3
:10216000AF0581E08E0F8093AF058091BB00F0E05A
:10217000E157FA4F80833BC0803B39F0D0F4803A7E
:1021800009F477C0883A09F09ACF84E08093B105CA
:1021900010928E0510928D05F0E0E0E00995809197
:1021A0008D0581110FC081E080938D0510926D0522
:1021B00009C0803C09F4A8CF883C09F4A5CF883B2E
:1021C00009F07DCFE0918E0581E08E0F80938E0522
:1021D000F0E0E359FA4F80818093BB0090918E0527
:1021E00080918D0529C08091D6058093BB0085EC38
:1021F0008093BC0064CF9091D5058091D405981749
:1022000058F5E091D50581E08E0F8093D505F0E07B
:10221000EC54FA4F8081E9CFE091D50581E08E0F33
:102220008093D5058091BB00F0E0EC54FA4F808399
:102230009091D5058091D4059817C8F285E8D8CF3C
:10224000E091D50581E08E0F8093D5058091BB008C
:10225000F0E0EC54FA4F80838091B30581115ECF9A
:1022600081E08093B20584EA8093BC001092B105AE
:1022700026CF85EC8093BC001092B1058091AF050C
:10228000803230F4E091AF05F0E0E157FA4F108270
:102290006091AF0570E08FE895E0F0E0E0E009952F
:1022A0001092AF050CCF1092B00538CF1F920F924D
:1022B0000FB60F9211242F933F938F939F93AF9359
:1022C000BF9380913B0590913C05A0913D05B09155
:1022D0003E0530913A0523E0230F2D3758F501963E
:1022E000A11DB11D20933A0580933B0590933C05B9
:1022F000A0933D05B0933E0580913F059091400528
:10230000A0914105B09142050196A11DB11D809398
:102310003F0590934005A0934105B0934205BF91BE
:10232000AF919F918F913F912F910F900FBE0F9082
:102330001F90189526E8230F0296A11DB11DD2CF3C
:102340001F920F920FB60F9211240BB60F922F937C
:102350003F934F935F936F937F938F939F93AF932D
:10236000BF93EF93FF9383EE97E00E94D003FF911A
:10237000EF91BF91AF919F918F917F916F915F91FD
:102380004F913F912F910F900BBE0F900FBE0F906A
:102390001F9018951F920F920FB60F9211240BB633
:1023A0000F922F938F939F93EF93FF93E091F307F7
:1023B000F091F4078081E091F907F091FA0782FD2E
:1023C0001DC090818091FC078F5F8F732091FD0766
:1023D000821741F0E091FC07F0E0ED51F84F958F46
:1023E0008093FC07FF91EF919F918F912F910F9018
:1023F0000BBE0F900FBE0F901F9018958081F2CFEB
:102400001F920F920FB60F9211240BB60F922F93BB
:102410003F934F935F936F937F938F939F93AF936C
:10242000BF93EF93FF9380E898E00E94D003FF9161
:10243000EF91BF91AF919F918F917F916F915F913C
:102440004F913F912F910F900BBE0F900FBE0F90A9
:102450001F9018951F920F920FB60F9211240BB672
:102460000F922F938F939F93EF93FF93E091900898
:10247000F09191088081E0919608F091970882FD93
:102480001DC09081809199088F5F8F7320919A0869
:10249000821741F0E0919908F0E0E058F74F958FEE
:1024A00080939908FF91EF919F918F912F910F90B9
:1024B0000BBE0F900FBE0F901F9018958081F2CF2A
:1024C0008F929F92AF92BF92CF92DF92EF92FF9244
:1024D0000F931F93CF93DF9300D01F92CDB7DEB73A
:1024E0001092DA071092D90788EE93E0A0E0B0E0EE
:1024F0008093DB079093DC07A093DD07B093DE07A2
:102500002DE332E03093D8072093D7071092E607E7
:102510001092E5078093E7079093E807A093E907F7
:10252000B093EA072FE432E03093E4072093E30707
:102530004DEC50E05093F0074093EF074CEC50E027
:102540005093F2074093F10748EC50E05093F407A2
:102550004093F30749EC50E05093F6074093F5079A
:102560004AEC50E05093F8074093F7074EEC50E0E8
:102570005093FA074093F9071092FC071092FD0759
:102580001092FE071092FF071092830810928208A3
:102590008093840890938508A0938608B093870859
:1025A000309381082093800825EC30E030938D082B
:1025B00020938C0824EC30E030938F0820938E0811
:1025C00020EC30E0309391082093900821EC30E02B
:1025D000309393082093920822EC30E030939508D2
:1025E0002093940826EC30E03093970820939608C7
:1025F0001092990810929A0810929B0810929C08C9
:1026000020E520931D0910921E09109224091092B2
:1026100025091092280910922A0942E050E060E052
:1026200070E040932B0950932C0960932D0970930F
:102630002E091092420910924C0910924B0921E682
:1026400032E030934A092093490910924E091092C2
:10265000E6091092E5098093E7099093E809A093B1
:10266000E909B093EA0989E792E09093E40980933D
:10267000E3091092FD091092FC091092EF0969EA32
:1026800072E085ED99E00E94211084E68093DB09D9
:102690001092DC0969EA72E08DED99E00E94211048
:1026A0001092B7091092B6098DE692E09093B509A1
:1026B0008093B4091092BD0987E28093B80984E140
:1026C0008093BE0984E08093BF091092C00986E020
:1026D000E3E1F2E0ACEAB9E001900D928A95E1F70E
:1026E0001092A20988EE93E09093A4098093A30925
:1026F0009093A6098093A5091092A7091092A809A2
:102700001092A9091092AA091092AB0969EA72E025
:1027100088E899E00E94211069EA72E08EE899E069
:102720000E94211069EA72E084E999E00E94211078
:1027300069EA72E08AE999E00E94211086E38983C0
:1027400087E38A8388E38B83CE0101967C0108E6C8
:1027500019E06E0194E0C90ED11C88E7882E912CF7
:10276000A12CB12CF70181917F01F801818760E0F4
:102770000E94BC02F80180829182A282B382065F2D
:102780001F4FEC14FD0471F70F900F900F90DF9125
:10279000CF911F910F91FF90EF90DF90CF90BF905E
:1027A000AF909F908F900895CF93DF93CDB7DEB712
:1027B000C255D1090FB6F894DEBF0FBECDBF7894D5
:1027C00084B5826084BD84B5816084BD85B5826036
:1027D00085BD85B5816085BD80916E0081608093E7
:1027E0006E00109281008091810082608093810050
:1027F0008091810081608093810080918000816060
:10280000809380008091B10084608093B1008091BA
:10281000B00081608093B0008091910082608093CD
:10282000910080919100816080939100809190004F
:102830008160809390008091A10082608093A100CC
:102840008091A10081608093A1008091A0008160AF
:102850008093A0008091210182608093210180916A
:10286000210181608093210180912001816080930A
:10287000200180917A00846080937A0080917A00B0
:10288000826080937A0080917A00816080937A00E0
:1028900080917A00806880937A001092C100E09164
:1028A000F307F091F407A2E0FA2EF082E091EF072F
:1028B000F091F00781E08083E091F107F091F20759
:1028C00080EA80831092FB07E091F707F091F80708
:1028D00096E09083E091F507F091F60780818061A2
:1028E0008083E091F507F091F6078081886080830E
:1028F000E091F507F091F607808180688083E09190
:10290000F507F091F60780818F7D8083E091900834
:10291000F0919108F082E0918C08F0918D0810827E
:10292000E0918E08F0918F088FEC808310929808C8
:10293000E0919408F09195089083E0919208F091CD
:102940009308808180618083E0919208F0919308E0
:10295000808188608083E0919208F0919308808163
:1029600080688083E0919208F091930880818F7D48
:1029700080838091B90988608093B909B4E0EB2E17
:10298000E092BC0962E370E080E090E00E941203F4
:102990006091C00984EB99E00E94790D68EE73E0C4
:1029A00080E090E00E94120360E384EB99E00E94D3
:1029B0008C0E0BE416E4C8010197F1F760E384EB99
:1029C00099E00E948C0EC8010197F1F760E384EB57
:1029D00099E00E948C0E83E592E00197F1F760E2A6
:1029E00084EB99E00E948C0E6091B909606240E02E
:1029F00084EB99E00E94A50EE092BA0984EB99E07D
:102A00000E94C20E84EB99E00E94FC0EF092BB097A
:102A100040E066E084EB99E00E94A50E40E062E0B1
:102A200084EB99E00E94A50E8BE39FE10197F1F7FB
:102A300084EB99E00E94600E61E08091AC090E94F5
:102A4000BC0261E08091AE090E94BC0261E080910D
:102A5000B0090E94BC021092DC091092C4091092C5
:102A6000C3096DE872E085ED99E00E94EA0F1092CB
:102A7000D2091092D10984EB99E09093C209809316
:102A8000C10988E99AE3A0E0B0E08093CD09909372
:102A9000CE09A093CF09B093D00961E08091AC0931
:102AA0000E944F0264EC79E080E090E00E94120303
:102AB00019E1C12E12E0D12E0AEDE02E02E0F02E37
:102AC00010E000E083E0A82EB12C88248394912CA0
:102AD0008091D9099091DA098017910780F160E01F
:102AE0008091AC090E944F0261E08091AE090E9482
:102AF0004F0241E065E0600F84EB99E00E94CB0E4D
:102B00008091D9099091DA090817190738F4E091F2
:102B1000D509F091D609309709F002C21092C3028C
:102B2000E3ECF2E041E0608184EB99E00E94A50EC5
:102B30006091DB0970E090E080E00E94120360E0A9
:102B40008091AE090E944F02D6018D916D01F7016F
:102B50008283138614861586168617821086118640
:102B60001286B08AA786928A818A1092C909109229
:102B7000CA091092CB091092CC0960E00E94BC02F5
:102B800061E08091B0090E944F0264E670E080E04D
:102B900090E00E94120360E08091B0090E944F0211
:102BA0000F5F1F4FF3E1EF0EF11C0032110509F02A
:102BB0008FCF61E089E30E94BC0260E088E30E945D
:102BC000BC0260E087E30E94BC0260E086E30E94F2
:102BD000BC020E9445036093C5097093C6098093A7
:102BE000C7099093C809EAEDF2E030E020E043E045
:102BF000E42EF12C56E0C52ED12C88248394912C00
:102C000072E0A72EB12CC901B7010E94C61B8C012E
:102C10006183C901B6010E94C61B8083011511059D
:102C200009F081C1108A17862F5F3F4F73962032BB
:102C3000310549F78091D3099091D409891741F062
:102C40008093D4098091C1099091C2090E94FC0E21
:102C500069E972E080E898E00E94660F67EA72E036
:102C600080E898E00E94660F8E01095C1F4F84EB9C
:102C700099E090938709809386090E9445034B0150
:102C80005C0198E6E92E99E0F92E26E8C22E29E0AB
:102C9000D22E77247394D70119968C910E94260224
:102CA0000197C1F4F7018085811114C08481958159
:102CB000A681B781B501A401481B590B6A0B7B0B98
:102CC00080819181A281B38184179507A607B707F8
:102CD00008F4708680917009882369F080917109E9
:102CE0000E942602892B39F4109270098091A00964
:102CF0008F5F8093A00980917A09882369F0809181
:102D00007B090E942602892B39F410927A0980915E
:102D1000A00981508093A00980918409882351F0F3
:102D2000809185090E942602892B21F41092840942
:102D30007092A109FAE0EF0EF11CCE14DF0409F045
:102D4000AACFAAE3CA2EA5E0DA2EBAEDEB2EB2E0A6
:102D5000FB2EAA24A394B12CD70112968C910E9429
:102D60002602019709F0E8C08091C3098F5F809324
:102D7000C309F701128A118A0E9445036093C509AD
:102D80007093C6098093C7099093C809B3E1EB0E0D
:102D9000F11CCE14DF0401F70E9445038090C509A1
:102DA0009090C609A090C709B090C8096819790920
:102DB0008A099B096093C9097093CA098093CB095A
:102DC0009093CC098090C40969EA72E0CE01875BD8
:102DD0009F4F0E9421107AEDC72E72E0D72EB12CA2
:102DE000A12C912CEDE27E2EFEE26F2EA814B904E8
:102DF00008F0B2C0F601878590898130910509F409
:102E0000A1C008F4A4C0029721F467E8262E62E06E
:102E1000362EB101CE018D5B9F4F0E942110D6014D
:102E200011966C91CE01CD960E94F40FF60162814D
:102E3000CE0101960E94F40F18AE1FAA1AAE19AE69
:102E40001CAE1BAE69817A816115710529F04D8137
:102E50005E81C8010E94C90F60967FAE609761963F
:102E60001FAE619741E050E0BE01615B7F4FC8013A
:102E70000E949D0F811103C0C8010E944C0F239630
:102E80004EAD5FAD23976DAD7EADC8010E949D0F25
:102E9000811103C0C8010E944C0F29964EAD5FAD51
:102EA000299725966EAD7FAD2597C8010E949D0F8D
:102EB000811103C0C8010E944C0F60966FAE6097ED
:102EC00061961FAE619741E050E0BE01615B7F4FAC
:102ED000C8010E949D0F811103C0C8010E944C0FC0
:102EE0004BAD5CAD6FA978ADCE01875B9F4F0E9463
:102EF0009D0FC8010E945E0FCE0101960E945E0FD9
:102F0000CE01CD960E945E0FCE018D5B9F4F0E9439
:102F10005E0FFFEFAF1ABF0A23E1C20ED11C66CFCE
:102F2000E00FF11FFFCD0130110519F4B08AA7861B
:102F30007BCE908A878678CED7015296BC92AE928D
:102F4000519724CF5BE8252E52E0352E62CF49E819
:102F5000242E42E0342E5DCF2B966EAD7FAD2B97A5
:102F60006115710509F47EC02F964EAD5FAD2F97A8
:102F70008DED99E00E94C90FCE01875B9F4F0E94A3
:102F80005E0F8091D1099091D209029709F484C013
:102F90009091C4098091C402981709F47DC03AED5C
:102FA000C32E32E0D32E812C912C5401D6015196A0
:102FB0008D919C91892B09F05AC0C501B4010E94E2
:102FC00012030E944503F601478050846184728495
:102FD00064197509860997096387748785879687B9
:102FE000B3E1CB0ED11CE2E08E0E911CA11CB11CF2
:102FF000F0E48F169104A104B104C1F68AED92E0C9
:1030000067E275E09C0162177307E9F1DC011B962A
:103010004D905D906D907C901E97F901868C978CF9
:10302000A0A0B1A0481459046A047B04C0F443E191
:103030007396DE01119601900D924A95E1F743E1F6
:10304000FC01D901539601900D924A95E1F743E1B5
:10305000FE013196DC0101900D924A95E1F72D5E5B
:103060003F4FD1CF8DED99E00E944C0F85CF0E944C
:103070004503F601678370878187928713861486DC
:1030800015861686ADCF43968E159F0509F0BACFEB
:103090008091C4098093C4024091C9095091CA0922
:1030A0006091CB097091CC098091CD099091CE09A6
:1030B000A091CF09B091D009481759076A077B073B
:1030C00048F01092DC0982E090E09093D20980935E
:1030D000D10919C08091DC09882369F00E94450359
:1030E0006093C5097093C6098093C7099093C80976
:1030F00083E090E0EACF9091C409911166C01092EC
:10310000D2091092D1098091D3099091D4098917DD
:1031100041F08093D4098091C1099091C2090E9425
:10312000FC0E8091C3098093C4091092C309809159
:10313000D1099091D2098230910509F48CC008F030
:1031400081C0009709F4B0C0019709F49DC0809137
:10315000C4099091C309981771F08111DCC06CEA21
:1031600072E080E898E00E94660F67EA72E080E80B
:1031700098E00E94660F8091C409811193C160E0BC
:103180008091AE090E944F0260E08091B0090E94D8
:103190004F0261E089E30E94BC0260E089E30E9483
:1031A0004F0280910002882309F4A3C2109200020A
:1031B0000E9445036093C9027093CA028093CB02B8
:1031C0009093CC020E945F0452CD8091C30998175E
:1031D000B1F12091D1093091D2092130310579F531
:1031E0008E3068F584E090E09093D2098093D10905
:1031F000F12CE12C4F2D6E2D8091C1099091C209C7
:103200000E94CB0E6AEA72E08091C1099091C209D6
:103210000E94660F62E070E080E090E00E9412037E
:10322000E394F4E1EF12E6CF65E070E080E090E037
:103230000E941203F39424E0F212DBCF64CF81E00A
:1032400090E043CF8330910509F457C0049709F00B
:103250007ECF85E026C08091C1099091C209DC0132
:103260001C961C9260E00E94790D8091C10990919A
:10327000C209FC0166816B7F6683686040E00E9442
:10328000A50E1092D30963CF8091C1099091C20914
:103290000E94C20E8091C1099091C2090E94600EE5
:1032A00081E08093D30953CF41E065E08091C1096B
:1032B0009091C2090E94CB0E8091C1099091C209E0
:1032C0000E94C20E8091C1099091C2090E94600EB5
:1032D0008091C1099091C2094091D9095091DA09B0
:1032E0006091D5097091D609DC01ED91FC910280C5
:1032F000F381E02D099582E0D4CF8091C1099091AE
:10330000C2090E94C20E8091C1099091C2090E9417
:10331000600E84E0C6CFFE0131966F017F01639697
:10332000FFAFEEAF639769EA72E0C7010E94211018
:10333000F6E0EF0EF11C0E151F05A9F7760190E0DF
:1033400080E02091E1093091E209AC014C5E5F4FD1
:103350004A018217930708F056C02A013C0148171A
:10336000590710F03A012C0169EA72E0C8010E9485
:103370002110A090E109B090E2094A145B0408F51D
:103380006A147B0408F45301E091DD09F091DE0931
:10339000EA0DFB1D708010826091DD097091DE09DD
:1033A000640D751DC8016115710509F464C00E94A2
:1033B000EA0F8091DD099091DE09A80EB91ED501B2
:1033C0007C92F70180819181009709F459C06FA91F
:1033D00078AD6115710509F451C0428153812BAD5F
:1033E0003CAD4217530708F449C00E94061E8BAD3E
:1033F0009CADD70115969C938E9314971CAE1BAE73
:10340000C8010E945E0FC401F6E0EF0EF11C843B80
:10341000910509F096CFF12CE12C24E0E216F1049D
:1034200088F44E2D60E084EB99E00E94CB0ED6012B
:1034300014964D915C9115976D917C9184EB99E078
:103440000E945203BFEFEB1AFB0AE6E0CE0ED11C3E
:10345000F9E0EF16F10409F7780126E0E21AF10825
:10346000C7010E945E0F63964EAD5FAD63974E1528
:103470005F0599F780CE0E944C0F9BCF0E94931C52
:103480008FA998ADF7019183808389AD9AAD93831D
:1034900082838BAD9CAD9583848318AE1FAA1AAE30
:1034A00019AEACCF0E944503C090C502D090C602B1
:1034B000E090C702F090C8026C197D098E099F093F
:1034C000643F71408105910508F46BCE0E94660E41
:1034D000E82FF0E0EE0FFF1FE455F64F80810E94C9
:1034E000260261E0019709F0FFC089E30E94BC0257
:1034F000E7EFF1E0E491E150E23108F0F0C0F0E0F4
:10350000EC57F54E0C94DA1B961AC21AC81AD41A44
:10351000E01A6F1BEC1AF51AFE1A0A1B161B221B67
:10352000331B3F1B6F1B4B1B571B631B84B58068F2
:1035300084BD88EC87BD0E94660EE82FF0E0EE0F98
:10354000FF1FE455F64F80810E9426027C010E94F5
:10355000660E61E0EA94EF2809F460E0E82FF0E0FD
:10356000EE0FFF1FE455F64F80810E944F020E942C
:1035700045036093C5027093C6028093C70290937F
:10358000C8020FCE84B5806284BD88EC88BDD3CFDD
:103590008091800080688093800088EC90E0909318
:1035A000890080938800C7CF8091800080628093DB
:1035B000800088EC90E090938B0080938A00BBCFD2
:1035C0008091800088608093800088EC90E09093E8
:1035D0008D0080938C00AFCF8091B0008068809385
:1035E000B00088EC8093B300A6CF8091B0008062D9
:1035F0008093B00088EC8093B4009DCF80919000C0
:1036000080688093900088EC90E09093990080937C
:10361000980091CF8091900080628093900088EC18
:1036200090E090939B0080939A0085CF80919000CA
:1036300088608093900088EC90E090939D00809348
:103640009C0079CF8091A00080688093A000809139
:10365000A0008F7B8093A00088EC90E09093A9005D
:103660008093A80068CF8091A00080628093A00022
:1036700088EC90E09093AB008093AA005CCF80919F
:10368000A00088608093A00088EC90E09093AD004B
:103690008093AC0050CF80912001806880932001FE
:1036A00088EC90E0909329018093280144CF809189
:1036B000200180628093200188EC90E090932B01A0
:1036C00080932A0138CF8091200188608093200167
:1036D00088EC90E090932D0180932C012CCF61E039
:1036E00089E30E944F0227CF89E30E94BC0260E079
:1036F000F7CF81E0809300020E9445038091C902C8
:10370000681B6093D9025ECD8AE999E00E945E0F42
:1037100084E999E00E945E0F8EE899E00E945E0FB6
:1037200088E899E00E945E0F8DED99E00E945E0F9F
:1037300085ED99E00C945E0FBB27FB015527AA2766
:10374000880F991FAA1FA41710F0A41B839550512E
:10375000B9F7A05DAA3308F0A95DA193009779F7A6
:10376000B111B1931192CB010C94B61BDC01FC0199
:10377000672F71917723E1F7329704C07C916D93A5
:1037800070836291AE17BF07C8F3089597FB072EA9
:1037900016F4009407D077FD09D00E94E31B07FCC4
:1037A00005D03EF4909581959F4F08957095619551
:1037B0007F4F0895EE0FFF1F0024001C0BBE0790E3
:1037C000F691E02D0994AA1BBB1B51E107C0AA1F6B
:1037D000BB1FA617B70710F0A61BB70B881F991FB2
:1037E0005A95A9F780959095BC01CD0108950F9346
:1037F0001F93CF93DF938230910510F482E090E025
:10380000E091000AF091010A30E020E0B0E0A0E091
:10381000309799F42115310509F44AC0281B390B5A
:1038200024303105D8F58A819B816115710589F1B4
:10383000FB0193838283FE0111C04081518102818B
:10384000138148175907E0F04817590799F4109762
:1038500061F012960C93129713961C933296CF0137
:10386000DF91CF911F910F9108950093000A10935B
:10387000010AF4CF2115310551F04217530738F0F2
:10388000A901DB019A01BD01DF01F801C1CFEF0100
:10389000F9CF9093010A8093000ACDCFFE01E20F89
:1038A000F31F819391932250310939832883D7CF15
:1038B0002091FE093091FF09232B41F4209107024A
:1038C000309108023093FF092093FE0920910502F0
:1038D000309106022115310541F42DB73EB74091D4
:1038E000090250910A02241B350BE091FE09F09168
:1038F000FF09E217F307A0F42E1B3F0B2817390727
:1039000078F0AC014E5F5F4F2417350748F04E0F3B
:103910005F1F5093FF094093FE09819391939FCFBE
:10392000F0E0E0E09CCFCF93DF930097E9F0FC015B
:10393000329713821282A091000AB091010AED0120
:1039400030E020E01097A1F420813181820F931F95
:103950002091FE093091FF092817390709F061C04D
:10396000F093FF09E093FE09DF91CF910895EA01FA
:10397000CE17DF07E8F54A815B819E0141155105AD
:10398000B1F7E901FB83EA8349915991C40FD51F2F
:10399000EC17FD0761F4808191810296840F951FD9
:1039A000E90199838883828193819B838A83F0E0F4
:1039B000E0E012968D919C9113970097B9F52D91A7
:1039C0003C911197CD010296820F931F2091FE0921
:1039D0003091FF092817390739F6309751F51092C1
:1039E000010A1092000AB093FF09A093FE09BCCF10
:1039F000D383C28340815181840F951FC817D90793
:103A000061F44E5F5F4F88819981480F591F518340
:103A100040838A819B81938382832115310509F03C
:103A2000B0CFF093010AE093000A9ECFFD01DC01C4
:103A3000C0CF13821282D7CF4F925F926F927F9244
:103A40008F929F92AF92BF92CF92DF92EF92FF92AE
:103A50000F931F93CF93DF938C01009799F4CB01C1
:103A6000DF91CF911F910F91FF90EF90DF90CF905A
:103A7000BF90AF909F908F907F906F905F904F908E
:103A80000C94F71BFC01E60FF71F9C012250310933
:103A9000E217F30708F4AEC0D901CD91DC9111977C
:103AA000C617D70720F1C530D10578F0CE010497AD
:103AB0008617970750F0C61BD70B2297C193D19357
:103AC0006D937C93CF010E94931CC801DF91CF912D
:103AD0001F910F91FF90EF90DF90CF90BF90AF902C
:103AE0009F908F907F906F905F904F9008955B01B3
:103AF000AC1ABD0A4C018C0E9D1EA091000AB0911B
:103B0000010A512C412CF12CE12C109731F58091B8
:103B1000FE099091FF098815990509F05CC04616C9
:103B2000570608F058C08091050290910602009750
:103B300041F48DB79EB74091090250910A02841B4F
:103B4000950BE817F90708F055C0F093FF09E093CB
:103B5000FE09F90171836083B8CF8D919C91119713
:103B600012966C90129713967C901397A815B9052E
:103B700059F56C0142E0C40ED11CCA14DB0420F1DB
:103B8000AC014A195B09DA011296159780F062823E
:103B9000738251834083D9016D937C93E114F104C6
:103BA00071F0D7011396FC93EE9312978ECF229665
:103BB0008C0F9D1FF90191838083F301EFCFF09368
:103BC000010AE093000A81CF4816590608F42C0137
:103BD0007D01D3019ACFCB010E94F71B7C01009796
:103BE00049F0AE01B8010E94FD1DC8010E94931C5E
:103BF00087016BCF10E000E068CFFB01DC0102C061
:103C000001900D9241505040D8F70895FB01DC011E
:103C100001900D920020E1F7089511E0C3E0D1E09A
:103C200004C0FE010E94DA1B2196C430D107C9F7F7
:043C3000F894FFCF36
:103C340001FFFFFFFF0000020A80000000400014A3
:103C44000054000C000B000D00161718191A1B1C49
:103C54001D1E1F202122232425262728292A2B2C18
:103C64002D2E2F303132333435000000009201659F
:103C740001890E57015E015B01580100000000F24A
:103C84000352037F033F04B0038E03A2030000002A
:103C940000AF0C5203BF0A510300000000BC0E52D7
:103CA40003890E510300000000630D460D360DC05C
:103CB4000CC90CE90C030D430045005000274D5A74
:103CC4004B2D2D544543482700446565766963654B
:103CD400205265616479000D0A002A003E3E2D2DB4
:0C3CE400206E6F20427574746F6E00003B
:00000001FF
