:100000000C94E5050C940F060C940F060C940F0647
:100010000C940F060C940F060C940F060C940F060C
:100020000C940F060C940F060C940F060C940F06FC
:100030000C940F060C940F060C940F060C940F06EC
:100040000C940F060C940F060C940F060C940F06DC
:100050000C940F060C940F060C940F060C942F2F83
:100060000C940F060C9403300C94D92F0C940F06AB
:100070000C940F060C940F060C940F060C940F06AC
:100080000C940F060C940F060C940F060C940F069C
:100090000C94A32F0C94792F0C940F060C940F2E14
:1000A0000C940F060C940F060C940F060C940F067C
:1000B0000C940F060C940F060C940F060C940F066C
:1000C0000C940F060C940F060C940F060C940F065C
:1000D0000C940F060C940F060C940F060C940F064C
:1000E0000C940F062F6D717474003C703E3C736D60
:1000F000616C6C3E636F6E66696775726174696F7F
:100100006E206F6E6C79202D207075626C6973683B
:10011000696E67206E6F74207965742077697265E7
:10012000642E3C2F736D616C6C3E3C2F703E003C26
:10013000627574746F6E20747970653D7375626D4D
:1001400069743E536176653C2F627574746F6E3EC0
:100150003C2F666F726D3E00273E3C2F6C616265DE
:100160006C3E003C6C6162656C3E757365723C6907
:100170006E707574206E616D653D75736572206D6E
:1001800061786C656E6774683D32332076616C759A
:10019000653D2700273E3C2F6C6162656C3E003C4C
:1001A0006C6162656C3E746F7069633C696E7075FA
:1001B00074206E616D653D746F706963206D617848
:1001C0006C656E6774683D33312076616C75653D92
:1001D00027003E3C2F6C6162656C3E003C6C6162A6
:1001E000656C3E706F72743C696E707574207479C2
:1001F00070653D6E756D626572206D696E3D312072
:100200006D61783D3635353335206E616D653D70F5
:100210006F72742076616C75653D00273E3C2F6CD3
:100220006162656C3E003C6C6162656C3E686F7338
:10023000743C696E707574206E616D653D686F7396
:1002400074206D61786C656E6774683D333120761B
:10025000616C75653D27003E20656E61626C65646A
:100260003C2F6C6162656C3E0020636865636B6562
:1002700064003C6C6162656C3E3C696E7075742014
:10028000747970653D636865636B626F78206E6139
:100290006D653D656E61626C65642076616C756547
:1002A0003D31003C68313E4D5154543C2F68313E45
:1002B0003C666F726D206D6574686F643D706F731E
:1002C0007420616374696F6E3D272F6D717474279C
:1002D0003E004D515454002F62757A7A6572003C8D
:1002E000703E3C736D616C6C3E6163746976652031
:1002F0006D6F6465206170706C69656420746F2037
:1003000062757A7A657220696D6D6564696174657C
:100310006C792E3C2F736D616C6C3E3C2F703E00EF
:100320003C627574746F6E20747970653D7375628C
:100330006D69743E536176653C2F627574746F6E9F
:100340003E3C2F666F726D3E003E3C2F6C616265D5
:100350006C3E3C2F6669656C647365743E00207664
:10036000616C75653D003C6C6162656C3E6F6666F4
:10037000286D73293C696E70757420747970653DC1
:100380006E756D626572206D696E3D3130206D61F4
:10039000783D35303030206E616D653D6F666600AA
:1003A0003E3C2F6C6162656C3E002076616C756529
:1003B0003D003C6C6162656C3E6F6E286D73293C3C
:1003C000696E70757420747970653D6E756D6265C7
:1003D00072206D696E3D3130206D61783D35303071
:1003E00030206E616D653D6F6E003C2F6C656765FA
:1003F0006E643E003C6669656C647365743E3C6C7B
:100400006567656E643E003C2F73656C6563743E82
:100410003C2F6C6162656C3E003C2F6F7074696F9D
:100420006E3E002073656C6563746564003C6F709C
:1004300074696F6E2076616C75653D003C68313E75
:1004400042757A7A65722053657474696E673C2FC1
:1004500068313E3C703E466C69702D666C6F702052
:100460007769746820757020746F2033206D6F6415
:100470006520707265736574732E3C2F703E3C6608
:100480006F726D206D6574686F643D706F7374205A
:10049000616374696F6E3D272F62757A7A65722782
:1004A0003E3C6C6162656C3E4D6F64653C73656C8F
:1004B000656374206E616D653D6D6F64653E0042DD
:1004C000757A7A65720020656E74726965733C2F67
:1004D000736D616C6C3E3C2F703E00202F20003C01
:1004E000703E3C736D616C6C3E003C2F7461626CBD
:1004F000653E003C2F74643E3C2F74723E003C2FDE
:1005000074643E3C74643E003C2F74643E3C7464EE
:100510003E003C2F74643E3C74643E003C2F746487
:100520003E3C74643E0068006D0073003C2F7464B0
:100530003E3C74643E003C74723E3C74643E003C3D
:100540007461626C653E3C74723E3C74683E233C50
:100550002F74683E3C74683E6167653C2F74683E4A
:100560003C74683E70696E3C2F74683E3C74683E13
:100570006B616D61723C2F74683E3C74683E6265CD
:10058000643C2F74683E3C74683E726F6C653C2F0F
:1005900074683E3C2F74723E003C703E286E6F20A3
:1005A0006576656E747320796574293C2F703E0002
:1005B0003C68313E4576656E74204C6F673C2F6811
:1005C000313E004576656E74204C6F67003C2F62AB
:1005D0006F64793E3C2F68746D6C3E003C2F736DE8
:1005E000616C6C3E3C2F703E0064697361626C65A7
:1005F0006400656E61626C6564007320266D6964D9
:10060000646F743B20697020003C703E3C736D61E8
:100610006C6C3E757074696D6520003C2F6F6C3E8C
:10062000003C2F7370616E3E3C2F6C693E003C6C49
:10063000693E3C6120687265663D272F6D71747458
:10064000273E4D5154543C2F613E203C7370616EE7
:1006500020636C6173733D70696C6C3E003C2F735A
:1006600070616E3E3C2F6C693E003C6C693E3C61A3
:1006700020687265663D272F62757A7A6572273E1B
:1006800042757A7A65722053657474696E673C2F7F
:10069000613E203C7370616E20636C6173733D70CA
:1006A000696C6C3E6D6F64653A20003C6C693E3C41
:1006B0006120687265663D272F6576656E742D6CC6
:1006C0006F67273E4576656E74204C6F673C2F61DF
:1006D0003E3C2F6C693E003C6F6C3E003C68313EF6
:1006E0004E757273652043616C6C202D204D656ED4
:1006F000753C2F68313E004E757273652043616C06
:100700006C004E6F7420466F756E64004261642009
:100710005265717565737400000021002400270084
:100720002A002D0030003300010100000401070100
:100730000A0100002200250028002B002E003100B5
:10074000340002010000050108010B010000200037
:100750002300260029002C002F0032000001000099
:100760000301060109010505050507050808080834
:10077000020202020A0A0808040404040101010139
:100780000101010103030303030303030407070734
:100790000C0C0C0C0C0C0C0C0202020206060606D9
:1007A000060606060B0B0B0B0B0B0B0B01021020A6
:1007B0002008081020401020408002010201080497
:1007C000020101020408102040808040201008042B
:1007D0000201800402018040201008040201080484
:1007E00002010102040810204080010204081020C8
:1007F000408000000A0B02090C0D0E0807030401DB
:1008000000000000000000000000000000000000E8
:1008100000000000000000000000000000001211B5
:1008200010000000000000000000000000000000B8
:1008300000000000000000003C6E61763E3C61203C
:10084000687265663D272F273E686F6D653C2F6196
:100850003E203C6120687265663D272F6576656E97
:10086000742D6C6F67273E6576656E742D6C6F67AF
:100870003C2F613E203C6120687265663D272F62F7
:10088000757A7A6572273E62757A7A65723C2F6155
:100890003E203C6120687265663D272F6D7174743F
:1008A000273E6D7174743C2F613E3C2F6E61763E25
:1008B0003C68723E003C2F7469746C653E3C7374F6
:1008C000796C653E626F64797B666F6E742D6661CC
:1008D0006D696C793A73616E732D73657269663BED
:1008E0006D617267696E3A31656D3B6D61782D7728
:1008F000696474683A35323070787D68317B666F30
:100900006E742D73697A653A312E32656D7D6E6134
:100910007620617B646973706C61793A696E6C6989
:100920006E652D626C6F636B3B6D617267696E2DD6
:1009300072696768743A31656D7D7461626C657B5C
:10094000626F726465722D636F6C6C617073653A6F
:10095000636F6C6C617073653B77696474683A317E
:100960003030257D74642C74687B626F72646572AC
:100970003A31707820736F6C696420236363633B42
:1009800070616464696E673A3470783B666F6E7448
:100990002D73697A653A2E39656D7D6C6162656C7F
:1009A0007B646973706C61793A626C6F636B3B6DE9
:1009B000617267696E2D746F703A2E36656D7D6950
:1009C0006E7075742C73656C6563747B666F6E7482
:1009D0002D73697A653A31656D3B70616464696E47
:1009E000673A3470783B77696474683A31303025FF
:1009F0003B626F782D73697A696E673A626F7264D1
:100A000065722D626F787D627574746F6E7B6D6137
:100A10007267696E2D746F703A31656D3B706164F9
:100A200064696E673A2E35656D2031656D3B666F82
:100A30006E742D73697A653A31656D7D2E70696CBF
:100A40006C7B646973706C61793A696E6C696E6510
:100A50002D626C6F636B3B70616464696E673A32E0
:100A60007078203870783B626F726465722D7261A5
:100A7000646975733A3870783B6261636B67726F53
:100A8000756E643A236565653B6D617267696E2DAD
:100A900072696768743A3470787D3C2F7374796C2E
:100AA000653E3C2F686561643E3C626F64793E0040
:100AB0003C21646F63747970652068746D6C3E3C92
:100AC00068746D6C3E3C686561643E3C6D65746144
:100AD000206E616D653D76696577706F7274206315
:100AE0006F6E74656E743D2777696474683D6465E4
:100AF000766963652D77696474682C696E697469B9
:100B0000616C2D7363616C653D31273E3C74697483
:100B10006C653E00436F6E6E656374696F6E3A205C
:100B2000636C6F736500436F6E74656E742D5479DA
:100B300070653A20746578742F68746D6C3B20631F
:100B40006861727365743D7574662D38004854543D
:100B5000502F312E3120323030204F4B00436F6EFA
:100B60006E656374696F6E3A20636C6F7365004CD9
:100B70006F636174696F6E3A2000485454502F318E
:100B80002E312033303320536565204F74686572F1
:100B900000436F6E6E656374696F6E3A20636C6FAD
:100BA000736500436F6E74656E742D547970653A89
:100BB00020746578742F706C61696E0048545450CD
:100BC0002F312E3120003930EA4011241FBECFEFE3
:100BD000D1E2DEBFCDBF14E0A0E0B2E0EEE1F0E98B
:100BE00000E00BBF02C007900D92AE31B107D9F7FC
:100BF0002EE0AEE1B4E001C01D92A73DB207E1F7DF
:100C000015E0C4EED5E004C02197FE010E94A04289
:100C1000C33ED107C9F70E94D2310C9402480C940C
:100C2000000020E3FC0120833296862F82958F708E
:100C30006F706A3030F4605D6293682F8111F5CF78
:100C40000895695CF9CFFC01818D928D0895089516
:100C50002091FA06260F3327331F21323105ECF499
:100C600020911E07FC0190E080E0243069F082E0D2
:100C70000895A091FA062191AC014652594FA40F54
:100C8000B52FB11D2C930196861798F38091FA0623
:100C9000680F6093FA0680E0089581E008958FEF71
:100CA0009FEF08958FEF9FEF08958091D30690E016
:100CB0009195819591090895CF92DF92EF92FF92DD
:100CC0000F931F93CF93DF937C01CB018A01209177
:100CD000D206222389F0EB016B01C40ED51ECC1580
:100CE000DD0569F06991D701ED91FC910190F081EA
:100CF000E02DC7010995F3CF642F0E942806C80193
:100D0000DF91CF911F910F91FF90EF90DF90CF90E7
:100D10000895CF93DF931F92CDB7DEB769832091FB
:100D2000D2062223F9F02091D106203258F021E09A
:100D300030E0FC013383228390E080E00F90DF916C
:100D4000CF9108958091D006E82FF0E0E055F94F5B
:100D5000998190838F5F8093D0068093D10681E044
:100D600090E0ECCF61E0CE0101960E942806F7CF1B
:100D70008150823108F058C0E82FF0E0EE53F94F6F
:100D80000C94A042E206E606D406DA06DE06140754
:100D9000E906EF06F306F906FD06010707070B074C
:100DA00014070F0715071907809180008F7780932C
:100DB00080000895809180008F7DF9CF8091800020
:100DC000877FF5CF84B58F7784BD089584B58F7DF7
:100DD000FBCF8091B0008F778093B0000895809111
:100DE000B0008F7DF9CF809190008F778093900035
:100DF0000895809190008F7DF9CF80919000877F3A
:100E0000F5CF8091A0008F778093A0000895809106
:100E1000A0008F7DF9CF8091A000877FF5CF8091D2
:100E200020018F77809320010895809120018F7D8C
:100E3000F9CF80912001877FF5CFCF93DF93282FC3
:100E400030E0F901EE50F84F8491F901E455F84F84
:100E5000D491F901EA59F84FC491CC23A1F0811142
:100E60000E94B806EC2FF0E0EE0FFF1FE45BF84F96
:100E7000A591B491EC91ED2381E090E009F480E03C
:100E8000DF91CF91089580E090E0FACF1F93CF9348
:100E9000DF93282F30E0F901EE50F84F8491F901EB
:100EA000E455F84FD491F901EA59F84FC491CC2395
:100EB000A9F0162F81110E94B806EC2FF0E0EE0F7A
:100EC000FF1FEE5CF84FA591B4918FB7F894EC91A9
:100ED000111108C0D095DE23DC938FBFDF91CF9135
:100EE0001F910895DE2BF8CF1F93CF93DF93C1E0BE
:100EF000C093D906882399F1D091B8001091BA0017
:100F00008091BC008A7B8093BC0060E084E10E94F9
:100F1000460760E085E10E94460710921E07C093D5
:100F2000200710921F0761E084E10E94460761E0FC
:100F300085E10E9446078091B9008E7F8093B900B9
:100F40008091B9008D7F8093B90088E48093B800C8
:100F500085E48093BC001093BA00D093B800DF9171
:100F6000CF911F910895CF93DF9390E0FC01E4555A
:100F7000F84F24918A59984FFC0184918823D1F02D
:100F800090E0880F991FFC01E85EF84FA591B4919D
:100F9000FC01EE5CF84FC591D49161110EC09FB772
:100FA000F8948C91E22FE0958E238C932881E22394
:100FB000E8839FBFDF91CF9108958FB7F894EC91AC
:100FC000E22BEC938FBFF6CF3FB7F8948091AC063D
:100FD0009091AD06A091AE06B091AF0626B5A89B44
:100FE00005C02F3F19F00196A11DB11D3FBFBA2FBB
:100FF000A92F982F8827BC01CD01620F711D811D7B
:10100000911D42E0660F771F881F991F4A95D1F7FF
:1010100008958F929F92AF92BF92CF92DF92EF92FC
:10102000FF926B017C010E94E4074B015C01C1143B
:10103000D104E104F104B9F00E94E40768197909C8
:101040008A099B09683E73408105910580F321E080
:10105000C21AD108E108F10888EE880E83E0981ED4
:10106000A11CB11CE4CFFF90EF90DF90CF90BF9018
:10107000AF909F908F9008952FB7F8946091A80635
:101080007091A9068091AA069091AB062FBF089592
:101090000895DC01ED91FC910190F081E02D09941F
:1010A000AF92BF92CF92DF92EF92FF920F931F9376
:1010B000CF93DF936C017B018B01040F151FEB01B4
:1010C0005E01AE18BF08C017D10759F06991D6016B
:1010D000ED91FC910190F081E02DC6010995892BDD
:1010E00079F7C501DF91CF911F910F91FF90EF909C
:1010F000DF90CF90BF90AF900895FC01538D448D49
:10110000252F30E0842F90E0821B930B541710F0B2
:10111000CF96089501970895FC01918D828D9817BF
:1011200061F0A28DAE0FBF2FB11D5D968C91928D97
:101130009F5F9F73928F90E008958FEF9FEF0895C8
:10114000FC01918D828D981731F0828DE80FF11D91
:10115000858D90E008958FEF9FEF0895FC01918DAC
:10116000228D892F90E0805C9F4F821B91098F73A5
:101170009927089581E09AE00E94AE0821E0892B2A
:1011800009F420E0822F08958EE99AE00E94AE08CB
:1011900021E0892B09F420E0822F0895FC01A48D21
:1011A000A80FB92FB11DA35ABF4F2C91848D90E089
:1011B00001968F739927848FA689B7892C93A0896C
:1011C000B1898C91837080648C93938D848D9813F6
:1011D00006C00288F389E02D80818F7D8083089589
:1011E000EF92FF920F931F93CF93DF93EC0181E077
:1011F000888F9B8D8C8D98131AC0E889F98980811E
:1012000085FF15C09FB7F894EE89FF896083E88950
:10121000F98980818370806480839FBF81E090E042
:10122000DF91CF911F910F91FF90EF900895F62ECF
:101230000B8D10E00F5F1F4F0F731127E02E8C8D69
:101240008E110CC00FB607FCFACFE889F9898081AE
:1012500085FFF5CFCE010E94CE08F1CFEB8DEC0FCC
:10126000FD2FF11DE35AFF4FF0829FB7F8940B8FCB
:10127000EA89FB8980818062CFCFCF93DF93EC0135
:10128000888D8823B9F0AA89BB89E889F9898C916E
:1012900085FD03C0808186FD0DC00FB607FCF7CF2A
:1012A0008C9185FFF2CF808185FFEDCFCE010E942A
:1012B000CE08E9CFDF91CF91089580E090E0892BAF
:1012C00029F00E94C40881110E94000080E090E093
:1012D000892B29F00E94BA0881110E94000080E049
:1012E00090E0892B49F080E090E0892B29F00E9462
:1012F000000081110E94000080E090E0892B49F0FD
:1013000080E090E0892B29F00E94000081110C946C
:1013100000000895FC0120812EBD9B012150310960
:1013200041F051810DB407FEFDCF4EB55EBD419336
:10133000F5CF61507109860F971F0DB407FEFDCFE1
:101340002EB5FC0120830895E0912604F091270436
:10135000808190912504892B80830895E091260453
:10136000F0912704908180912504809589238083C2
:10137000089590E020918C07233339F40C96982F30
:10138000990F990F990F80E008954896F8CFCF9361
:10139000DF931F92CDB7DEB76983DC01ED91FC913D
:1013A0000280F381E02D41E050E0BE016F5F7F4F8E
:1013B00009950F90DF91CF910895CF93DF931F92FE
:1013C000CDB7DEB76983DC01ED91FC910280F3813A
:1013D000E02D41E050E0BE016F5F7F4F09950F9017
:1013E000DF91CF910895FC019485FB0184859813CA
:1013F00003C081E0983008F080E00895CF93DF9338
:101400001F92CDB7DEB76983DC01ED91FC910280BC
:10141000F381E02D41E050E0BE016F5F7F4F099501
:101420000F90DF91CF910895EF92FF920F931F934A
:10143000CF93DF938C017B01D0E0C0E0F701EC0F8C
:10144000FD1F6491662339F0C8010E94FE09892BB3
:1014500011F02196F3CFCE01DF91CF911F910F9123
:10146000FF90EF900895FC01768765870895DC0171
:10147000ED91FC9102A0F3A1E02D099591E089275F
:101480000895862F089581E08627089521E0FC01C4
:101490008485883008F020E0822F0895089508950B
:1014A00061E0FC0184810E94460780911F04811144
:1014B00010921F0408958EBD00000DB407FEFDCFED
:1014C0008EB50895AF92BF92CF92DF92EF92FF92C6
:1014D0000F931F93CF93DF93CDB7DEB728970FB647
:1014E000F894DEBF0FBECDBF8C017B016A018091F5
:1014F0008C078333E1F45801A40EB51EA016B10683
:1015000009F46FC00E94AE0980EF0E945B0A812F30
:101510000E945B0A802F0E945B0A0F5F1F4FF7013A
:1015200081917F010E945B0A0E94A409E7CF5B01C1
:10153000A40EB51E8433C1F40E94AE0919830A8338
:101540008D2D80688B83CC8264E070E0CE010196A3
:101550000E948A09AE14BF0409F441C0F7018191C9
:101560007F010E945B0AF6CF0E94AE090F3F110572
:1015700009F028F419820A8384E08B830CC017FDDC
:1015800017C019820A8333E0169507953A95E1F75B
:10159000007E0C600B8386E0C816D104A0F5F7012D
:1015A000DE011496EA15FB0599F081918D93FACF2F
:1015B000C80126E0969587952A95E1F7807E1983E4
:1015C0000A830115104C10F48461D7CF8C61D5CFFC
:1015D000B6016D5F7F4FCE0101960E948A090E947D
:1015E000A409C60128960FB6F894DEBF0FBECDBF82
:1015F000DF91CF911F910F91FF90EF90DF90CF90EF
:10160000BF90AF90089563E070E0CE0101960E9414
:101610008A09F70181917F010E945B0AAE14BF0421
:10162000C1F7DDCFCF93DF931F92CDB7DEB78983AC
:1016300041E050E0BE016F5F7F4F90E080E00E948C
:10164000620A0F90DF91CF910895DA01E0912904A9
:10165000F0E0FE2FEE27E60FF71F90E0982F882787
:10166000A901BD018E0F9F1F0C94620ACF93DF93D7
:1016700000D0CDB7DEB779836A8322E030E0AE01D7
:101680004F5F5F4F60E170E00E94250B0F900F905D
:10169000DF91CF910895CF93DF9300D0CDB7DEB720
:1016A00079836A8322E030E0AE014F5F5F4F64E0F0
:1016B00070E00E94250B0F900F90DF91CF9108955D
:1016C000CF93DF931F92CDB7DEB72091290430E08E
:1016D000322F2227260F371F90E0982F8827498323
:1016E00041E050E0BE016F5F7F4F820F931F0E9469
:1016F000620A0F90DF91CF91089544E050E0BC0161
:101700008FE090E00C94620A44E050E0BC0185E078
:1017100090E00C94620A44E050E0BC0181E090E06B
:101720000C94620A8FEF0C945B0A0F931F93CF9374
:10173000DF93EC010E943C088B010E94920B8F3FCB
:1017400069F00E943C08601B710B6C177D07A8F3C1
:1017500080E0DF91CF911F910F91089581E0F9CF43
:101760008CBD9DBD0895FF920F931F93CF93DF9380
:10177000EB01FC01178A168A2A81211109C02B81ED
:10178000211106C02C81211103C02D81222301F1DA
:1017900041155105E9F08A01FC01F08C80E591E0EA
:1017A0000E94B00BAE014E5F5F4F24E030E06CE072
:1017B00070E08F2D0E94250BB8018F2D0E94360BF3
:1017C00081E090E0DF91CF911F910F91FF900895FC
:1017D00080E0F7CFCF93DF93EC0180911F0481115C
:1017E00009C081E080931F048091710B9091720B6E
:1017F0000E94B00B60E08C81DF91CF910C94460782
:10180000CF92DF92EF92FF920F931F93CF93DF93CC
:10181000EC01162F69017A018E81882389F08F816E
:1018200098859C012F5F3F4F38872F8382309240ED
:1018300018F40E94920BF3CFCE010E94500A1E8230
:10184000CE010E94EA0B8CE291E00E94950B812F61
:1018500080640E945B0A08E110E0D701C601002EF7
:1018600004C0B695A795979587950A94D2F70E94DC
:101870005B0A08501109083F8FEF180771F78FEFC7
:101880000E945B0A10E00E94920B8A8787FF04C0C7
:101890001F3F11F01F5FF7CFDF91CF911F910F9185
:1018A000FF90EF90DF90CF900895AF92BF92CF92CC
:1018B000DF92EF92FF920F931F93CF93DF93EC0190
:1018C0006901C801820F931F8130924050F58E81CB
:1018D000882379F088819981AA81BB818417950733
:1018E000A607B70731F48F819885C816D90608F086
:1018F00042C0488359836A837B838B85833039F068
:1019000089E0440F551F661F771F8A95D1F79A010A
:10191000AB0161E1CE010E94000C882389F083E0D5
:101920008D83CE010E94500A80E0DF91CF911F91FC
:101930000F91FF90EF90DF90CF90BF90AF90089500
:101940000E943C085B010E94920B8A878F3F69F4DA
:101950000E943C086A197B096D327140A0F38FE048
:101960008D83CE010E94500ADCCF8E3F89F4188609
:101970001F8281E08E838F8198858C159D0550F4A0
:101980000E94920B8F819885019698878F83F3CF61
:101990008DE0E6CF6701E00EF11E0E94920BF6018A
:1019A00081936F01EE15FF05C1F78F819885080FB0
:1019B000191F18870F838985882319F00115124094
:1019C000A0F08E81882389F08F8198859C012F5FFC
:1019D0003F4F38872F838230924018F40E94920B39
:1019E000F3CFCE010E94500A1E8281E09ECFCF929B
:1019F000DF92EF92FF920F93CF93DF93EC01690197
:101A000082E1411551056105710599F08B8583309F
:101A100039F089E0440F551F661F771F8A95D1F76B
:101A20009A01AB0168E1CE010E94000C882319F0F5
:101A300084E08D832DC08EEF0E945B0A76018EEFCD
:101A4000D81AF70181917F010E945B0AEC14FD0412
:101A5000C1F78FEF0E945B0A8FEF0E945B0A0E9422
:101A6000920B8A878F71853071F4011116C0CE01F7
:101A70000E94500A81E0DF91CF910F91FF90EF908B
:101A8000DF90CF90089581E18D83CE010E94500AAE
:101A9000CE010E94500A80E0EECF88E592E00E94DD
:101AA000950B811102C085E1C4CF20E030E0A9018F
:101AB0006DE0CE010E94000C882311F084E1B9CFC3
:101AC0000E94920B8111FACFD2CF0F934091210443
:101AD0005091220460912304709124044115510512
:101AE0006105710589F0082F2DE837E090E080E06E
:101AF0000E94F70C882349F01092210410922204CE
:101B0000109223041092240481E00F9108950F9302
:101B1000CF93C82F80912004811105C0C1E08C2F84
:101B2000CF910F91089540914202509143026091EC
:101B30004402709145020C2F2DE837E090E080E0E0
:101B40000E94F70C811102C0C0E0E9CFCC2331F331
:101B500081E00E94650D8823B9F310922004DFCF45
:101B60008F929F92AF92BF92EF92FF920F931F932B
:101B7000CF934B015C01C42F8091420290914302AC
:101B8000A0914402B091450288159905AA05BB05AC
:101B900041F181E00E94870D81110BC080E0CF915F
:101BA0001F910F91FF90EF90BF90AF909F908F90FB
:101BB00008958DE8E82E87E0F82E00E012E030E08E
:101BC00020E0B501A40190E080E00E94550C88233C
:101BD00029F38092420290924302A0924402B09272
:101BE0004502409120044C2B4093200481E0D7CF44
:101BF0004F925F926F927F928F929F92AF92BF921D
:101C0000CF92DF92EF92FF920F931F93CF93DF93C8
:101C1000EC01423051056105710590F480E0DF91DF
:101C2000CF911F910F91FF90EF90DF90CF90BF90D9
:101C3000AF909F908F907F906F905F904F9008959E
:101C400089859A85AB85BC850196A11DB11D841738
:101C50009507A607B70710F3CB88DC88ED88FE88C8
:101C60008F89803109F042C0BB27A72F962F852F7F
:101C7000480159012A013B01C80ED91EEA1EFB1E6C
:101C80008091420290914302A0914402B09145029A
:101C9000C816D906EA06FB0699F58F898031C1F589
:101CA000B301A201552766277727440F551F4357D5
:101CB000584FFA0191828082809120048160809344
:101CC00020048A89823080F08D819E81AF81B88521
:101CD0008C0D9D1DAE1DBF1D809321049093220489
:101CE000A0932304B093240481E099CFDB01CA01BF
:101CF000E7E0B695A79597958795EA95D1F7B8CF80
:101D000040E0C701B6010E94B00D8111C6CF86CF59
:101D1000B301A2014F77552766277727440F551F38
:101D2000440F551F4357584FFA0180829182A28277
:101D3000B382C2CF8F929F92AF92BF92CF92DF9227
:101D4000EF92FF920F931F93CF93DF93FC01818556
:101D50009285A385B4850196A11DB11D84179507B1
:101D6000A607B70770F480E0DF91CF911F910F9124
:101D7000FF90EF90DF90CF90BF90AF909F908F90AB
:101D8000089583889488A588B6888789803189F5E5
:101D9000BB27A72F962F852FE9016A017B018F01B1
:101DA000BC01CD01680D791D8A1D9B1D80904202EA
:101DB00090904302A0904402B09045028616970688
:101DC000A806B90601F5F8018789803111F5DD24EF
:101DD000EE24FF24F601EE0FFF1FE357F84F80813A
:101DE0009181B0E0A0E088839983AA83BB8381E0DE
:101DF000BBCFDB01CA01C7E0B695A795979587953C
:101E0000CA95D1F7C9CF40E00E94B00D8111DBCF58
:101E1000AACFE894C7F8DD24EE24FF24F601EE0FE4
:101E2000FF1FEE0FFF1FE357F84F80819181A281C2
:101E3000B381BF70D8CF2F923F924F925F926F9233
:101E40007F928F929F92AF92BF92CF92DF92EF924A
:101E5000FF920F931F93CF93DF93EC014B018D8182
:101E6000811115C08FEF9FEFDF91CF911F910F91DF
:101E7000FF90EF90DF90CF90BF90AF909F908F90AA
:101E80007F906F905F904F903F902F9008958C813E
:101E900080FFE8CF4B895C896D897E898A859B8527
:101EA000AC85BD85412C481759076A077B0711F09F
:101EB00044244394512C52011E0126E0220E311C71
:101EC000A114B10409F4B1C04A855B856C857D8598
:101ED0006A0181E0D8228B8D9C8D8A019B01E9E00B
:101EE0003695279517950795EA95D1F7ED81E2305C
:101EF000E1F5FC01628D738D848D958D600F711FEE
:101F0000821F931F612C22E0722E6C187D08A6148C
:101F1000B70408F435012C8126FD04C06114F2E0F9
:101F20007F0671F400914202109143022091440215
:101F300030914502061717072807390709F053C0E3
:101F400040E00E94B00D882309F48CCFC60183576E
:101F5000984FD4019C01260D371DFC012E173F0719
:101F600009F45EC041914D93F9CFFC0174807A94DD
:101F70007022C114D10471F471100CC0452B462B92
:101F8000472B39F58F89988DA98DBA8D8E839F83C4
:101F9000A887B987EB8DFC8D6E817F8188859985B7
:101FA0006250710981099109258504C0660F771F68
:101FB000881F991F2A95D2F70685178520893189B0
:101FC000600F711F821F931F670D711D811D911D71
:101FD00099CF4E815F816885798591010E949A0E23
:101FE0008111D8CF3FCF740183019601AB01BC01B1
:101FF00090E080E00E94550C882309F433CF860CD2
:10200000971C8A859B85AC85BD85860D971DA11D76
:10201000B11D8A879B87AC87BD87A618B70850CFAC
:10202000281B390B820E931EECCFC2011DCF8F925D
:102030009F92AF92BF92CF92DF92EF92FF920F9357
:102040001F93CF93DF93EC018D8181110EC080E04F
:10205000DF91CF911F910F91FF90EF90DF90CF9084
:10206000BF90AF909F908F9008950B891C892D8908
:102070003E89041715072607370748F34A015B0115
:10208000823031F48A869B86AC86BD8681E0E0CFC3
:1020900081149104A104B10449F41E821F821886A0
:1020A00019861A861B861C861D86F0CF0A851B851D
:1020B0002C853D85EB8DFC8D858590E00996B901D9
:1020C000A8014150510961097109082E04C0769593
:1020D0006795579547950A94D2F775016401E1E039
:1020E000CE1AD108E108F10804C0F694E794D79419
:1020F000C7948A95D2F7C416D506E606F70620F0EF
:10210000012B022B032B11F58F89988DA98DBA8D88
:102110008E839F83A887B9878E010A5F1F4FC114E2
:10212000D104E104F10409F4ADCF4E815F816885EB
:10213000798598018B8D9C8D0E949A0E91E0C91A29
:10214000D108E108F1088111EACF81CFC41AD50A7C
:10215000E60AF70AE1CF3F924F925F926F927F9229
:102160008F929F92AF92BF92CF92DF92EF92FF92A7
:102170000F931F93CF93DF93CDB7DEB72C970FB696
:10218000F894DEBF0FBECDBF5C01DC015B968D9085
:102190009C905C9716964D905D906D907C901997F1
:1021A000411451046104710409F468C0BFEF4B1A73
:1021B0005B0A6B0A7B0A312CF40181859285A38529
:1021C000B4859C01AD012F5F3F4F4F4F5F4F298773
:1021D0003A874B875C87730162011D821E821F82D2
:1021E0001886F40181859285A385B4852D813E8171
:1021F0004F815885281739074A075B0708F056C0F2
:1022000089859A85AB85BC858C159D05AE05BF0576
:1022100050F482E0C82ED12CE12CF12C92E0492E12
:10222000512C612C712C9E012F5F3F4FB701A601ED
:10223000C4010E949A0E8823C9F189819A81AB81D9
:10224000BC81892B8A2B8B2B09F1260137019FEF4B
:10225000491A590A690A790A2D813E814F815885A8
:102260002F5F3F4F4F4F5F4F2D833E834F835887E4
:102270003FEFC31AD30AE30AF30AB3CFF401408055
:102280005180628073803324339496CFC414D50474
:10229000E604F70409F70FEF1FEF2FEF3FE0B70158
:1022A000A601C4010E94F80D811119C080E02C968E
:1022B0000FB6F894DEBF0FBECDBFDF91CF911F9157
:1022C0000F91FF90EF90DF90CF90BF90AF909F90D5
:1022D0008F907F906F905F904F903F900895D501C1
:1022E00016964D915D916D917C911997411551050F
:1022F0006105710539F097018601C4010E94F80D4E
:102300008823A1F2D5011696CD92DD92ED92FC9232
:102310001997332051F0D701C6010196A11DB11DB7
:10232000F40180839183A283B383F5018789908D23
:10233000A18DB28D892B8A2B8B2B39F48481C78A8E
:10234000D08EE18EF28E80688483F5018481806274
:10235000848381E0ACCF1F93CF93DF93FC01258171
:102360002223D1F1162FEC01848187FF2AC06685D4
:1023700077858089918941E00E94B00D882361F1C1
:10238000EA8980E2E89FF0011124E357F84F309783
:1023900019F18D81823040F48B899C89AD89BE8989
:1023A000848F958FA68FB78F8F89988D938F828F0B
:1023B0008F89988DA98DBA8DB58BA48B8C818F77E1
:1023C0008C83111103C08C818F7E8C83812FDF91D0
:1023D000CF911F910C94870D80E0DF91CF911F91D9
:1023E00008951F93CF93DF93EC018D81813031F0FD
:1023F00090E080E0DF91CF911F9108958C8181FF63
:10240000F7CF82FD18C090E080E00E94EA0B0E94A6
:10241000920B182F90E080E00E94500A1F3F41F776
:102420008C8185FF1BC060E0CE010E94AB118C81C6
:102430008F7D8C83DDCF4B895C896D897E898A8510
:102440009B85AC85BD8584179507A607B707D9F28C
:10245000CE010E9417108111D6CFCACF409121041E
:10246000509122046091230470912404452B462B43
:10247000472B21F080E00E94650DBACF80618C83EC
:102480002A853B85317080E092E0821B930BB2CFAE
:102490002F923F924F925F926F927F928F929F9274
:1024A000AF92BF92CF92DF92EF92FF920F931F9362
:1024B000CF93DF9300D000D01F92CDB7DEB77C0161
:1024C0005B01342E5D83DC0115968C91159781306C
:1024D00009F0CCC014962C9021FEC8C022FCB2C0DA
:1024E000C32CDD8022947FE027222094B22DB1708E
:1024F0002B2ED7011A964D915D916D917C911D9770
:10250000C114D10409F426C15B968D919C915C970E
:10251000FC0174807A948A019B0169E036952795C5
:10252000179507956A95D1F770228A01117071107D
:1025300020C001151105E9F416964D915D916D913C
:102540007C911997411551056105710509F097C0F6
:1025500057968D919D910D90BC91A02D0097A1054E
:10256000B10509F0AEC0C7010E94AB10882309F481
:102570007DC080E092E0801B910B46018C159D058B
:1025800008F44C01D7015B964D915C915C971696CF
:102590008D919D910D90BC91A02D0297A109B1093B
:1025A000FA01258504C0880F991FAA1FBB1F2A9511
:1025B000D2F74685578560897189840F951FA61FBC
:1025C000B71F9C01AD01270D311D411D511D290172
:1025D0003A01811432E0930609F079C080914202F9
:1025E00090914302A0914402B09145028415950553
:1025F000A605B70559F48FEF9FEFDC0180934202E7
:1026000090934302A0934402B0934502022D95019A
:10261000B301A20190E080E00E94F70C882331F121
:102620009EEFB91AC818D908F70182859385A48549
:10263000B585880D991DA11DB11D82879387A4873B
:10264000B58757CFF7014389548965897689828593
:102650009385A485B585481759076A077B0709F450
:102660003FCFC7010E94171081113ACF81E090E05F
:10267000D70113969C938E93129780E007C09E011A
:102680002F5F3F4F0E949A0E811102C090E079C0E7
:1026900089819A81AB81BC81F701238D348DF90149
:1026A000278948EF5FEF60E070E0203121F048EFCC
:1026B0005FEF6FEF7FE084179507A607B70708F075
:1026C00052CFF70186839783A087B18752CF011538
:1026D000110599F5D7011A964D915D916D917C91F7
:1026E0001D9753968D919D910D90BC91A02D4817EB
:1026F00059076A077B0708F181E00E94870D88234C
:1027000009F4B4CF409242025092430260924402D4
:102710007092450280912004816080932004C8015A
:102720008357984FD5019C01280D391DFC012E17A8
:102730003F0759F04D914193FACF41E0C301B201F7
:102740000E94B00D8111EBCF91CF281B390BA20E47
:10275000B31E68CFF70183899489A589B689841748
:102760009507A607B70738F48481438B548B658B94
:10277000768B80688483F701848183FD1AC0832D62
:102780009D810F900F900F900F900F90DF91CF9140
:102790001F910F91FF90EF90DF90CF90BF90AF907F
:1027A0009F908F907F906F905F904F903F902F9071
:1027B000089561E0C7010E94AB11882309F456CF48
:1027C000DECFCF93DF931F92CDB7DEB7698341E0B1
:1027D00050E0BE016F5F7F4F0E9448120F90DF9163
:1027E000CF910895FC01818D928D009719F061E0E1
:1027F0000C94AB110895DC015996ED91FC91309742
:10280000B9F083899489A589B68942855385648501
:102810007585841B950BA60BB70B811520E89207D5
:10282000A105B10538F08FEF9FE7A0E0B0E0089573
:1028300090E080E00895CF93DF931F92CDB7DEB78D
:10284000FC01818D928D009769F0BE016F5F7F4F13
:102850000E941B0F019731F4898190E00F90DF9166
:10286000CF9108958FEF9FEFF9CFEF92FF920F93E3
:102870001F93CF93DF931F92CDB7DEB7FC01818DFD
:10288000928D10E000E00097D1F07F01BE016F5FF4
:102890007F4F0E941B0F0FEF1FEF019781F40981FB
:1028A00010E0F701818D928DFC014285538564858E
:1028B000758541505109610971090E941710C801BD
:1028C0000F90DF91CF911F910F91FF90EF9008959E
:1028D000DC0159968D919C91009739F0DC01ED91C6
:1028E000FC910480F581E02D099490E080E008954A
:1028F000CF93DF93EC01E98DFA8D309749F481E0B5
:1029000090E09B838A8390E080E0DF91CF910895EF
:1029100013821282898D9A8D0E944812E98DFA8D58
:1029200022813381232B59F7F0CFCF93DF931F926E
:10293000CDB7DEB76983DC01ED91FC910280F381B4
:10294000E02D41E050E0BE016F5F7F4F09950F9091
:10295000DF91CF910895CF92DF92EF92FF920F9384
:102960001F93CF93DF93FC01C48121E02093D20613
:10297000C0931E041092D0061092D1068485682B55
:1029800085EF99E00E948906D091D106D13208F0F6
:1029900092C00E94E4076B017C0180911E078111A7
:1029A00065C082E080931E0781E0809320078FEF4F
:1029B00080931D0710924207D0934107A0EBB6E029
:1029C000E1E2F7E080E0D81385C0109243078091E0
:1029D0004307CC0FC82BC093430780911F0781305A
:1029E00009F07CC010921F070E94E4076B017C0174
:1029F000809143078093BB008091D5069091D606C5
:102A0000A091D706B091D806892B8A2B8B2B99F0F1
:102A10000E94E4070091D5061091D6062091D706B2
:102A20003091D8066C197D098E099F090617170782
:102A300028073907E0F18091BC0083FDD9CF85ECF0
:102A40008093BC000E94E4076B017C0180911E070B
:102A5000823009F445C080911D078F3F61F180915C
:102A60001D07803241F180911D0725C08091D50658
:102A70009091D606A091D706B091D806892B8A2BC3
:102A80008B2B09F48ACF0E94E4070091D5061091A0
:102A9000D6062091D7063091D8066C197D098E098B
:102AA0009F09061717072807390708F076CF809186
:102AB000D4060E9474071092D0061092D10610928C
:102AC000D206DF91CF911F910F91FF90EF90DF9091
:102AD000CF9008959D9191938F5F75CF85EEB0CF84
:102AE0008091D5069091D606A091D706B091D806D0
:102AF000892B8A2B8B2B09F4A9CF0E94E407009124
:102B0000D5061091D6062091D7063091D8066C19BB
:102B10007D098E099F09061717072807390708F04E
:102B200095CFC5CF28E0FC01248760E00C94AB145E
:102B30002091DE0B30E047E454E090E080E0821723
:102B4000930790F44D5E5F4FFA0134976081718175
:102B50006230710539F460E08091CA0B0E9446072B
:102B600081E008950196EBCF60E08091C80B0E9450
:102B7000460782E0089590ED980F9A3028F4082EC9
:102B8000000C990BC09708959FE9980F963030F488
:102B9000082E000C990B8755910908959FEB980F0B
:102BA000963028F4082E000C990BC79708958FEFE4
:102BB0009FEF0895FC01848595850895FC01848923
:102BC0009589089523E533E0FC0131832083FB01DF
:102BD0004089518962897389FC01428353836483EC
:102BE00075830895DC01ED91FC91048CF58DE02D49
:102BF000099490E080E00895AF92BF92CF92DF9267
:102C0000EF92FF920F931F93CF93DF9300D000D0EA
:102C1000CDB7DEB78C016B017A0180918C078333CD
:102C2000E9F45B016801C40ED51EC016D106A9F1F6
:102C30000E94AE098FE00E945B0A812F0E945B0A0E
:102C4000802F0E945B0A0F5F1F4F80E00E945B0A8B
:102C5000F50181935F010E94A409E7CF843369F5F0
:102C60000E94AE0919830A838F2D8F778B83EC82A4
:102C700064E070E0CE0101960E948A09A70170E02D
:102C800060E0C6010E94ED44E114F10421F0B701B7
:102C9000C6010E948A090E94A409C7010F900F90E3
:102CA0000F900F90DF91CF911F910F91FF90EF90B8
:102CB000DF90CF90BF90AF9008950E94AE090F3F74
:102CC000110509F030F419820A831B8263E070E079
:102CD000D1CF17FD0BC019820A8333E016950795F3
:102CE0003A95E1F7007E08600B83F0CFC80126E03B
:102CF000969587952A95E1F7807E19830A830115B9
:102D0000104C18F480618B83E1CF8861FCCF1F9356
:102D1000CF93DF931F92CDB7DEB7182F80E591E0F8
:102D20000E94B00B812F0E94B90927E0129FF00189
:102D30001124EC5BF84F22813381377041E050E081
:102D4000BE016F5F7F4F820F931F0E94FC15898128
:102D50000F90DF91CF911F910895FC01808D8830F5
:102D600040F4218D328D232B21F00E94871690E0B4
:102D700008958FEF9FEF0895CF93DF93FC01248593
:102D8000283028F08FEF9FEFDF91CF910895EC016D
:102D90000190F081E02D0084F185E02D0995892BCB
:102DA00089F38C850E94871690E0EECFCF93DF9356
:102DB0001F92CDB7DEB741E050E0BE016F5F7F4F9D
:102DC0000E94FC1589810F90DF91CF91089590E0CA
:102DD00080E00C94D616CF93DF93C4E1D0E00E943C
:102DE000E716882361F061E070E080E090E00E94E7
:102DF00009082197A1F780E0DF91CF91089581E044
:102E0000FBCF1F93CF93DF9300D0CDB7DEB7809178
:102E10002A04811101C160E372E080E090E00E9429
:102E200009081FB7F89480912804811127C0EBE9A5
:102E3000F7E08491E1EEF7E09491E82FF0E0EE0FF7
:102E4000FF1FE85EF84FA591B491EC91E92321F4BE
:102E500061E085E30E94460761E085E30E94B307D5
:102E60008CB580618CBD8CB580648CBD61E084E3E1
:102E70000E94B30761E083E30E94B30780912804B6
:102E80008F5F809328041FBF80910002282F30E0BD
:102E9000F901EA59F84FE491F0E0EE0FFF1FEE5C04
:102EA000F84F459154915093270440932604F9011B
:102EB000E455F84FE491E093250461E00E94B307E4
:102EC0000E94A40980E591E00E94B00B84E3809306
:102ED0008C0780E80E94120B0E94EB16882391F168
:102EE00088E00E94120B0E94E716883059F580E1B5
:102EF0000E94120B0E94E716803121F580E00E94AB
:102F0000120B0E94E716182F81111CC08FE190E070
:102F10000E94D6168330B1F480E48093290442E005
:102F20006EE170E0812F0E94600B42E06FE170E083
:102F3000812F0E94600B1F5F183089F781E080931A
:102F40002A0464C087E380938C0780E80E94120BF8
:102F50000E94EB168823F9F088E00E94120B0E9471
:102F6000E7168830C1F480E10E94120B0E94E71638
:102F7000182F803181F480E00E94120B0E94E71626
:102F8000811109C089E390E00E94D616843019F4BB
:102F900010932904D3CF83E380938C0780E80E94A9
:102FA000120B0E94EB16882371F180E10E94120B34
:102FB0000E94E716803139F582E10E94120B0E94CF
:102FC000E716823101F580E00E94120B0E94E7169D
:102FD000811119C084E08093290415E51A8341E02A
:102FE00050E0BE016E5F7F4F8BE190E00E94620A6D
:102FF000198341E050E0BE016F5F7F4F8AE190E0AE
:103000000E94620A9BCF10928C0780E00F900F9075
:10301000DF91CF911F91089581E0F8CFEF92FF9259
:103020001F93CF93DF93CDB7DEB7C254D1090FB64C
:10303000F894DEBF0FBECDBF7C01FB01828193817E
:10304000A481B58123968CAF9DAFAEAFBFAF239760
:1030500011E023961FAF239723964CAD5DAD6EAD67
:103060007FAD239749AF5AAF6BAF7CAF8DA79EA7BB
:10307000AFA7B8AB18AB4DA55EA56FA578A94B8FD0
:103080005C8F6D8F7E8F1CAF49AD5AAD6BAD7CAD43
:1030900049A35AA36BA37CA323E533E03A83298396
:1030A0004FEF4B834C834D831E8238872F831E8FB7
:1030B0004B8D5C8D6D8D7E8D49875A876B877C87A4
:1030C0001CA349A15AA16BA17CA14F87588B698B86
:1030D0007A8B3C8B2B8B8D8B9E8BAF8BB88F0E940A
:1030E0000117882321F180E591E00E94B00B46E0B2
:1030F00050E0B70189E090E00E94620ACE01459657
:103100000E947D0BCE0109960E948B0BCE01039687
:103110000E94840B1A8B8F859889A989BA8980931C
:10312000670B9093680BA093690BB0936A0BCE5B0F
:10313000DF4F0FB6F894DEBF0FBECDBFDF91CF914A
:103140001F91FF90EF9008952091290430E0322FD5
:103150002227620F731F90E0982F8827860F971FF2
:103160000C94D616CF93C82F462F61E070E00E94D2
:10317000600B61E070E08C2F0E94A4188111F9CFE0
:10318000CF910895CF93C82F80E591E00E94B00BB6
:1031900068E070E08C2FCF910C94B218CF93C82FB9
:1031A00080E591E00E94B00B60E170E08C2FCF9140
:1031B0000C94B218CF93DF93EC01888D883020F403
:1031C0000E94CE1888E0888FDF91CF91089563E048
:1031D00070E00C94A418CF93C82F80E591E00E9472
:1031E000B00B8C2FCF910C94E718EF92FF920F93B6
:1031F0001F93CF93DF937C0180918C07D4E08333BE
:1032000009F0D8E00CE717E0C0E0F8012191319116
:103210008F01F701848195812817390729F0CF5F45
:10322000DC13F3CF80E006C08C2F0E94EB188431B2
:10323000B1F781E0DF91CF911F910F91FF90EF9057
:103240000895CF93DF93EC018C858830D0F40E94F1
:10325000EB18843189F0882379F0883169F021E016
:103260008C3159F4E881F9810084F185E02DCE019B
:10327000099521E0892B09F420E0822FDF91CF917D
:10328000089580E0FBCFCF92DF92EF92FF92CF9331
:10329000DF93EC018C85883068F40E94C2180E948C
:1032A0003C086B017C018C850E94EB18811109C0E0
:1032B00088E08C87DF91CF91FF90EF90DF90CF90E7
:1032C000089561E070E080E090E00E9409080E94AB
:1032D0003C08AB01BC014C195D096E097F098D8565
:1032E0009E85B0E0A0E0481759076A077B07D8F22F
:1032F0008C850E94CE18DCCFCF93FC01C08D80E579
:1033000091E00E94B00B60E270E08C2F0E94B21836
:1033100062E070E08C2F0E94A41884FD16C062E069
:1033200070E08C2F0E94A41883FF0AC048E162E07D
:1033300070E08C2F0E94600B80E090E0CF910895A8
:1033400080E591E00E94B00BE3CF40E162E070E0E5
:103350008C2F0E94600B81E0F0CFDA01E09129040C
:10336000F0E0FE2FEE27E60FF71F90E0982F88275A
:10337000A901BD018E0F9F1F0C94FC158F929F9287
:10338000AF92BF92CF92DF92EF92FF920F931F9373
:10339000CF93DF93CDB7DEB760970FB6F894DEBF5B
:1033A0000FBECDBF7C0190918C07911115C018E024
:1033B000812F60960FB6F894DEBF0FBECDBFDF91B0
:1033C000CF911F910F91FF90EF90DF90CF90BF9022
:1033D000AF909F908F90089508E0933309F404E034
:1033E0006B0180E591E00E94B00B9E012F5F3F4F83
:1033F0005901490110E0812F0E94E718F4018193DF
:103400004F018823C1F01F5F0113F5CF00E0F501E4
:1034100081915F018D3149F0883139F08A518230D4
:1034200020F00F5F1013F3CFC2CF60E170E0802F68
:103430000E94B218102FA12EB12CF501EE0FFF1F24
:10344000E458F84F1182108283EE93E00197F1F770
:1034500042E870E060E0812F0E94600B4FEF62E075
:1034600070E0812F0E94600BB601C114D10491F469
:10347000809146029091470201968115F0EC9F07DA
:1034800008F45CC090934702809346026091460224
:1034900070914702812F0E944B0B86E0E2E5F2E03B
:1034A000DE01199601900D928A95E1F7F70183816B
:1034B0008F778C8784818D8785818E87A7014E5F6A
:1034C0005F4F24E030E06CE070E0812F0E94250B1C
:1034D000B601812F0E94360B26E030E0AE01475F37
:1034E0005F4F66E070E0812F0E94250B61E070E085
:1034F000812F0E94B21827E02A9DC0012B9D900DBC
:1035000011249C012C5B384F7901F9011182108242
:1035100022E030E0AE01415F5F4F68E270E0812F52
:103520000E94AD198F859889982789279827F701D8
:10353000938382831682158214823ACF80E090ECC6
:10354000A1CFCF92DF92EF92FF920F931F93CF9371
:10355000DF9300D000D000D0CDB7DEB78C016B0177
:103560007A01FC01808D883010F40E94CE1883E52A
:1035700093E09A838983F60182819381A481B58146
:103580008B839C83AD83BE83B701CE0101960E94DD
:10359000BE19F801808F8830A0F4F586E486128E7B
:1035A000118E81E026960FB6F894DEBF0FBECDBF18
:1035B000DF91CF911F910F91FF90EF90DF90CF900F
:1035C000089580E0EFCF7F928F929F92AF92BF924B
:1035D000CF92DF92EF92FF920F931F93CF93DF93DF
:1035E00000D0CDB7DEB7782E8B014A01590122E019
:1035F00030E0AE014F5F5F4F64E270E00E94AD19B2
:10360000E980FA80FE24EF24FE24E00EF11E9701EB
:10361000377040918C07072D10E0433309F042C00A
:10362000085F1F4F102F0027110F110F110FC90135
:10363000800F911F4733C9F1A9014A0D5B1D41302D
:10364000584098F160E078E06B01C21AD30AA601F5
:10365000B4010E94620AA5014C195D09B4016C0D08
:103660007D1DC8010E94620AEA0CFB1CF982EA82F5
:1036700022E030E0AE014F5F5F4F64E270E0872DE3
:103680000E94250B0F900F90DF91CF911F910F910A
:10369000FF90EF90DF90CF90BF90AF909F908F9072
:1036A0007F900895005F1F4FBDCFA501B401DACF11
:1036B000EF92FF921F93CF93DF9300D0CDB7DEB789
:1036C000182F22E030E0AE014F5F5F4F60E270E004
:1036D0000E94AD19E980FA80FE24EF24FE2422E046
:1036E00030E0AE014F5F5F4F60E270E0812F0E94DB
:1036F000AD1989819A81982789279827E816F906B4
:1037000089F487E0189FF0011124EC5BF84FF582F3
:10371000E482C7010F900F90DF91CF911F91FF902E
:10372000EF9008957C01DBCF1F93CF93DF93182F89
:1037300080E591E00E94B00B812F0E94581BEC01A4
:10374000812F0E94E718873121F08C3111F0D0E0F1
:10375000C0E0CE01DF91CF911F910895CF93DF9309
:10376000EC018C85883060F40E94EB18873111F0F1
:103770008C3131F48C850E94941B8115984088F31C
:10378000DF91CF910895FC018485883010F40C946A
:10379000941B90E080E00895CF92DF92EF92FF9229
:1037A0001F93CF93DF93182F7B01EA0141305840DC
:1037B00010F0C0E0D8E080E591E00E94B00B812FCE
:1037C0000E94581B6C01812F0E94E718873111F06D
:1037D0008C3121F5CC16DD0670F380E591E00E9476
:1037E000B00B9E01A70170E060E0812F0E94E31AF8
:1037F00060E270E0812F0E94B21862E070E0812FD9
:103800000E94A41884FD0DC0812F0E94E718882310
:10381000B9F080E591E00E94B00BEFCFD0E0C0E0BE
:10382000DCCF40E162E070E0812F0E94600BCE01AE
:10383000DF91CF911F91FF90EF90DF90CF9008958F
:10384000D0E0C0E0F4CF0F931F93CF93DF938C01B0
:10385000EA01FC018485883048F40E94CC1B892B46
:1038600039F481E090E0F80193838283D0E0C0E0F6
:10387000CE01DF91CF911F910F9108959F92AF924A
:10388000BF92CF92DF92EF92FF920F931F93CF934D
:10389000DF938C015B01942EE52EFC01C688D7884E
:1038A000F08C80E591E00E94B00B8F2D0E94581B98
:1038B000C92DDE2D8C179D0708F4EC019E01A50192
:1038C000B6018F2D0E94E31AF801868997898C0F23
:1038D0009D1F978B868BCE01DF91CF911F910F910A
:1038E000FF90EF90DF90CF90BF90AF909F900895A2
:1038F000FF920F931F93CF93DF9300D0CDB7DEB726
:10390000F82E22E030E0AE014F5F5F4F66E270E0DC
:103910000E94AD1909811A8110270127102722E082
:1039200030E0AE014F5F5F4F66E270E08F2D0E9486
:10393000AD1989819A81982789279827081719072F
:1039400049F4C8010F900F90DF91CF911F910F9113
:10395000FF9008958C01E3CF1F93CF93DF93182F2F
:1039600087E0189FE0011124CC5BD84F88819981B2
:10397000009761F480E591E00E94B00B812F0E94D6
:10398000781C2E81821B910999838883DF91CF91C6
:103990001F9108959F92AF92BF92CF92DF92EF92C4
:1039A000FF920F931F93CF93DF93EC017B018091E4
:1039B0008C07811121C01B821A8288EE93E0A0E05F
:1039C000B0E08C839D83AE83BF8380E792E09983D0
:1039D000888388E08C8788EE93E09E878D87CE0170
:1039E000DF91CF911F910F91FF90EF90DF90CF90DB
:1039F000BF90AF909F90089534E0932E833311F0E1
:103A000028E0922E8CE7C82E87E0D82E10E098E0B0
:103A1000B92EA12CD6012D913D916D01F701848124
:103A200095812817390791F4812F0E94EB18082FF0
:103A3000873111F08C3139F5812F0E94AC1C892B14
:103A400059F50C3119F4812F0E94C2181F5F911291
:103A5000E1CFA11008C0D701ED91FC910084F18560
:103A6000E02DC70109951B821A8288EE93E0A0E041
:103A7000B0E08C839D83AE83BF8380E792E099831F
:103A80008883BC86A8CF843149F08111DFCFF6014D
:103A9000329711821082DACFB12ED8CFAA24A39404
:103AA000D5CF8F929F92AF92BF92CF92DF92EF923B
:103AB000FF920F931F93CF93DF93CDB7DEB72F976E
:103AC0000FB6F894DEBF0FBECDBF5C014B017A018B
:103AD00080918C078823C9F104E0833309F008E062
:103AE000B501CE0101960E94CA1C8CE7C82E87E062
:103AF000D82E10E0F601219131916F01F5018481FA
:103B000095812817390751F4812F0E94EB188731CE
:103B100029F4A701B401812F0E94CC1B1F5F011360
:103B2000E9CFC7012F960FB6F894DEBF0FBECDBF09
:103B3000DF91CF911F910F91FF90EF90DF90CF9089
:103B4000BF90AF909F908F900895F12CE12CE9CF1A
:103B5000FC018485883010F40C94AC1C90E080E06B
:103B600008954F925F927F928F929F92AF92BF92F1
:103B7000CF92DF92EF92FF920F931F93CF93DF9339
:103B800000D0CDB7DEB7782E6B014A01A82EB12C3C
:103B900027E0829FC0011124FC01EC5BF84F7F01FC
:103BA0000081118180E591E00E94B00B0815190594
:103BB00054F4872D0E94781CF70126818C01021B8A
:103BC0001109118300830115110519F5872D0E9434
:103BD000E718843159F0882349F001E010E08C3176
:103BE00011F410E000E0119501951109C8010F9042
:103BF0000F90DF91CF911F910F91FF90EF90DF9089
:103C0000CF90BF90AF909F908F907F905F904F909C
:103C10000895801691060CF4840187E08A9DF001D6
:103C20008B9DF00D1124EC5BF84FE280F380C11402
:103C3000D10451F12701F7E05F22872D0E94B909D5
:103C4000840D951D20918C07273309F453C09801EA
:103C5000240D351D2130384008F44CC020E038E0F8
:103C6000490184189508A401B6010E94FC1526019B
:103C7000480C591C6801C818D908872D0E94B90939
:103C8000A601B2010E94FC15E00EF11E87E08A9D9C
:103C9000F0018B9DF00D1124EC5BF84FF382E28272
:103CA00020813181201B310B318320838681800F5D
:103CB000912F911D8A3F910510F4232BF1F487E099
:103CC0008A9DF0018B9DF00D1124EC5BF84F16825C
:103CD000F982EA8222E030E0AE014F5F5F4F68E296
:103CE00070E0872D0E94250B60E470E0872D0E9414
:103CF000B2187CCFA801B601C5CF868377CFCF930A
:103D0000DF93FC01218D328D2115310529F48FEFD0
:103D10009FEFDF91CF910895EC01808D42175307FB
:103D200008F0A9010E94B11D1816190684F7298D03
:103D30003A8D281B390B3A8F298FEBCF0F931F93A6
:103D4000CF93DF931F92CDB7DEB7FC01218D328D6B
:103D5000232B41F48FEF9FEF0F90DF91CF911F91B5
:103D60000F9108958C0141E050E0BE016F5F7F4FDD
:103D7000FC01808D0E94B11D181619065CF7F80130
:103D8000818D928D0197928F818F898190E0E4CF10
:103D9000CF93DF931F92CDB7DEB741E050E0BE0175
:103DA0006F5F7F4FFC0184850E94B11D18161906B4
:103DB00034F4898190E00F90DF91CF9108958FEFD7
:103DC0009FEFF9CFFC018485883010F40C94B11D6D
:103DD00090E080E008958F929F92AF92BF92CF9231
:103DE000DF92EF92FF920F931F93CF93DF93CDB7A4
:103DF000DEB72A970FB6F894DEBF0FBECDBF909105
:103E00008C07911115C018E0812F2A960FB6F894EF
:103E1000DEBF0FBECDBFDF91CF911F910F91FF90FD
:103E2000EF90DF90CF90BF90AF909F908F900895CC
:103E300028E0F22E933311F494E0F92E6B01082F51
:103E400080E591E00E94B00B9E012F5F3F4F59012A
:103E5000490110E0812F0E94E718F40181934F017E
:103E60008823C1F01F5FF112F5CFF12CF50191917C
:103E70005F019D3149F0983139F09A51923020F02C
:103E8000F3941F11F3CFBFCF60E170E08F2D0E943C
:103E9000B2181F2DE12EF12CF701EE0FFF1FE45891
:103EA000F84F1182108283EE93E00197F1F7402FD3
:103EB00070E060E0812F0E94600B4FEF62E070E0E5
:103EC000812F0E94600BB601CD2889F480914602B3
:103ED0009091470201968115F0EC9F0798F190931D
:103EE0004702809346026091460270914702812FFB
:103EF0000E944B0B61E070E0812F0E94B21827E016
:103F00002E9DC0012F9D900D11249C012C5B384FDC
:103F10007901F9011182108222E030E0AE01475FA1
:103F20005F4F68E270E0812F0E94AD1989859A8504
:103F3000982789279827F701938382831682158211
:103F4000148262CF80E090ECCACF0F931F93CF937F
:103F5000DF93EC018B01888D883010F40E94CE181D
:103F6000B80182E00E94EB1E888F883050F41D87D4
:103F70000C871A8E198E81E0DF91CF911F910F91DE
:103F8000089580E0F9CF0F931F93CF938C01FC012C
:103F90006481758181E20E94EB1EC82F8830F8F49D
:103FA00080E591E00E94B00B8C2F0E94E7188331CE
:103FB00031F08C2FCF911F910F910C94C21862E0B9
:103FC00070E08C2F0E94B218F80184819581EC2F4B
:103FD000F0E0EE0FFF1FE458F84F91838083CF91FC
:103FE0001F910F910895CF92DF92EF92FF921F934E
:103FF000CF93DF93EC017B016A018C85883048F414
:104000000E94EB18882319F08C850E94C21888E062
:104010008C87F70182819381A481B5810097A105E6
:10402000B10551F490E080E0DF91CF911F91FF90B6
:10403000EF90DF90CF9008958F3F9F4FAF4FBF4FCE
:1040400089F370E060E081E20E94EB1E182F8C87FC
:10405000883040F780E591E00E94B00BA7014E5FE9
:104060005F4F24E030E06CE070E0812F0E94250B70
:10407000B601812F0E94360B64E070E0812F0E9410
:10408000B2180E943C086B017C018C850E94EB18E1
:10409000873111F18C3101F1882321F20E943C0813
:1040A000AB01BC014C195D096E097F098D859E85A8
:1040B000B0E0A0E084179507A607B70738F061E0E5
:1040C00070E080E090E00E940908DFCF8C850E94BC
:1040D000CE1888E08C87A6CF81E090E0A5CF0F9323
:1040E0001F93CF93DF9300D0CDB7DEB7FC012485BB
:1040F0002830E0F48C0180E591E00E94B00B22E0D2
:1041000030E0AE014F5F5F4F60E170E0F801848501
:104110000E94AD1989819A819827892798270F9045
:104120000F90DF91CF911F910F91089590E080E063
:10413000F6CF0F931F93CF93DF9300D0CDB7DEB7A9
:10414000FC0124852830E0F48C0180E591E00E9498
:10415000B00B22E030E0AE014F5F5F4F64E070E0F3
:10416000F80184850E94AD1989819A819827892751
:1041700098270F900F90DF91CF911F910F91089585
:1041800090E080E0F6CF0F931F93CF938C01C62F62
:104190000E94AB146C2F6460C8010E94AB146C2F9A
:1041A0006B7FC8010E94AB1483EC90E00197F1F79C
:1041B000CF911F910F9108950F931F93CF93DF938A
:1041C0008C01D62FC42F607F642B0E94C32080E116
:1041D000D89FB00111246C2BC801DF91CF911F91A2
:1041E0000F910C94C320FC016681262F2460268346
:1041F0006C6040E00C94DC20CF93DF93CDB7DEB74A
:1042000028970FB6F894DEBF0FBECDBF28E0E8E5D3
:10421000F2E0DE01119601900D922A95E1F7FC0182
:104220002085241710F44FEF420F50E0440F551F24
:1042300021E030E02C0F3D1F420F531FFA01208177
:10424000620F606840E028960FB6F894DEBF0FBE9C
:10425000CDBFDF91CF910C94DC20CF93DF93EC01A5
:1042600040E061E00E94DC208BE39FE10197F1F7E1
:104270008985882339F040E060E0CE01DF91CF915D
:104280000C94FC20DF91CF91089541E00E94DC2046
:1042900081E090E008952F923F924F925F926F924B
:1042A0007F928F929F92AF92BF92CF92DF92EF92C6
:1042B000FF920F931F93CF93DF936C013B011A0181
:1042C000FB011082FC0101900020E9F731974F01BA
:1042D000881A990AC091CF0DD091D00DC153D34FF8
:1042E0000FEC1CE00C171D0708F078C0AE01401B56
:1042F000510B6DE370E0C8010E94CA445C01009755
:1043000009F46CC0AE01481B590B66E270E00E94D4
:10431000CA447C01892B09F47E01C501801B910BE5
:104320008816990609F056C0A401B601C8010E947A
:10433000D744892B09F04EC0E5012196D12CC12C20
:104340005301AC0CBD1CCE15DF0570F54601FFEF27
:104350008F1A9F0A8214930438F588818B3221F4D6
:1043600080E2F50180831DC08532D9F72E0192E0ED
:10437000490E511C4E145F04A0F789810E94BB15A1
:104380008C018A810E94BB1517FD0CC097FD0AC0E5
:1043900094E0000F111F9A95E1F7082BF5010083B7
:1043A000E20164012196CCCFF501108281E0DF911A
:1043B000CF911F910F91FF90EF90DF90CF90BF9022
:1043C000AF909F908F907F906F905F904F903F90B5
:1043D0002F90089587010F5F1F4F84CF80E0E7CFB4
:1043E000FB0101900020E9F73197AF01461B570B05
:1043F000DC01ED91FC910280F381E02D09948F9214
:104400009F92AF92BF92EF92FF920F931F93CF9321
:10441000DF93CDB7DEB7A1970FB6F894DEBF0FBE1E
:10442000CDBF7C01FA01CB0119A2223008F42AE0A9
:104430008E010F5D1F4F822E912CB12CA12CBF013C
:10444000A50194010E945B42F901CA016A300CF592
:10445000605DD8016E938D01232B242B252B79F7DA
:1044600090E080E0109721F0BD01C7010E94F0218B
:10447000A1960FB6F894DEBF0FBECDBFDF91CF91EE
:104480001F910F91FF90EF90BF90AF909F908F90F2
:104490000895695CDECFCF92DF92EF92FF920F9387
:1044A0001F93CF93DF936B01770FEE08FF08F7FEA2
:1044B0001BC0EC016DE20E9449088C01442755277E
:1044C000BA014C195D096E097F092AE0CE010E94EC
:1044D000FF21800F911FDF91CF911F910F91FF90CE
:1044E000EF90DF90CF9008952AE0B701A601DF9109
:1044F000CF911F910F91FF90EF90DF90CF900C9490
:10450000FF21462F50E070E060E02AE00C94FF218C
:104510008F929F92AF92BF92CF92DF92EF92FF92D3
:104520000F931F93CF93DF937C018B014C0182E0AB
:10453000880E911C5701E5E0AE0EB11CD0E0C0E042
:10454000F40161914F01C8010E9481226C016EE269
:10455000C8010E9449088C0D9D1DC80FD91F8A14DF
:104560009B0471F7F7016581C8010E9481228C0FBD
:104570009D1FDF91CF911F910F91FF90EF90DF90E2
:10458000CF90BF90AF909F908F90089565E573E0B6
:104590000C94F0210F931F93CF93DF93EC010E94B3
:1045A000140A8C01CE010E94C622800F911FDF9158
:1045B000CF911F910F910895EF92FF920F931F9348
:1045C000CF93DF93EC017B018A016CEB7BE00E94CF
:1045D000140AB701CE010E944B2260E2CE010E9474
:1045E0004908B801CE010E94CA2263EA7BE0CE01ED
:1045F0000E94CA2261E97BE0CE010E94CA22CE015C
:104600000E94C622B801CE01DF91CF911F910F9178
:10461000FF90EF900C94CA220F931F93CF93DF93D8
:10462000EC018B016AE77BE00E94CA226FE67BE027
:10463000CE010E94140AB801CE010E94CA226DE583
:104640007BE0CE010E94CA22CE01DF91CF911F9163
:104650000F910C94C6220F931F93CF93DF93EC011D
:104660008B016DE47BE00E94CA2266E27BE0CE0112
:104670000E94CA2264E17BE0CE010E94CA22CE01E0
:104680000E94C62260EB7AE0CE010E94140AB801B3
:10469000CE010E94140A65EB78E0CE010E94140A54
:1046A00068E378E0CE01DF91CF911F910F910C94D8
:1046B000140A6115710511F00C94F02190E080E06E
:1046C0000895DC0183E593E08D939D9384E0FB01E5
:1046D00001900D928A95E1F70895EF92FF920F9362
:1046E0001F93CF93DF9300D000D0CDB7DEB78C01FE
:1046F0007B01FB0184858830A8F083E593E0F80115
:10470000918380831282138214821582C8010F90D4
:104710000F900F900F90DF91CF911F910F91FF900D
:10472000EF90089580E591E00E94B00B24E030E026
:10473000AE014F5F5F4F6CE070E0F70184850E942F
:10474000AD19BE016F5F7F4FC8010E946123DECFAC
:104750000F931F93CF93DF93CDB7DEB728970FB694
:10476000F894DEBF0FBECDBF8C01D80159964D9194
:104770005C915A974115510551F0ED91FC91048CD3
:10478000F58DE02D70E060E0C8010995EECFF801ED
:10479000808D0E94AC1C892BB1F148E050E0BE0135
:1047A0006F5F7F4FD80158968C910E94B11D1816EB
:1047B0001906F4F4D801509684E0FE013196019078
:1047C0000D928A95E1F78D8190E0982F88272E81B0
:1047D000820F911DF801958B848B8F81282F30E0FB
:1047E000322F22278885820F932F911D928F818FE0
:1047F00028960FB6F894DEBF0FBECDBFDF91CF91E4
:104800001F910F91089590E080E0F2CF4F925F9258
:104810006F927F928F929F92AF92BF92CF92DF92D0
:10482000EF92FF920F931F93CF93DF93CDB7DEB735
:1048300063970FB6F894DEBF0FBECDBF7C016B014E
:104840003A01FB0120E090E080E06AE031913323FF
:1048500009F461C040ED430F4A3008F04DC0689F35
:10486000A001699F500D1124CA01C097830F911DAB
:1048700037FD9A958F3F910549F340F3F701428147
:1048800053816481758180913D0B90913E0BA09185
:104890003F0BB091400B481759076A077B0709F493
:1048A0000DC28701085F1F4F0E943C086F70772779
:1048B0007C5FC8010E94A51F813009F004C283E516
:1048C00093E09A838983F70182819381A481B581E2
:1048D0008B839C83AD83BE8345E350E0BE016F5F55
:1048E0007F4FC8010E94B30B892BA9F5D12CC12C95
:1048F000C8010E94DA1817C03E3209F0BFCF23303A
:1049000009F4BCCFD301A20FB11D12968C932F5F77
:1049100090E080E09BCF233009F0B0CFF301858396
:10492000CC24C394D12CC60163960FB6F894DEBF95
:104930000FBECDBFDF91CF911F910F91FF90EF90F0
:10494000DF90CF90BF90AF909F908F907F906F90AF
:104950005F904F9008950E943C08F701778366832B
:1049600042E050E0B7016A5F7F4FC8010E943E1CE1
:1049700081E090E09A83898342E050E0BE016F5F5E
:104980007F4FC8010E943E1C80E091E09A8389839A
:1049900042E050E0BE016F5F7F4FC8010E943E1CA5
:1049A0001A82198242E050E0BE016F5F7F4FC8015A
:1049B0000E943E1C42E050E0BE016F5F7F4FC80185
:1049C0000E943E1C42E050E0BE016F5F7F4FC80175
:1049D0000E943E1C5601F6018081882301F1650189
:1049E000F60181912F01882311F08E32B1F4460136
:1049F0008A189B081814190474F48D8641E050E05D
:104A0000BE01635F7F4FC8010E943E1CA401B50137
:104A1000C8010E943E1C5201DECF6201E1CF1D861B
:104A200041E050E0BE01635F7F4FC8010E943E1C21
:104A3000C12CDD24D394DA82C98242E050E0BE0169
:104A40006F5F7F4FC8010E943E1CDA82C98242E03C
:104A500050E0BE016F5F7F4FC8010E943E1CC8013D
:104A60000E947C19892B09F441CFF3E0AF2EB12CC1
:104A7000230122E0420E511CD4C0F7014281538130
:104A800064817581808D918DA28DB38D48175907F2
:104A90006A077B0709F008C1848D958DC59709F0D9
:104AA00003C181A192A15DEFC52EDD24DA940C979C
:104AB0000CF4ADC04CE050E0BE016F5F7F4FC80109
:104AC0000E947F1E8B819C819827892798279A8B2B
:104AD000898BF7014681578129813A814217530713
:104AE00009F0E7C097FFE5C08F7092703BEFC32ECF
:104AF000DD24DA94892B09F08AC06F8078847624CB
:104B0000672476242AEFC22EDD24DA94611471041E
:104B100009F47DC0D12CC12C8D819E8198278927D5
:104B20009827C816D906F8F441E050E0BE01635F4B
:104B30007F4FC8010E947F1E4D85442331F050E015
:104B400070E060E0C8010E947F1E8D858111ECCF6E
:104B500044E050E070E060E0C8010E947F1EFFEF7B
:104B6000CF1ADF0AD9CF912C812C41E050E0BE0151
:104B70006D5E7F4FC8010E947F1E4B89842F807C11
:104B800009F06CC0442331F050E070E060E0C801EF
:104B90000E947F1E8B898111E8CF42E050E0BE0168
:104BA000615F7F4FC8010E947F1E42E050E0BE015E
:104BB000635F7F4FC8010E947F1E44E050E070E0B9
:104BC00060E0C8010E947F1E42E050E0BE016F5EBF
:104BD0007F4FC8010E947F1E8F85988949895A8915
:104BE0008115914009F043C0CD84DE84DC24CD24BE
:104BF000DC2481E0C816D104D1F54115544009F0F8
:104C00004AC044E050E0B201C8010E947F1E21E08A
:104C1000A21AB10809F46CCEFFEFCF16DF0609F037
:104C200067CE0E943C083B014C01C8010E94A823AA
:104C3000181619060CF421CF0E943C086619770952
:104C400088099909693873418105910548F562E33E
:104C500070E080E090E00E940908E7CF41E050E07A
:104C600070E060E0C8010E947F1E1B8A93CF54272A
:104C70004527542770E060E0C8010E947F1EFFEFC7
:104C80008F1A9F0A6814790409F06FCF96EFC92E26
:104C9000DD24DA94BCCFE7EFCE2EDD24DA94B7CF53
:104CA000CC24CA94DC2CB3CF6EEFC62EDD24DA946C
:104CB000AECF4CEFC42EDD24DA94A9CF8EEFC82EF0
:104CC000DD24DA9430CED12CC12C2DCECF92DF92C0
:104CD000EF92FF920F931F93CF93DF93CDB7DEB781
:104CE000AF970FB6F894DEBF0FBECDBF7C016A014F
:104CF00003E513E01A8309831C861B8688EE93E084
:104D0000A0E0B0E08D879E87AF87B88B89E193E004
:104D10009A878987188F0F8B198E1A8E1B8E1C8E7F
:104D200088E089A31BA70AA71CA61DA61EA61FA66E
:104D30008091670B9091680BA091690BB0916A0B01
:104D40008EA39FA3A8A7B9A78B839C83AD83BE83A3
:104D500018861F82AE01465D5F4FCE0101960E940C
:104D6000062481309105B1F4D701ED91FC910488BE
:104D7000F589E02D1DA30CA38CA59DA5AEA5BFA50F
:104D80008EA39FA3A8A7B9A7A601BE016C5D7F4F04
:104D9000C7010995AF960FB6F894DEBF0FBECDBF21
:104DA000DF91CF911F910F91FF90EF90DF90CF9007
:104DB0000895CF92DF92EF92FF920F931F93CF93BC
:104DC000DF93CDB7DEB7AF970FB6F894DEBF0FBE57
:104DD000CDBF8C016B017A0183E593E09A838983CF
:104DE0001B821C821D821E821C861B8648EE53E09D
:104DF00060E070E04D875E876F87788B29E133E054
:104E00003A872987988F8F8B198E1A8E1B8E1C8E4E
:104E100028E029A39BA78AA71CA61DA61EA61FA63D
:104E2000D8011C968C91883060F40E94EB1888237E
:104E300021F0F80184850E94C21888E0D8011C96F0
:104E40008C938091670B9091680BA091690BB09146
:104E50006A0B8EA39FA3A8A7B9A78B839C83AD835E
:104E6000BE8318861F82AE01465D5F4FB601CE013C
:104E700001960E9406240097C1F0D801ED91FC91A3
:104E80000684F785E02D83E593E09DA38CA38CA594
:104E90009DA5AEA5BFA58EA39FA3A8A7B9A7A7014F
:104EA000BE016C5D7F4FC8010995AF960FB6F894AF
:104EB000DEBF0FBECDBFDF91CF911F910F91FF904D
:104EC000EF90DF90CF9008953F924F925F926F9254
:104ED0007F928F929F92AF92BF92CF92DF92EF928A
:104EE000FF920F931F93CF93DF93CDB7DEB7EA976F
:104EF0000FB6F894DEBF0FBECDBF7C012A013B0187
:104F000069010E943C084B015C0187010D5B1F4F4A
:104F1000C8010E94A823181619069CF00E943C089C
:104F2000681979098A099B094616570668067906A1
:104F300008F466C162E370E080E090E00E94090836
:104F4000E7CF42E250E0BE016F5F7F4FC8010E9491
:104F50007F1E89818230D1F0312C832DEA960FB6E5
:104F6000F894DEBF0FBECDBFDF91CF911F910F919F
:104F7000FF90EF90DF90CF90BF90AF909F908F9079
:104F80007F906F905F904F903F900895F8018489D3
:104F900095898334910501F76D817E818F81988594
:104FA0000E94A9424B015C01F60180829182A2829B
:104FB000B38246E050E0B701685F7F4FCE014D9667
:104FC0000E94D744892B41F6F70180819181A2810B
:104FD000B38188169906AA06BB0608F4BDCF848162
:104FE0009581A681B78188159905AA05BB0508F4A6
:104FF000B3CF89899A89AB89BC8986879787A08B2B
:10500000B18B4EEC50E070E060E0C8010E947F1E62
:10501000312CC701829698AB8FA7F701B696FAABF1
:10502000E9AB08969CAB8BAB67019AE1C90ED11C2A
:10503000BD96FEABEDABC701429698AF8FABFD9727
:10504000FAAFE9AF4701FEE18F0E911CF801818DA7
:10505000928D181619060CF080CFC8010E949E1E72
:105060008333910509F4B2C014F58130910509F438
:1050700064C044F4892B51F3C8010E949E1EAC0108
:10508000552775C08330910509F462C00697A1F7D2
:10509000C8010E949E1EB82E44E050E0B401C80131
:1050A0000E947F1EEB2DE450FF0BAF0160C08A33DE
:1050B000910509F45FC084F585339105B1F1C69778
:1050C000D9F6C8010E949E1E5C01B601CE018996E8
:1050D0000E9461238BA59CA5ADA5BEA5892B8A2B1B
:1050E0008B2BB1F0EDA9FEA94080518062807380C6
:1050F000B601CE0183960E9461238DA19EA1AFA12E
:10510000B8A5A501481659066A067B0609F0B8CF6E
:1051100044E050E0B60118C08B33910509F440C05B
:105120008F3F910509F492CFA7CFC8010E949E1E20
:10513000C8010E949E1E382E89CFC8010E949E1E63
:1051400044E050E06FA978ADC8010E947F1E7ECF79
:10515000C8010E949E1EB82E44E050E069AD7AADB1
:10516000C8010E947F1E8B2D8450990BAC0170E00A
:1051700060E0EACFC8010E949E1E44E050E069A9A9
:105180007AA9C8010E947F1EF70166A177A180A5B8
:1051900091A50E94A94266A377A380A791A756CFA5
:1051A000C8010E949E1E44E050E06BA97CA9C80182
:1051B0000E947F1EF70162A573A584A595A50E9494
:1051C000A94262A773A784A795A740CFC8010E94F0
:1051D0009E1E44E050E06FA578A9C8010E947F1E82
:1051E000F70162A173A184A195A10E94A94262A3C3
:1051F00073A384A395A366A777A780AB91AB26CFB3
:1052000033243A94AACE85ED8093BC008091D506D4
:105210009091D606A091D706B091D8060796A11D09
:10522000B11D23E0B695A795979587952A95D1F757
:105230002091BC0024FD03C010921E0708954091E8
:10524000D5065091D6066091D7067091D806452BA9
:10525000462B472B69F30097A105B10541F02AE2DF
:105260002A95F1F700C00197A109B109E1CF80911A
:10527000D4060C947407CF93DF93EC018881998155
:10528000009711F00E946043198218821D821C82CF
:105290001B821A82DF91CF910895FC018081918158
:1052A000009711F00C94604308950C9460437F9232
:1052B0008F929F92AF92BF92CF92DF92EF92FF9226
:1052C0000F931F93CF93DF93CDB7DEB7A6970FB69B
:1052D000F894DEBF0FBECDBF8C01762E942E852EA6
:1052E00020E2A22ECE0101967C01DC01EA2D1D9266
:1052F000EA95E9F76801F3E4CF0ED11C83E593E06A
:105300009AA389A38FEF8BA38CA38DA38EA343E4D1
:1053100050E0BE016F5D7F4FC6010E94B30B019646
:1053200009F4BFC081E089838A8386E0B82EBB82FE
:105330001C82D80114966D917D918D919C91179747
:105340000E94A9426D837E838F83988789869A867F
:1053500080E890E09C878B874CE150E0B701C60164
:105360000E943E1CFE0137968AE1DF011D928A955C
:10537000E9F74801B8E08B0E911CF401D7010190C8
:105380000D92BA94E1F740E150E0B701C6010E94E6
:105390003E1CF7011192AA94E9F796E0A92EB12CD0
:1053A00040E250E0B701C6010E943E1CF1E0AF1A96
:1053B000B108B1F783E6898392E89A8393E59B83EA
:1053C0008C8385E38D8381E08E837F829DE3988744
:1053D00097E099878A8786E0F401DE011B960190A9
:1053E0000D928A95E1F78CE0898B8A8B68E573E0F2
:1053F000CE0143960E940845D8011B966C91CE01C0
:1054000049960E941106F8016485CE014B960E94D0
:105410001106D8011D966C91CE014D960E94110681
:105420004EE150E0B701C6010E943E1CB3E07B1282
:105430001EC082E3898384E08A83F80196859B837A
:1054400097859C8390899D8391899E8396E39F8312
:105450008887828D8987838D8A87848D8B87858DC8
:105460008C874CE050E0B701C6010E943E1C87E3E8
:10547000898386E08A8391E09B8393E09C838D837C
:105480008FE08E838AE38F838BE388878FEF898712
:1054900049E050E0B701C6010E943E1CC6010E94CF
:1054A0007C19A6960FB6F894DEBF0FBECDBFDF9174
:1054B000CF911F910F91FF90EF90DF90CF90BF9011
:1054C000AF909F908F907F9008950F931F93CF93ED
:1054D000DF93EC0188819981009759F02A813B8103
:1054E0002617370730F081E0DF91CF911F910F91A0
:1054F00008958B016F5F7F4F0E94E943009759F039
:10550000998388831B830A832C813D81232B59F740
:10551000FC011082E8CF80E0E7CFEF92FF920F937B
:105520001F93CF93DF936115710541F480E0DF9104
:10553000CF911F910F91FF90EF9008954115510564
:10554000B1F07B01EC010C811D81040F151FB80126
:105550000E94652A882351F3288139818C819D819D
:10556000B701820F931F0E9408451D830C8381E0C1
:10557000DECFCF93DF93EC01FB0144815581608145
:1055800071810E948D2A811103C0CE010E943B29A6
:10559000CE01DF91CF910895EF92FF920F931F9369
:1055A000CF93DF93EC017B018A01BA010E94652A47
:1055B00081110BC0CE010E943B29CE01DF91CF911A
:1055C0001F910F91FF90EF9008951D830C83B701F9
:1055D000888199810E940845F0CFFB01019000204D
:1055E000E9F73197AF01461B570B0C94CC2A0F9368
:1055F0001F93CF93DF93CDB7DEB729970FB6F894FB
:10560000DEBF0FBECDBF8C01862FF8011182108244
:1056100013821282158214824AE0BE016F5F7F4FAF
:1056200090E00E94FF41BE016F5F7F4FC8010E9462
:10563000ED2A29960FB6F894DEBF0FBECDBFDF91DD
:10564000CF911F910F910895FC0111821082138256
:105650001282158214826115710551F0FB010190CF
:105660000020E9F73197AF01461B570B0C94CC2A69
:105670000895AF92BF92CF92DF92EF92FF920F9375
:105680001F93CF93DF936C015B017A01890124178B
:10569000350720F48F2D7901042F182F67E573E06B
:1056A000C6010E94242BD5011496CD91DC91EC16F5
:1056B000FD06E0F40C171D0708F4E801D501ED9193
:1056C000FC911197EC0FFD1F108110826D917C9160
:1056D0006E0D7F1DC60161157105A1F00E94ED2AB6
:1056E000F50180819181C80FD91F1883C601DF9110
:1056F000CF911F910F91FF90EF90DF90CF90BF90CF
:10570000AF9008950E943B29EBCF2F923F924F928A
:105710005F926F927F928F929F92AF92BF92CF9241
:10572000DF92EF92FF920F931F93CF93DF9300D0FE
:1057300000D000D0CDB7DEB78C010E943A412FECEB
:1057400037E040E050E00E942942DC01CB010196A5
:10575000A11DB11DF80184839583A683B78380833F
:105760009183A283B3835801F3E4AF0EB11CC5014A
:105770000E94DA1864E470E0C5010E94A51F882326
:1057800009F445C10E943C082B013C01480182E418
:10579000880E911C48EEC42E43E0D42EE12CF12C4F
:1057A00052E0252E1E821D82D4018C918330B1F1EE
:1057B000811166C0F80184819581A681B781019627
:1057C000A11DB11D84839583A683B7830E943C08E5
:1057D0006419750986099709A70196010E945B4221
:1057E000A90161E0C8010E94572981E0D4018C938E
:1057F0008D819E810197C1F20E943C086419750950
:1058000086099709D801D6962D913D914D915C91CD
:10581000D997261737074807590720F6C5010E9470
:10582000DA18F80184819581A681B7810196A11DBE
:10583000B11D84839583A683B7830E943C08F80139
:10584000FE9660837183828393838D819E812696E9
:105850000FB6F894DEBF0FBECDBFDF91CF911F9181
:105860000F91FF90EF90DF90CF90BF90AF909F90FF
:105870008F907F906F905F904F903F902F90089502
:105880008430F1F4F80184819581A681B781019675
:10589000A11DB11D84839583A683B7830E943C0814
:1058A0006419750986099709A70196010E945B4250
:1058B000A90163E0C8010E945729D4012C9298CF16
:1058C000813051F5F80142AD53AD64AD75AD9E0127
:1058D0002F5F3F4FC8010E946427382EF2E08F13DC
:1058E00090C089819A81AB81BC81F80184839583C2
:1058F000A683B7830E943C08641975098609970935
:10590000A70196010E945B42A90163E0C8010E94C1
:105910005729D4013C926CCF823009F069CFF8014D
:1059200042AD53AD64AD75AD9E012F5F3F4FC801D1
:105930000E946427382EF5E08F135DC0E3E0D401A8
:10594000EC93F80182A193A1A4A1B5A1892B8A2B84
:105950008B2B41F484E893E0A0E0B0E082A393A312
:10596000A4A3B5A3F80186A197A1A0A5B1A5892BF1
:105970008A2B8B2B61F482A193A1A4A1B5A1B6952A
:10598000A7959795879586A397A3A0A7B1A7F80198
:1059900082A593A5A4A5B5A5892B8A2B8B2BA9F449
:1059A00082A193A1A4A1B5A1AC01BD0123E076958C
:1059B0006795579547952A95D1F7841B950BA60BAC
:1059C000B70B82A793A7A4A7B5A7F80186A197A1B3
:1059D000A0A5B1A586A797A7A0ABB1AB82A593A5BB
:1059E000A4A5B5A582AB93ABA4ABB5AB81E090E029
:1059F0009E838D83FDCE96E0891303C0D4011C9253
:105A0000F7CEBFEF3B12F4CEF4011082F1CE1E822E
:105A10001D821BCFEF92FF920F931F93CF93DF93C3
:105A200000D000D000D0CDB7DEB78C018091ED0959
:105A300081112AC01092D5091092D40988EE93E002
:105A4000A0E0B0E08093D6099093D709A093D8093D
:105A5000B093D90989E193E09093D3098093D20957
:105A600083E593E09093E1098093E0091092E209C5
:105A70001092E3091092E4091092E50988E08093FE
:105A8000EA0981E08093ED098FE899E090938E090F
:105A900080938D090E940117F12CE12C882309F4D1
:105AA000B0C080E591E00E94B00B46E050E0B80144
:105AB00089E090E00E94620A83E593E09A838983FB
:105AC0001B821C821D821E82CE0103960E947D0BCA
:105AD0001092B1091092B2091092B3091092B40950
