:100000000C9404010C942E010C942E010C942E01DE
:100010000C942E010C942E010C942E010C942E01A4
:100020000C942E010C942E010C942E010C942E0194
:100030000C942E010C942E010C942E010C942E0184
:100040000C942E010C942E010C942E010C942E0174
:100050000C942E010C942E010C942E010C949511ED
:100060000C942E010C9469120C943F120C942E01E6
:100070000C942E010C942E010C942E010C942E0144
:100080000C942E010C942E010C942E010C942E0134
:100090000C9409120C94DF110C942E010C94751021
:1000A0000C942E010C942E010C942E010C942E0114
:1000B0000C942E010C942E010C942E010C942E0104
:1000C0000C942E010C942E010C942E010C942E01F4
:1000D0000C942E010C942E010C942E010C942E01E4
:1000E0000C942E0100002100240027002A002D007E
:1000F0003000330001010000040107010A01000083
:100100002200250028002B002E00310034000201BF
:100110000000050108010B0100002000230026005B
:1001200029002C002F00320000010000030106010D
:10013000090105050505070508080808020202026D
:100140000A0A080804040404010101010101010173
:100150000303030303030303040707070C0C0C0C3E
:100160000C0C0C0C02020202060606060606060627
:100170000B0B0B0B0B0B0B0B0102102020080810B4
:100180002040102040800201020108040201010207
:1001900004081020408080402010080402018004E0
:1001A000020180402010080402010804020101023B
:1001B0000408102040800102040810204080000044
:1001C0000A0B02090C0D0E080703040100000000D1
:1001D000000000000000000000000000000000001F
:1001E00000000000000000000000121110000000DC
:1001F00000000000000000000000000000000000FF
:10020000000000009F12D81B11241FBECFEFD1E2C7
:10021000DEBFCDBF2AE0A0EEB2E001C01D92A0314A
:10022000B207E1F712E0A0E0B2E0ECEDFCE300E0A1
:100230000BBF02C007900D92A03EB107D9F711E0A5
:10024000C3E0D1E004C02197FE010E942E1CC23001
:10025000D107C9F70E94A1130C94611E0C940000F1
:100260002091B805260F3327331F21323105ECF4D6
:100270002091DC05FC0190E080E0243069F082E010
:100280000895A091B8052191AC0148565A4FA40F8A
:10029000B52FB11D2C930196861798F38091B80560
:1002A000680F6093B80580E0089581E0089508958F
:1002B0008FEF9FEF08958FEF9FEF08958091910545
:1002C00090E09195819591090895CF92DF92EF92F8
:1002D000FF920F931F93CF93DF937C01CB018A0191
:1002E00020919005222389F0EB016B01C40ED51EED
:1002F000CC15DD0569F06991D701ED91FC91019074
:10030000F081E02DC7010995F3CF642F0E943001E1
:10031000C801DF91CF911F910F91FF90EF90DF9077
:10032000CF900895CF93DF931F92CDB7DEB7698347
:10033000209190052223F9F020918F05203258F06A
:1003400021E030E0FC013383228390E080E00F90D5
:10035000DF91CF91089580918E05E82FF0E0E2596A
:10036000FA4F998190838F5F80938E0580938F05DC
:1003700081E090E0ECCF61E0CE0101960E94300177
:10038000F7CF8150823108F058C0E82FF0E0E553F4
:10039000FE4F0C942E1CEB01EF01DD01E301E701A0
:1003A0001D02F201F801FC01020206020A0210021B
:1003B00014021D0218021E022202809180008F7713
:1003C000809380000895809180008F7DF9CF809187
:1003D0008000877FF5CF84B58F7784BD089584B57D
:1003E0008F7DFBCF8091B0008F778093B000089510
:1003F0008091B0008F7DF9CF809190008F778093AE
:1004000090000895809190008F7DF9CF80919000A9
:10041000877FF5CF8091A0008F778093A00008950B
:100420008091A0008F7DF9CF8091A000877FF5CFCC
:10043000809120018F778093200108958091200181
:100440008F7DF9CF80912001877FF5CFCF93DF9308
:10045000282F30E0F901E254FE4F8491F901E85869
:10046000FE4FD491F901EE5CFE4FC491CC23A1F074
:1004700081110E94C101EC2FF0E0EE0FFF1FE85E3A
:10048000FE4FA591B491EC91ED2381E090E009F449
:1004900080E0DF91CF91089580E090E0FACF1F9344
:1004A000CF93DF93282F30E0F901E254FE4F84917F
:1004B000F901E858FE4FD491F901EE5CFE4FC4916A
:1004C000CC23A9F0162F81110E94C101EC2FF0E07E
:1004D000EE0FFF1FE250FF4FA591B4918FB7F89434
:1004E000EC91111108C0D095DE23DC938FBFDF9112
:1004F000CF911F910895DE2BF8CF1F93CF93DF93F9
:10050000C1E0C0939705882399F1D091B80010916C
:10051000BA008091BC008A7B8093BC0060E084E1DB
:100520000E944F0260E085E10E944F021092DC05BC
:10053000C093DE051092DD0561E084E10E944F0268
:1005400061E085E10E944F028091B9008E7F809327
:10055000B9008091B9008D7F8093B90088E48093C1
:10056000B80085E48093BC001093BA00D093B80023
:10057000DF91CF911F910895CF93DF9390E0FC011D
:10058000E858FE4F24918E5C9E4FFC018491882395
:10059000D1F090E0880F991FFC01EC51FF4FA5911D
:1005A000B491FC01E250FF4FC591D49161110EC08E
:1005B0009FB7F8948C91E22FE0958E238C9328813D
:1005C000E223E8839FBFDF91CF9108958FB7F8941E
:1005D000EC91E22BEC938FBFF6CF90917B00977F4D
:1005E00090937B008653806480937C0080917A0096
:1005F000806480937A0080917A0086FDFCCF8091A0
:1006000078009091790008953FB7F89480916A0539
:1006100090916B05A0916C05B0916D0526B5A89BD6
:1006200005C02F3F19F00196A11DB11D3FBFBA2F84
:10063000A92F982F8827BC01CD01620F711D811D44
:10064000911D42E0660F771F881F991F4A95D1F7C9
:1006500008958F929F92AF92BF92CF92DF92EF92C6
:10066000FF926B017C010E9404034B015C01C114E9
:10067000D104E104F104B9F00E9404036819790976
:100680008A099B09683E73408105910580F321E04A
:10069000C21AD108E108F10888EE880E83E0981E9E
:1006A000A11CB11CE4CFFF90EF90DF90CF90BF90E2
:1006B000AF909F908F9008952FB7F8946091660542
:1006C0007091670580916805909169052FBF089525
:1006D0000895DB0114964D915C9115976D917C9175
:1006E000DC01ED91FC910280F381E02D0994AF9241
:1006F000BF92CF92DF92EF92FF920F931F93CF930F
:10070000DF936C017B018B01040F151FEB015E0170
:10071000AE18BF08C017D10759F06991D601ED9105
:10072000FC910190F081E02DC6010995892B79F7A4
:10073000C501DF91CF911F910F91FF90EF90DF9056
:10074000CF90BF90AF900895FC01538D448D252F1D
:1007500030E0842F90E0821B930B541710F0CF965B
:10076000089501970895FC01918D828D981761F08D
:10077000A28DAE0FBF2FB11D5D968C91928D9F5FA4
:100780009F73928F90E008958FEF9FEF0895FC0183
:10079000918D828D981731F0828DE80FF11D858D36
:1007A00090E008958FEF9FEF0895FC01918D228DC9
:1007B000892F90E0805C9F4F821B91098F7399274E
:1007C00008958EE098E00E94D50321E0892B09F47A
:1007D00020E0822F08958BEA98E00E94D50321E063
:1007E000892B09F420E0822F0895FC01A48DA80F25
:1007F000B92FB11DA35ABF4F2C91848D90E0019663
:100800008F739927848FA689B7892C93A089B18982
:100810008C91837080648C93938D848D981306C023
:100820000288F389E02D80818F7D80830895EF9287
:10083000FF920F931F93CF93DF93EC0181E0888F9A
:100840009B8D8C8D98131AC0E889F989808185FF6A
:1008500015C09FB7F894EE89FF896083E889F9890C
:1008600080818370806480839FBF81E090E0DF910E
:10087000CF911F910F91FF90EF900895F62E0B8D61
:1008800010E00F5F1F4F0F731127E02E8C8D8E111C
:100890000CC00FB607FCFACFE889F989808185FF83
:1008A000F5CFCE010E94F503F1CFEB8DEC0FFD2FBC
:1008B000F11DE35AFF4FF0829FB7F8940B8FEA893E
:1008C000FB8980818062CFCFCF93DF93EC01888D4D
:1008D0008823B9F0AA89BB89E889F9898C9185FDBB
:1008E00003C0808186FD0DC00FB607FCF7CF8C9149
:1008F00085FFF2CF808185FFEDCFCE010E94F50309
:10090000E9CFDF91CF91089580E090E0892B29F025
:100910000E94EB0381110E94000080E090E0892B8F
:1009200029F00E94E10381110E94000080E090E024
:10093000892B49F080E090E0892B29F00E9400008B
:1009400081110E94000080E090E0892B49F080E056
:1009500090E0892B29F00E94000081110C94000086
:1009600008952091E102211109C021E02093E102C4
:1009700030914809209149093CBD2DBD60E0FC0142
:1009800084810C944F0261E0FC0184810E944F023B
:100990008091E10281111092E10208958EBD000064
:1009A0000DB407FEFDCF8EB508958FEF0C94CE04E5
:1009B0000F931F93CF93DF93EC010E945C038B0195
:1009C0000E94D5048F3F69F00E945C03601B710B8D
:1009D0006C177D07A8F380E0DF91CF911F910F91F5
:1009E000089581E0F9CFCF92DF92EF92FF920F93BB
:1009F0001F93CF93DF93EC01162F69017A018E814B
:100A0000882389F08F8198859C012F5F3F4F38871D
:100A10002F838230924018F40E94D504F3CFCE0188
:100A20000E94C3041E82CE010E94B1048CE291E0B8
:100A30000E94D804812F80640E94CE0408E110E057
:100A4000D701C601002E04C0B695A7959795879546
:100A50000A94D2F70E94CE0408501109083F8FEF84
:100A6000180771F78FEF0E94CE0410E00E94D504A2
:100A70008A8787FF04C01F3F11F01F5FF7CFDF9108
:100A8000CF911F910F91FF90EF90DF90CF9008953D
:100A9000AF92BF92CF92DF92EF92FF920F931F938C
:100AA000CF93DF93EC016901C801820F931F81305E
:100AB000924050F58E81882379F088819981AA81AE
:100AC000BB8184179507A607B70731F48F819885F6
:100AD000C816D90608F042C0488359836A837B83CD
:100AE0008B85833039F089E0440F551F661F771FCF
:100AF0008A95D1F79A01AB0161E1CE010E94F3041E
:100B0000882389F083E08D83CE010E94C30480E0B6
:100B1000DF91CF911F910F91FF90EF90DF90CF90D9
:100B2000BF90AF9008950E945C035B010E94D504C2
:100B30008A878F3F69F40E945C036A197B096D32D2
:100B40007140A0F38FE08D83CE010E94C304DCCFFF
:100B50008E3F89F418861F8281E08E838F8198856D
:100B60008C159D0550F40E94D5048F8198850196BF
:100B700098878F83F3CF8DE0E6CF6701E00EF11EFB
:100B80000E94D504F60181936F01EE15FF05C1F7B0
:100B90008F819885080F191F18870F8389858823EF
:100BA00019F001151240A0F08E81882389F08F8101
:100BB00098859C012F5F3F4F38872F83823092406A
:100BC00018F40E94D504F3CFCE010E94C3041E8204
:100BD00081E09ECFCF92DF92EF92FF920F93CF935F
:100BE000DF93EC01690182E1411551056105710551
:100BF00099F08B85833039F089E0440F551F661FCB
:100C0000771F8A95D1F79A01AB0168E1CE010E9466
:100C1000F304882319F084E08D832DC08EEF0E94A9
:100C2000CE0476018EEFD81AF70181917F010E94E0
:100C3000CE04EC14FD04C1F78FEF0E94CE048FEFB9
:100C40000E94CE040E94D5048A878F71853071F48A
:100C5000011116C0CE010E94C30481E0DF91CF9143
:100C60000F91FF90EF90DF90CF90089581E18D83F9
:100C7000CE010E94C304CE010E94C30480E0EECFE7
:100C800088E592E00E94D804811102C085E1C4CFBA
:100C900020E030E0A9016DE0CE010E94F30488233A
:100CA00011F084E1B9CF0E94D5048111FACFD2CFDF
:100CB0000F934091E3025091E4026091E50270913C
:100CC000E602411551056105710589F0082F22E002
:100CD00036E090E080E00E94EA05882349F0109217
:100CE000E3021092E4021092E5021092E60281E023
:100CF0000F9108950F93CF93C82F8091E202811135
:100D000005C0C1E08C2FCF910F9108954091020250
:100D10005091030260910402709105020C2F22E0B1
:100D200036E090E080E00E94EA05811102C0C0E058
:100D3000E9CFCC2331F381E00E9458068823B9F330
:100D40001092E202DFCF8F929F92AF92BF92EF920A
:100D5000FF920F931F93CF934B015C01C42F80919F
:100D6000020290910302A0910402B091050288153D
:100D70009905AA05BB0541F181E00E947A0681111F
:100D80000BC080E0CF911F910F91FF90EF90BF902B
:100D9000AF909F908F90089582E0E82E86E0F82E25
:100DA00000E012E030E020E0B501A40190E080E036
:100DB0000E944805882329F3809202029092030240
:100DC000A0920402B09205024091E2024C2B4093A3
:100DD000E20281E0D7CF4F925F926F927F928F9223
:100DE0009F92AF92BF92CF92DF92EF92FF920F93BA
:100DF0001F93CF93DF93EC014230510561057105DC
:100E000090F480E0DF91CF911F910F91FF90EF90D0
:100E1000DF90CF90BF90AF909F908F907F906F901A
:100E20005F904F90089589859A85AB85BC85019622
:100E3000A11DB11D84179507A607B70710F3CB882E
:100E4000DC88ED88FE888F89803109F042C0BB279D
:100E5000A72F962F852F480159012A013B01C80E63
:100E6000D91EEA1EFB1E8091020290910302A091FE
:100E70000402B0910502C816D906EA06FB0699F5E8
:100E80008F898031C1F5B301A201552766277727E5
:100E9000440F551F4E5F594FFA0191828082809115
:100EA000E20281608093E2028A89823080F08D8143
:100EB0009E81AF81B8858C0D9D1DAE1DBF1D809399
:100EC000E3029093E402A093E502B093E60281E08E
:100ED00099CFDB01CA01E7E0B695A795979587956D
:100EE000EA95D1F7B8CF40E0C701B6010E94A3064A
:100EF0008111C6CF86CFB301A2014F775527662750
:100F00007727440F551F440F551F4E5F594FFA0165
:100F100080829182A282B382C2CF8F929F92AF923F
:100F2000BF92CF92DF92EF92FF920F931F93CF93D6
:100F3000DF93FC0181859285A385B4850196A11D6F
:100F4000B11D84179507A607B70770F480E0DF91FD
:100F5000CF911F910F91FF90EF90DF90CF90BF90B6
:100F6000AF909F908F90089583889488A588B688C5
:100F70008789803189F5BB27A72F962F852FE90117
:100F80006A017B018F01BC01CD01680D791D8A1DAD
:100F90009B1D8090020290900302A0900402B090EA
:100FA000050286169706A806B90601F5F801878995
:100FB000803111F5DD24EE24FF24F601EE0FFF1F32
:100FC000EE5FF94F80819181B0E0A0E08883998342
:100FD000AA83BB8381E0BBCFDB01CA01C7E0B69522
:100FE000A79597958795CA95D1F7C9CF40E00E94FC
:100FF000A3068111DBCFAACFE894C7F8DD24EE2445
:10100000FF24F601EE0FFF1FEE0FFF1FEE5FF94FFB
:1010100080819181A281B381BF70D8CF2F923F92FE
:101020004F925F926F927F928F929F92AF92BF92F8
:10103000CF92DF92EF92FF920F931F93CF93DF93A4
:10104000EC014B018D81811115C08FEF9FEFDF9176
:10105000CF911F910F91FF90EF90DF90CF90BF90B5
:10106000AF909F908F907F906F905F904F903F9048
:101070002F9008958C8180FFE8CF4B895C896D8922
:101080007E898A859B85AC85BD85412C481759078B
:101090006A077B0711F044244394512C52011E012E
:1010A00026E0220E311CA114B10409F4B1C04A8516
:1010B0005B856C857D856A0181E0D8228B8D9C8D56
:1010C0008A019B01E9E03695279517950795EA95E2
:1010D000D1F7ED81E230E1F5FC01628D738D848DF5
:1010E000958D600F711F821F931F612C22E0722E5D
:1010F0006C187D08A614B70408F435012C8126FD70
:1011000004C06114F2E07F0671F4009102021091B4
:1011100003022091040230910502061717072807E1
:10112000390709F053C040E00E94A306882309F460
:101130008CCFC6018E5F994FD4019C01260D371DBF
:10114000FC012E173F0709F45EC041914D93F9CF82
:10115000FC0174807A947022C114D10471F471106E
:101160000CC0452B462B472B39F58F89988DA98DBF
:10117000BA8D8E839F83A887B987EB8DFC8D6E8196
:101180007F8188859985625071098109910925853A
:1011900004C0660F771F881F991F2A95D2F706850E
:1011A000178520893189600F711F821F931F670D7A
:1011B000711D811D911D99CF4E815F816885798553
:1011C00091010E948D078111D8CF3FCF7401830117
:1011D0009601AB01BC0190E080E00E9448058823A5
:1011E00009F433CF860C971C8A859B85AC85BD8519
:1011F000860D971DA11DB11D8A879B87AC87BD8772
:10120000A618B70850CF281B390B820E931EECCFBF
:10121000C2011DCF8F929F92AF92BF92CF92DF9269
:10122000EF92FF920F931F93CF93DF93EC018D8189
:1012300081110EC080E0DF91CF911F910F91FF903F
:10124000EF90DF90CF90BF90AF909F908F900895D8
:101250000B891C892D893E89041715072607370736
:1012600048F34A015B01823031F48A869B86AC8662
:10127000BD8681E0E0CF81149104A104B10449F45A
:101280001E821F82188619861A861B861C861D865A
:10129000F0CF0A851B852C853D85EB8DFC8D8585E2
:1012A00090E00996B901A8014150510961097109FD
:1012B000082E04C076956795579547950A94D2F7FE
:1012C00075016401E1E0CE1AD108E108F10804C01B
:1012D000F694E794D794C7948A95D2F7C416D506A6
:1012E000E606F70620F0012B022B032B11F58F8960
:1012F000988DA98DBA8D8E839F83A887B9878E011B
:101300000A5F1F4FC114D104E104F10409F4ADCF09
:101310004E815F816885798598018B8D9C8D0E94B7
:101320008D0791E0C91AD108E108F1088111EACFCF
:1013300081CFC41AD50AE60AF70AE1CF3F924F924D
:101340005F926F927F928F929F92AF92BF92CF9255
:10135000DF92EF92FF920F931F93CF93DF93CDB75E
:10136000DEB72C970FB6F894DEBF0FBECDBF5C0181
:10137000DC015B968D909C905C9716964D905D90ED
:101380006D907C901997411451046104710409F423
:1013900068C0BFEF4B1A5B0A6B0A7B0A312CF40161
:1013A00081859285A385B4859C01AD012F5F3F4F58
:1013B0004F4F5F4F29873A874B875C8773016201E4
:1013C0001D821E821F821886F40181859285A38565
:1013D000B4852D813E814F815885281739074A07EA
:1013E0005B0708F056C089859A85AB85BC858C154E
:1013F0009D05AE05BF0550F482E0C82ED12CE12C2E
:10140000F12C92E0492E512C612C712C9E012F5F02
:101410003F4FB701A601C4010E948D078823C9F17F
:1014200089819A81AB81BC81892B8A2B8B2B09F115
:10143000260137019FEF491A590A690A790A2D8155
:101440003E814F8158852F5F3F4F4F4F5F4F2D8318
:101450003E834F8358873FEFC31AD30AE30AF30A48
:10146000B3CFF40140805180628073803324339481
:1014700096CFC414D504E604F70409F70FEF1FEF65
:101480002FEF3FE0B701A601C4010E94EB068111D6
:1014900019C080E02C960FB6F894DEBF0FBECDBF0A
:1014A000DF91CF911F910F91FF90EF90DF90CF9040
:1014B000BF90AF909F908F907F906F905F904F9074
:1014C0003F900895D50116964D915D916D917C9157
:1014D0001997411551056105710539F0970186018C
:1014E000C4010E94EB068823A1F2D5011696CD9285
:1014F000DD92ED92FC921997332051F0D701C6018D
:101500000196A11DB11DF40180839183A283B38351
:10151000F5018789908DA18DB28D892B8A2B8B2B1C
:1015200039F48481C78AD08EE18EF28E80688483FC
:10153000F50184818062848381E0ACCF1F93CF93D7
:10154000DF93FC0125812223D1F1162FEC01848148
:1015500087FF2AC0668577858089918941E00E944E
:10156000A306882361F1EA8980E2E89FF001112453
:10157000EE5FF94F309719F18D81823040F48B89FD
:101580009C89AD89BE89848F958FA68FB78F8F89EF
:10159000988D938F828F8F89988DA98DBA8DB58BF9
:1015A000A48B8C818F778C83111103C08C818F7EEB
:1015B0008C83812FDF91CF911F910C947A0680E06C
:1015C000DF91CF911F9108951F93CF93DF93EC018B
:1015D0008D81813031F090E080E0DF91CF911F91DB
:1015E00008958C8181FFF7CF82FD18C090E080E0E4
:1015F0000E94B1040E94D504182F90E080E00E9460
:10160000C3041F3F41F78C8185FF1BC060E0CE0102
:101610000E949E0A8C818F7D8C83DDCF4B895C89F3
:101620006D897E898A859B85AC85BD8584179507E4
:10163000A607B707D9F2CE010E940A098111D6CFB9
:10164000CACF4091E3025091E4026091E5027091AB
:10165000E602452B462B472B21F080E00E945806DE
:10166000BACF80618C832A853B85317080E092E01F
:10167000821B930BB2CF2F923F924F925F926F9249
:101680007F928F929F92AF92BF92CF92DF92EF9212
:10169000FF920F931F93CF93DF9300D000D01F9240
:1016A000CDB7DEB77C015B01342E5D83DC0115967E
:1016B0008C911597813009F0CCC014962C9021FEA6
:1016C000C8C022FCB2C0C32CDD8022947FE0272258
:1016D0002094B22DB1702B2ED7011A964D915D91A9
:1016E0006D917C911D97C114D10409F426C15B96BC
:1016F0008D919C915C97FC0174807A948A019B0186
:1017000069E036952795179507956A95D1F7702268
:101710008A011170711020C001151105E9F41696A7
:101720004D915D916D917C91199741155105610520
:10173000710509F097C057968D919D910D90BC91C0
:10174000A02D0097A105B10509F0AEC0C7010E9408
:101750009E09882309F47DC080E092E0801B910BF4
:1017600046018C159D0508F44C01D7015B964D91FF
:101770005C915C9716968D919D910D90BC91A02DDA
:101780000297A109B109FA01258504C0880F991FA4
:10179000AA1FBB1F2A95D2F7468557856089718994
:1017A000840F951FA61FB71F9C01AD01270D311D8A
:1017B000411D511D29013A01811432E0930609F0BF
:1017C00079C08091020290910302A0910402B0912D
:1017D000050284159505A605B70559F48FEF9FEF0F
:1017E000DC018093020290930302A0930402B09361
:1017F0000502022D9501B301A20190E080E00E9454
:10180000EA05882331F19EEFB91AC818D908F70103
:1018100082859385A485B585880D991DA11DB11D6F
:1018200082879387A487B58757CFF7014389548967
:101830006589768982859385A485B585481759077A
:101840006A077B0709F43FCFC7010E940A0981118B
:101850003ACF81E090E0D70113969C938E93129734
:1018600080E007C09E012F5F3F4F0E948D078111CE
:1018700002C090E079C089819A81AB81BC81F70177
:10188000238D348DF901278948EF5FEF60E070E028
:10189000203121F048EF5FEF6FEF7FE0841795076D
:1018A000A607B70708F052CFF70186839783A08772
:1018B000B18752CF0115110599F5D7011A964D91AF
:1018C0005D916D917C911D9753968D919D910D9099
:1018D000BC91A02D481759076A077B0708F181E0E2
:1018E0000E947A06882309F4B4CF409202025092F3
:1018F000030260920402709205028091E20281600C
:101900008093E202C8018E5F994FD5019C01280D9A
:10191000391DFC012E173F0759F04D914193FACF25
:1019200041E0C301B2010E94A3068111EBCF91CF28
:10193000281B390BA20EB31E68CFF7018389948947
:10194000A589B68984179507A607B70738F4848157
:10195000438B548B658B768B80688483F7018481FD
:1019600083FD1AC0832D9D810F900F900F900F90D3
:101970000F90DF91CF911F910F91FF90EF90DF902B
:10198000CF90BF90AF909F908F907F906F905F901F
:101990004F903F902F90089561E0C7010E949E0AEA
:1019A000882309F456CFDECFCF93DF931F92CDB7B4
:1019B000DEB7698341E050E0BE016F5F7F4F0E9458
:1019C0003B0B0F90DF91CF910895FC01818D928D9B
:1019D000009719F061E00C949E0A0895DC01599675
:1019E000ED91FC913097B9F083899489A589B689E6
:1019F0004285538564857585841B950BA60BB70BB3
:101A0000811520E89207A105B10538F08FEF9FE717
:101A1000A0E0B0E0089590E080E00895CF93DF93D8
:101A20001F92CDB7DEB7FC01818D928D009769F0D2
:101A3000BE016F5F7F4F0E940E08019731F48981CC
:101A400090E00F90DF91CF9108958FEF9FEFF9CF46
:101A5000EF92FF920F931F93CF93DF931F92CDB717
:101A6000DEB7FC01818D928D10E000E00097D1F08F
:101A70007F01BE016F5F7F4F0E940E080FEF1FEFC7
:101A8000019781F4098110E0F701818D928DFC01AD
:101A900042855385648575854150510961097109F5
:101AA0000E940A09C8010F90DF91CF911F910F91F9
:101AB000FF90EF900895DC0159968D919C910097CD
:101AC00039F0DC01ED91FC910480F581E02D099461
:101AD00090E080E00895CF93DF93EC01E98DFA8DDB
:101AE000309749F481E090E09B838A8390E080E026
:101AF000DF91CF91089513821282898D9A8D0E9471
:101B00003B0BE98DFA8D22813381232B59F7F0CFDE
:101B1000CF93DF931F92CDB7DEB76983DC01ED91E0
:101B2000FC910280F381E02D41E050E0BE016F5F47
:101B30007F4F09950F90DF91CF910895CF92DF925B
:101B4000EF92FF920F931F93CF93DF93FC01C48119
:101B500021E020939005C093E00210928E05109230
:101B60008F058485682B82E098E00E949201D091D5
:101B70008F05D13208F092C00E9404036B017C01F2
:101B80008091DC05811165C082E08093DC0581E0F5
:101B90008093DE058FEF8093DB0510920006D093D3
:101BA000FF05AEE6B5E0EFEDF5E080E0D81385C0C7
:101BB0001092010680910106CC0FC82BC09301063C
:101BC0008091DD05813009F07CC01092DD050E9416
:101BD00004036B017C01809101068093BB0080911E
:101BE000930590919405A0919505B0919605892B48
:101BF0008A2B8B2B99F00E9404030091930510917E
:101C0000940520919505309196056C197D098E09F2
:101C10009F090617170728073907E0F18091BC00D4
:101C200083FDD9CF85EC8093BC000E9404036B0137
:101C30007C018091DC05823009F445C08091DB0590
:101C40008F3F61F18091DB05803241F18091DB05AE
:101C500025C08091930590919405A0919505B09130
:101C60009605892B8A2B8B2B09F48ACF0E940403BB
:101C7000009193051091940520919505309196055A
:101C80006C197D098E099F09061717072807390760
:101C900008F076CF809192050E947D0210928E0509
:101CA00010928F0510929005DF91CF911F910F91A7
:101CB000FF90EF90DF90CF9008959D9191938F5F6B
:101CC00075CF85EEB0CF8091930590919405A0914A
:101CD0009505B0919605892B8A2B8B2B09F4A9CFFA
:101CE0000E9404030091930510919405209195059D
:101CF000309196056C197D098E099F090617170703
:101D00002807390708F095CFC5CF28E0FC012487C4
:101D100060E00C949E0D86E30E94ED02853F9140A9
:101D200074F487E30E94ED02853F914054F488E308
:101D30000E94ED02853F914034F480E0089581E0F7
:101D4000089582E0089583E008952091B50930E078
:101D500045E053E090E080E08217930790F44D5EF9
:101D60005F4FFA013497608171816230710539F4F7
:101D700060E08091A1090E944F0281E008950196E0
:101D8000EBCF60E080919F090E944F0282E00895AE
:101D900090E080E008950F931F93CF938C01C62F9E
:101DA0000E949E0D6C2F6460C8010E949E0D6C2FD6
:101DB0006B7FC8010E949E0D83EC90E00197F1F7C4
:101DC000CF911F910F9108950F931F93CF93DF939E
:101DD0008C01D62FC42F607F642B0E94CB0E80E134
:101DE000D89FB00111246C2BC801DF91CF911F91B6
:101DF0000F910C94CB0E41E00E94E40E81E090E044
:101E00000895FC016681262F246026836C6040E0E3
:101E10000C94E40ECF93DF93CDB7DEB728970FB6BF
:101E2000F894DEBF0FBECDBF28E0ECE0F2E0DE01AB
:101E3000119601900D922A95E1F7FC012085241757
:101E400010F44FEF420F50E0440F551F21E030E0F7
:101E50002C0F3D1F420F531FFA012081620F606853
:101E600040E028960FB6F894DEBF0FBECDBFDF91DD
:101E7000CF910C94E40ECF93DF93EC0140E061E04E
:101E80000E94E40E8BE39FE10197F1F78985882397
:101E900039F040E060E0CE01DF91CF910C940A0F61
:101EA000DF91CF91089585ED8093BC0080919305DB
:101EB00090919405A0919505B09196050796A11D66
:101EC000B11D23E0B695A795979587952A95D1F7EB
:101ED0002091BC0024FD03C01092DC0508954091C0
:101EE0009305509194056091950570919605452B49
:101EF000462B472B69F30097A105B10541F02AE273
:101F00002A95F1F700C00197A109B109E1CF8091AD
:101F100092050C947D02CF93DF93EC018881998127
:101F2000009711F00E94E71C198218821D821C8202
:101F30001B821A82DF91CF910895FC0180819181EB
:101F4000009711F00C94E71C0895FB01019000200C
:101F5000E9F73197AF01461B570BDC01ED91FC917E
:101F60000280F381E02D09940F931F93CF93DF93A9
:101F7000EC0188819981009759F02A813B812617CD
:101F8000370730F081E0DF91CF911F910F910895D5
:101F90008B016F5F7F4F0E94701D009759F09983EE
:101FA00088831B830A832C813D81232B59F7FC01F5
:101FB0001082E8CF80E0E7CFEF92FF920F931F935C
:101FC000CF93DF936115710541F480E0DF91CF91EC
:101FD0001F910F91FF90EF90089541155105B1F0B9
:101FE0007B01EC010C811D81040F151FB8010E94BB
:101FF000B40F882351F3288139818C819D81B701E9
:10200000820F931F0E945A1E1D830C8381E0DECF36
:10201000EF92FF920F931F93CF93DF93EC017B011D
:102020008A01BA010E94B40F81110BC0CE010E9437
:102030008B0FCE01DF91CF911F910F91FF90EF9009
:1020400008951D830C83B701888199810E945A1ECF
:10205000F0CFFB0101900020E9F73197AF01461B5B
:10206000570B0C9408100F931F93CF93DF93CDB7AA
:10207000DEB729970FB6F894DEBF0FBECDBF8C0137
:10208000862FF80111821082138212821582148227
:102090004AE0BE016F5F7F4F90E00E94F01BBE01DF
:1020A0006F5F7F4FC8010E94291029960FB6F894E0
:1020B000DEBF0FBECDBFDF91CF911F910F9108956D
:1020C000FC01118210821382128215821482611522
:1020D000710551F0FB0101900020E9F73197AF0144
:1020E000461B570B0C94081008951F920F920FB6C1
:1020F0000F9211240BB60F922F933F934F935F9340
:102100006F937F938F939F93AF93BF93EF93FF93BF
:102110008091B900887F803609F44DC008F040C036
:10212000883209F4A7C028F5803109F49BC0C8F4AF
:10213000882309F4F7C0883009F494C0FF91EF9127
:10214000BF91AF919F918F917F916F915F914F91CF
:102150003F912F910F900BBE0F900FBE0F901F90CD
:102160001895883109F486C0803241F78093DB05E9
:1021700014C0803409F49BC040F48033B9F3883331
:10218000E9F68093DB0585ECAEC0803509F483C0A9
:10219000883509F494C0883489F60E94530FCECF55
:1021A000883909F48AC038F5883729F050F4883620
:1021B00011F0803719F683E08093DC051092DA0580
:1021C00055C0883809F479C0803919F0803809F091
:1021D000B5CF8091DA05803208F06FC0E091DA0562
:1021E00081E08E0F8093DA058091BB00F0E0E65429
:1021F000FA4F80833BC0803B39F0D0F4803A09F439
:1022000077C0883A09F09ACF84E08093DC05109279
:10221000B9051092B805F0E0E0E009958091B805A5
:1022200081110FC081E08093B8051092980509C014
:10223000803C09F4A8CF883C09F4A5CF883B09F07D
:102240007DCFE091B90581E08E0F8093B905F0E074
:10225000E856FA4F80818093BB009091B905809138
:10226000B80529C0809101068093BB0085EC80935E
:10227000BC0064CF909100068091FF05981758F537
:10228000E091000681E08E0F80930006F0E0E152BD
:10229000FA4F8081E9CFE091000681E08E0F8093B4
:1022A00000068091BB00F0E0E152FA4F80839091EC
:1022B00000068091FF059817C8F285E8D8CFE09115
:1022C000000681E08E0F809300068091BB00F0E055
:1022D000E152FA4F80838091DE0581115ECF81E06B
:1022E0008093DD0584EA8093BC001092DC0526CF44
:1022F00085EC8093BC001092DC058091DA05803279
:1023000030F4E091DA05F0E0E654FA4F1082609183
:10231000DA0570E08AEB95E0F0E0E0E009951092D4
:10232000DA050CCF1092DB0538CF1F920F920FB653
:102330000F9211242F933F938F939F93AF93BF934B
:102340008091660590916705A0916805B091690537
:102350003091650523E0230F2D3758F50196A11D17
:10236000B11D209365058093660590936705A09342
:102370006805B093690580916A0590916B05A091FD
:102380006C05B0916D050196A11DB11D80936A0584
:1023900090936B05A0936C05B0936D05BF91AF91C1
:1023A0009F918F913F912F910F900FBE0F901F9093
:1023B000189526E8230F0296A11DB11DD2CF1F92BA
:1023C0000F920FB60F9211240BB60F922F933F93DB
:1023D0004F935F936F937F938F939F93AF93BF932D
:1023E000EF93FF938EE098E00E94F503FF91EF9149
:1023F000BF91AF919F918F917F916F915F914F911D
:102400003F912F910F900BBE0F900FBE0F901F901A
:1024100018951F920F920FB60F9211240BB60F92C0
:102420002F938F939F93EF93FF93E0911E08F0916A
:102430001F088081E0912408F091250882FD1DC0CD
:102440009081809127088F5F8F73209128088217D1
:1024500041F0E0912708F0E0E25FF74F958F80931D
:102460002708FF91EF919F918F912F910F900BBEB5
:102470000F900FBE0F901F9018958081F2CF1F9282
:102480000F920FB60F9211240BB60F922F933F931A
:102490004F935F936F937F938F939F93AF93BF936C
:1024A000EF93FF938BEA98E00E94F503FF91EF9181
:1024B000BF91AF919F918F917F916F915F914F915C
:1024C0003F912F910F900BBE0F900FBE0F901F905A
:1024D00018951F920F920FB60F9211240BB60F9200
:1024E0002F938F939F93EF93FF93E091BB08F0910D
:1024F000BC088081E091C108F091C20882FD1DC036
:1025000090818091C4088F5F8F732091C5088217D6
:1025100041F0E091C408F0E0E555F74F958F8093C6
:10252000C408FF91EF919F918F912F910F900BBE57
:102530000F900FBE0F901F9018958081F2CFCF9211
:10254000DF92EF92FF92CF93DF93E2E0F8E0138205
:10255000128288EEC82E83E0D82EE12CF12CC482A2
:10256000D582E682F7828EE392E091838083EEE06B
:10257000F8E013821282C482D582E682F78280E577
:1025800092E0918380832DEC30E0358724872CEC1A
:1025900030E03787268728EC30E0318B208B29EC20
:1025A00030E0338B228B2AEC30E0358B248B2EEC01
:1025B00030E0378B268B118E128E138E148EEBEA41
:1025C000F8E013821282C482D582E682F782918378
:1025D000808385EC90E09587848784EC90E09787F2
:1025E000868780EC90E0918B808B81EC90E0938BE0
:1025F000828B82EC90E0958B848B86EC90E0978BBD
:10260000868B118E128E138E148EE8E4F9E080E52D
:1026100080831182EAE4F9E015821682118613861E
:1026200082E090E0A0E0B0E084879587A687B78736
:1026300013A215A614A682E692E093A782A717A676
:102640006EEC72E080EF99E00E9460106EEC72E038
:1026500086EF99E00E9460106EEC72E08CEF99E0DA
:102660000E9460106EEC72E082E09AE00E946010BE
:10267000CFEED9E08EE591E09C8F8B8F68E872E019
:1026800080EF99E00E94291062E972E086EF99E0FC
:102690000E9429106FE972E08CEF99E00E942910E6
:1026A00018821A8E198EE4EDF9E013821282C48228
:1026B000D582E682F7828AE792E091838083128E48
:1026C000118E14866EEC72E086EC99E00E94601028
:1026D000E2EBF9E084E6828F138E6EEC72E08EEC12
:1026E00099E00E946010E5EAF9E0138212828EE61A
:1026F00092E091838083118687E2848384E18287DC
:1027000084E08387148686E0E4E1F2E0ADE9B9E095
:1027100001900D928A95E1F7E3E9F9E0108288EEE5
:1027200093E0928381839483838315821682178238
:1027300010861186DF91CF91FF90EF90DF90CF90C0
:102740000895CF93DF93CDB7DEB7C455D1090FB647
:10275000F894DEBF0FBECDBF789484B5826084BD8F
:1027600084B5816084BD85B5826085BD85B5816095
:1027700085BD80916E00816080936E001092810013
:1027800080918100826080938100809181008160CE
:10279000809381008091800081608093800080918F
:1027A000B10084608093B1008091B000816080931B
:1027B000B00080919100826080939100809191009F
:1027C000816080939100809190008160809390005F
:1027D0008091A10082608093A1008091A10081601E
:1027E0008093A1008091A00081608093A0008091DF
:1027F0002101826080932101809121018160809379
:1028000021018091200181608093200180917A00D4
:10281000846080937A0080917A00826080937A004D
:1028200080917A00816080937A0080917A0080683C
:1028300080937A001092C100E0911E08F0911F0869
:1028400082E0F82EF082E0911A08F0911B0881E0F6
:102850008083E0911C08F0911D0880EA808310922B
:102860002608E0912208F091230896E09083E091F9
:102870002008F0912108808180618083E091200808
:10288000F0912108808188608083E0912008F09198
:102890002108808180688083E0912008F0912108E0
:1028A00080818F7D8083E091BB08F091BC08F0822D
:1028B000E091B708F091B8081082E091B908F09162
:1028C000BA088FEC80831092C308E091BF08F091A2
:1028D000C0089083E091BD08F091BE0880818061BE
:1028E0008083E091BD08F091BE088081886080837C
:1028F000E091BD08F091BE08808180688083E091FE
:10290000BD08F091BE0880818F7D80838091AA09E7
:1029100088608093AA0994E0E92EE092AD0962E311
:1029200070E080E090E00E9429036091B10985EA9F
:1029300099E00E949E0D68EE73E080E090E00E94B6
:10294000290360E385EA99E00E94CB0E0BE416E4CC
:10295000C8010197F1F760E385EA99E00E94CB0E88
:10296000C8010197F1F760E385EA99E00E94CB0E78
:1029700083E592E00197F1F760E285EA99E00E9431
:10298000CB0E6091AA09606240E085EA99E00E945E
:10299000E40EE092AB0985EA99E00E94010F85EA16
:1029A00099E00E943B0FF092AC0940E066E085EAB6
:1029B00099E00E94E40E40E062E085EA99E00E941E
:1029C000E40E8BE39FE10197F1F785EA99E00E941D
:1029D000850E61E080919D090E94BC0261E08091BA
:1029E0009F090E94BC0261E08091A1090E94BC0283
:1029F0001092CD091092B5091092B40962EB72E001
:102A000086EC99E00E9429101092C3091092C20925
:102A100085EA99E09093B3098093B20988E99AE333
:102A2000A0E0B0E08093BE099093BF09A093C009D5
:102A3000B093C10961E080919D090E944F0264EC4E
:102A400079E080E090E00E9429032AE1C22E22E092
:102A5000D22E35E0E32E33E0F32E10E000E043E029
:102A6000A42EB12C88248394912C8091CA09909132
:102A7000CB098017910780F160E080919D090E9449
:102A80004F0261E080919F090E944F0241E065E0A2
:102A9000600F85EA99E00E940A0F8091CA0990911F
:102AA000CB090817190738F4E091C609F091C70956
:102AB000309709F0FBC01092E702E7EEF2E041E048
:102AC000608185EA99E00E94E40E6091CC0970E093
:102AD00090E080E00E94290360E080919F090E94BD
:102AE0004F02F60181916F01F701828313861486EC
:102AF000158616861782108611861286B08AA786DA
:102B0000928A818A1092BA091092BB091092BC096C
:102B10001092BD0960E00E94BC0261E08091A109B1
:102B20000E944F0264E670E080E090E00E9429037A
:102B300060E08091A1090E944F020F5F1F4FF3E1F7
:102B4000EF0EF11C0032110509F08FCF61E089E32F
:102B50000E94BC0260E088E30E94BC0260E087E360
:102B60000E94BC0260E086E30E94BC020E945C03FB
:102B70006093B6097093B7098093B8099093B90927
:102B8000E5E0F3E030E020E0A3E0EA2EF12CB6E04F
:102B9000CB2ED12C88248394912C02E0A02EB12C32
:102BA000C901B7010E941A1C8C016183C901B601D9
:102BB0000E941A1C80830115110509F07AC0108A41
:102BC00017862F5F3F4F73962032310549F780916A
:102BD000C4099091C509891741F08093C509809176
:102BE000B2099091B3090E943B0F6EEB72E08BEA41
:102BF00098E00E94A50F6CEC72E08BEA98E00E94CE
:102C0000A50F22242394312C8E01095C1F4F809143
:102C1000CD09882309F4B3C00E948B0EF090000206
:102C2000813009F04FC0FF2051F08091E8028111FE
:102C300006C083E090E09093090A8093080A1092FE
:102C4000000281E08093E802E0EFCE2EE9E0DE2E84
:102C5000F12CE12C4E2D60E085EA99E00E940A0FEC
:102C6000B60185EA99E00E9469034E2D62E185EA8A
:102C700099E00E940A0F8091EF09082E000C990B31
:102C80006FEA72E08E159F0511F06CEA72E085EA3A
:102C900099E00E94A50F4FEFE41AF40A56E0C50E22
:102CA000D11C84E0E816F104A9F696C0E00FF11FEC
:102CB00006CF0130110519F4B08AA78682CF908A19
:102CC00087867FCF0E948B0E833099F4FF2009F412
:102CD000B6CF8091E8028111B2CF8091E9028111D3
:102CE000AECF81E08093E9023092090A2092080A6F
:102CF000A6CF0E948B0E823051F4FF2009F49FCFA3
:102D00008091E80281119BCF84E090E094CFF11094
:102D100009C08091E802882329F081E080930002B5
:102D20001092E8028091080A9091090A8430910576
:102D300001F58091EF09815083301CF48093EF09F5
:102D400002C01092EF098091EF098F3F19F482E0E1
:102D50008093EF090E945C036093EB027093EC0296
:102D60008093ED029093EE021092090A1092080AE5
:102D70006BCF039779F78091EF098F5FDDCF0E94CA
:102D80008B0E813009F015C10E945C03C090EB02EC
:102D9000D090EC02E090ED02F090EE02AB01BC01AD
:102DA0004C195D096E097F0980910A0A90910B0AFE
:102DB000092E000CAA0BBB0B84179507A607B707B3
:102DC00008F410C10E945C036093B6097093B709C0
:102DD0008093B8099093B90975E0E72E73E0F72E58
:102DE000F70182810E942602019709F00CC18091AF
:102DF000B4098F5F8093B409F701128A118A0E9487
:102E00005C036093B6097093B7098093B8099093F7
:102E1000B909F3E1EF0EF11C25E6E21625E0F20612
:102E2000F9F60E945C038090B6099090B709A090D3
:102E3000B809B090B909681979098A099B096093A2
:102E4000BA097093BB098093BC099093BD09809027
:102E5000B5096EEC72E0CE01875B9F4F0E94601057
:102E600045E0C42E43E0D42EB12CA12C912C5DE280
:102E7000752E6EE2662EA814B90408F0D6C0F601CD
:102E8000878590898130910509F4C1C008F4C6C0D6
:102E9000029731F446EA52E065965FAF4EAF659710
:102EA00065966EAD7FAD6597CE018D5B9F4F0E949D
:102EB0006010F6016181CE01CD960E943310F601BB
:102EC0006281CE0101960E94331018AE1FAA1AAE7D
:102ED00019AE1CAE1BAE69817A816115710529F0AE
:102EE0004D815E81C8010E94081060967FAE609798
:102EF00061961FAE619741E050E0BE01615B7F4F7C
:102F0000C8010E94DC0F811103C0C8010E948B0F11
:102F100023964EAD5FAD23976DAD7EADC8010E9487
:102F2000DC0F811103C0C8010E948B0F29964EADA2
:102F30005FAD299725966EAD7FAD2597C8010E949C
:102F4000DC0F811103C0C8010E948B0F60966FAE29
:102F5000609761961FAE619741E050E0BE01615BF2
:102F60007F4FC8010E94DC0F811103C0C8010E947D
:102F70008B0F4BAD5CAD6FA978ADCE01875B9F4FDA
:102F80000E94DC0FC8010E949D0FCE0101960E9495
:102F90009D0FCE01CD960E949D0FCE018D5B9F4F60
:102FA0000E949D0FFFEFAF1ABF0A23E1C20ED11C92
:102FB00062CF0E948B0E823009F4E6CE8091EA0245
:102FC0008823A1F01092EA0281E08093CD090E944B
:102FD0005C036093EB027093EC028093ED0290939C
:102FE000EE02FACE81E08093EA02ECCE0E945C030E
:102FF0006093EB027093EC028093ED029093EE02EB
:103000001092CD09E9CEF701328A218A02CF8AEAED
:1030100092E065969FAF8EAF659742CFE8EAF2E007
:103020006596FFAFEEAF65973BCF2B966EAD7FAD4C
:103030002B976115710509F47AC02F964EAD5FADDF
:103040002F978EEC99E00E940810CE01875B9F4F6E
:103050000E949D0F8091C2099091C309029709F4C3
:1030600080C09091B5098091EF02981709F479C05A
:1030700035E0C32E33E0D32E812C912C5401F60180
:1030800081899289892B09F057C0C501B4010E943A
:1030900029030E945C03F601478050846184728496
:1030A00064197509860997096387748785879687E8
:1030B000F3E1CF0ED11C22E0820E911CA11CB11CA9
:1030C00040E484169104A104B104C9F685E093E0BC
:1030D0009C0155E022353507D9F1FC0183849484A5
:1030E000A584B684F901468D578D60A171A184161F
:1030F0009506A606B706C0F443E17396DE01119665
:1031000001900D924A95E1F743E1FC01D9015396F4
:1031100001900D924A95E1F743E1FE013196DC0101
:1031200001900D924A95E1F72D5E3F4FD2CF8EEC84
:1031300099E00E948B0F89CF0E945C03F6016783A0
:103140007087818792871386148615861686B0CF7E
:103150004396E816F90609F0BBCF8091B509809334
:10316000EF024091BA095091BB096091BC0970917E
:10317000BD098091BE099091BF09A091C009B0918D
:10318000C109481759076A077B0708F46AC01092FB
:10319000CD0982E090E09093C3098093C2098091A9
:1031A000C4099091C509891741F08093C5098091A0
:1031B000B2099091B3090E943B0F8091B4098093AA
:1031C000B5091092B4098091C2099091C309823067
:1031D000910509F4A8C008F09DC0009709F4CBC080
:1031E000019709F4B8C08091B5099091B409981776
:1031F00071F08111ECC061ED72E08BEA98E00E9401
:10320000A50F6CEC72E08BEA98E00E94A50F80910C
:10321000B50981119BC160E080919F090E944F0216
:1032200060E08091A1090E944F0261E089E30E9461
:10323000BC0260E089E30E944F0280910102882372
:1032400009F4ABC2109201020E945C036093F40285
:103250007093F5028093F6029093F7020E94840423
:10326000D6CC8091CD09882369F00E945C036093DD
:10327000B6097093B7098093B8099093B90983E0B0
:1032800090E089CF9091B509911105C01092C309C2
:103290001092C20984CF8091B4099817B1F120919E
:1032A000C2093091C3092130310579F58E3068F5B6
:1032B00084E090E09093C3098093C209F12CE12C43
:1032C0004F2D6E2D8091B2099091B3090E940A0F83
:1032D0006FEC72E08091B2099091B3090E94A50F42
:1032E00062E070E080E090E00E942903E394F4E162
:1032F000EF12E6CF65E070E080E090E00E942903E5
:10330000F39424E0F212DBCF4ACF3092C30920922B
:10331000C20945CF8330910509F44BC0049709F0E9
:1033200062CF85E025C08091B2099091B309FC017C
:10333000148660E00E949E0D8091B2099091B309BD
:10334000FC0166816B7F6683686040E00E94E40E4A
:103350001092C40948CF8091B2099091B3090E949C
:10336000010F8091B2099091B3090E94850E81E00E
:103370008093C40938CF41E065E08091B209909113
:10338000B3090E940A0F8091B2099091B3090E947B
:10339000010F8091B2099091B3090E94850E66ECED
:1033A00079E08091B2099091B3090E94690382E0AB
:1033B000DFCF8091B2099091B3090E94010F8091F3
:1033C000B2099091B3090E94850E84E0D1CFAE017D
:1033D0004F5F5F4F5A017A0163965FAF4EAF6397BD
:1033E0006EEC72E0C7010E94601056E0E50EF11C21
:1033F0000E151F05A9F7750190E080E02091D20914
:103400003091D309FC0174964F018217930708F09D
:1034100054C02F013C01E817F90710F03F012C01BF
:103420006EEC72E0C8010E946010C090D209D0908A
:10343000D3094C145D0408F56C147D0408F4630191
:10344000E091CE09F091CF09EC0DFD1D7080108246
:103450006091CE097091CF09640D751DC801611589
:10346000710509F45CC00E9429108091CE099091E9
:10347000CF09C80ED91EF6017082F70180819181B3
:10348000009709F451C06FA978AD6115710509F471
:1034900049C0428153812BAD3CAD4217530708F41C
:1034A00041C00E945A1E8BAD9CADF7019583848369
:1034B0001CAE1BAEC8010E949D0FC401F6E0EF0ECA
:1034C000F11C843B910509F099CFF12CE12C24E00B
:1034D000E216F10458F44E2D60E085EA99E00E946E
:1034E0000A0FB50185EA99E00E9469034FEFE41ADB
:1034F000F40A56E0A50EB11C89E0E816F10439F78C
:10350000780196E0E91AF108C7010E949D0F6396C1
:10351000EEADFFAD6397EE15FF0599F778CE0E94EB
:103520008B0FA3CF0E94E71C8FA998ADF701918361
:10353000808389AD9AAD938382838BAD9CAD958357
:10354000848318AE1FAA1AAE19AEB2CF0E945C03D4
:10355000C090F002D090F102E090F202F090F302FD
:103560006C197D098E099F09643F714081059105A1
:1035700008F463CE0E94A50EE82FF0E0EE0FFF1FC7
:10358000E356F64F80810E94260261E0019709F020
:10359000FFC089E30E94BC02E7EFF1E0E491E15053
:1035A000E23108F0F0C0F0E0E852F54E0C942E1C29
:1035B000EA1A161B1C1B281B341BC31B401B491B70
:1035C000521B5E1B6A1B761B871B931BC31B9F1B17
:1035D000AB1BB71B84B5806884BD88EC87BD0E9497
:1035E000A50EE82FF0E0EE0FFF1FE356F64F8081A7
:1035F0000E9426027C010E94A50E61E0EA94EF2859
:1036000009F460E0E82FF0E0EE0FFF1FE356F64FFD
:1036100080810E944F020E945C036093F0027093CD
:10362000F1028093F2029093F30207CE84B5806298
:1036300084BD88EC88BDD3CF809180008068809362
:10364000800088EC90E09093890080938800C7CF39
:103650008091800080628093800088EC90E090935D
:103660008B0080938A00BBCF80918000886080931C
:10367000800088EC90E090938D0080938C00AFCF19
:103680008091B00080688093B00088EC8093B30094
:10369000A6CF8091B00080628093B00088EC8093C8
:1036A000B4009DCF8091900080688093900088EC5A
:1036B00090E0909399008093980091CF8091900032
:1036C00080628093900088EC90E090939B008093C0
:1036D0009A0085CF8091900088608093900088EC5C
:1036E00090E090939D0080939C0079CF8091A00002
:1036F00080688093A0008091A0008F7B8093A000C1
:1037000088EC90E09093A9008093A80068CF809106
:10371000A00080628093A00088EC90E09093AB00C2
:103720008093AA005CCF8091A00088608093A00065
:1037300088EC90E09093AD008093AC0050CF8091E6
:10374000200180688093200188EC90E0909329010B
:103750008093280144CF80912001806280932001D2
:1037600088EC90E090932B0180932A0138CF8091D0
:10377000200188608093200188EC90E090932D01D7
:1037800080932C012CCF61E089E30E944F0227CF68
:1037900089E30E94BC0260E0F7CF81E080930102E0
:1037A0000E945C038091F402681B6093040356CD71
:1037B0008EEC99E00E949D0F86EC99E00E949D0F8F
:1037C00082E09AE00E949D0F8CEF99E00E949D0F8D
:1037D00086EF99E00E949D0F80EF99E00C949D0F79
:1037E000BB27FB015527AA27880F991FAA1FA417DB
:1037F00010F0A41B83955051B9F7A05DAA3308F0CF
:10380000A95DA193009779F7B111B1931192CB0102
:103810000C940A1CDC01FC01672F71917723E1F7FE
:10382000329704C07C916D9370836291AE17BF078D
:10383000C8F3089597FB072E16F4009407D077FD80
:1038400009D00E94371C07FC05D03EF49095819565
:103850009F4F0895709561957F4F0895EE0FFF1F5C
:103860000024001C0BBE0790F691E02D0994AA1BC2
:10387000BB1B51E107C0AA1FBB1FA617B70710F05B
:10388000A61BB70B881F991F5A95A9F7809590958D
:10389000BC01CD0108950F931F93CF93DF93823026
:1038A000910510F482E090E0E0910E0AF0910F0A89
:1038B00030E020E0B0E0A0E0309799F42115310528
:1038C00009F44AC0281B390B24303105D8F58A8108
:1038D0009B816115710589F1FB0193838283FE0150
:1038E00011C0408151810281138148175907E0F0CE
:1038F0004817590799F4109761F012960C93129794
:1039000013961C933296CF01DF91CF911F910F91A7
:10391000089500930E0A10930F0AF4CF2115310574
:1039200051F04217530738F0A901DB019A01BD019C
:10393000DF01F801C1CFEF01F9CF90930F0A809317
:103940000E0ACDCFFE01E20FF31F81939193225017
:10395000310939832883D7CF20910C0A30910D0A81
:10396000232B41F4209108023091090230930D0A73
:1039700020930C0A2091060230910702211531058F
:1039800041F42DB73EB740910A0250910B02241B1F
:10399000350BE0910C0AF0910D0AE217F307A0F441
:1039A0002E1B3F0B2817390778F0AC014E5F5F4F95
:1039B0002417350748F04E0F5F1F50930D0A4093B0
:1039C0000C0A819391939FCFF0E0E0E09CCFCF93DE
:1039D000DF930097E9F0FC01329713821282A091E5
:1039E0000E0AB0910F0AED0130E020E01097A1F42B
:1039F00020813181820F931F20910C0A30910D0A92
:103A00002817390709F061C0F0930D0AE0930C0AFA
:103A1000DF91CF910895EA01CE17DF07E8F54A81DB
:103A20005B819E0141155105B1F7E901FB83EA83F2
:103A300049915991C40FD51FEC17FD0761F480819E
:103A400091810296840F951FE90199838883828171
:103A500093819B838A83F0E0E0E012968D919C91A4
:103A600013970097B9F52D913C911197CD010296CE
:103A7000820F931F20910C0A30910D0A28173907E5
:103A800039F6309751F510920F0A10920E0AB09342
:103A90000D0AA0930C0ABCCFD383C283408151810D
:103AA000840F951FC817D90761F44E5F5F4F888157
:103AB0009981480F591F518340838A819B81938349
:103AC00082832115310509F0B0CFF0930F0AE093FE
:103AD0000E0A9ECFFD01DC01C0CF13821282D7CF28
:103AE0004F925F926F927F928F929F92AF92BF920E
:103AF000CF92DF92EF92FF920F931F93CF93DF93BA
:103B00008C01009799F4CB01DF91CF911F910F9118
:103B1000FF90EF90DF90CF90BF90AF909F908F90ED
:103B20007F906F905F904F900C944B1CFC01E60FC0
:103B3000F71F9C0122503109E217F30708F4AEC0C9
:103B4000D901CD91DC911197C617D70720F1C53067
:103B5000D10578F0CE0104978617970750F0C61B61
:103B6000D70B2297C193D1936D937C93CF010E9481
:103B7000E71CC801DF91CF911F910F91FF90EF904B
:103B8000DF90CF90BF90AF909F908F907F906F907D
:103B90005F904F9008955B01AC1ABD0A4C018C0EEA
:103BA0009D1EA0910E0AB0910F0A512C412CF12CB0
:103BB000E12C109731F580910C0A90910D0A88152F
:103BC000990509F05CC04616570608F058C0809168
:103BD000060290910702009741F48DB79EB740917D
:103BE0000A0250910B02841B950BE817F90708F0A5
:103BF00055C0F0930D0AE0930C0AF90171836083BC
:103C0000B8CF8D919C91119712966C901297139644
:103C10007C901397A815B90559F56C0142E0C40EC4
:103C2000D11CCA14DB0420F1AC014A195B09DA018A
:103C30001296159780F06282738251834083D90176
:103C40006D937C93E114F10471F0D7011396FC930A
:103C5000EE9312978ECF22968C0F9D1FF9019183C0
:103C60008083F301EFCFF0930F0AE0930E0A81CF28
:103C70004816590608F42C017D01D3019ACFCB01D7
:103C80000E944B1C7C01009749F0AE01B8010E94D4
:103C9000511EC8010E94E71C87016BCF10E000E0B5
:103CA00068CFFB01DC0102C001900D9241505040F1
:103CB000D8F70895FB01DC0101900D920020E1F797
:103CC000089511E0C3E0D1E004C0FE010E942E1C63
:0C3CD0002196C430D107C9F7F894FFCF4B
:103CDC000101FFFFFFFF0000100A80000000400000
:103CEC00140054000C000B000D00161718191A1BA9
:103CFC001C1D1E1F202122232425262728292A2B80
:103D0C002C2D2E2F3031323334350000000092012F
:103D1C006501C80E57015E015B01580100000000EF
:103D2C0017047703A4036404D503B303C70300008B
:103D3C000000D40C7703E40A680300000000FB0EBB
:103D4C007703C80E680300000000880D6B0D5B0D37
:103D5C00E50CEE0C0E0D280D4556454E54204C4FDF
:103D6C00470053657474696E672062656570005214
:103D7C00657475726E004300450050002020003CB5
:103D8C003C00274D5A4B2D2D544543482700446584
:103D9C006576696365205265616479000D0A002AB5
:103DAC00003E3E2D2D206E6F20427574746F6E0098
:00000001FF
