:100000000C9421060C944B060C944B060C944B0656
:100010000C944B060C944B060C944B060C944B061C
:100020000C944B060C944B060C944B060C944B060C
:100030000C944B060C944B060C944B060C944B06FC
:100040000C944B060C944B060C944B060C944B06EC
:100050000C944B060C944B060C944B060C94FE3FF0
:100060000C944B060C94D2400C94A8400C944B0674
:100070000C944B060C944B060C944B060C944B06BC
:100080000C944B060C944B060C944B060C944B06AC
:100090000C9472400C9448400C944B060C94DE3E39
:1000A0000C944B060C944B060C944B060C944B068C
:1000B0000C944B060C944B060C944B060C944B067C
:1000C0000C944B060C944B060C944B060C944B066C
:1000D0000C944B060C944B060C944B060C944B065C
:1000E0000C944B065B5D0053443A20726561647961
:1000F0000053443A20696E6974206661696C6564D6
:10010000000A5D002C0A2020000A5D000A20200061
:100110000A5D005B0A20200053443A206F70656E30
:10012000206C6F67206661696C6564002F6D717467
:1001300074003C703E3C736D616C6C3E636F6E6628
:10014000696775726174696F6E206F6E6C79202DAE
:10015000207075626C697368696E67206E6F7420B9
:100160007965742077697265642E3C2F736D616CBC
:100170006C3E3C2F703E003C627574746F6E207450
:100180007970653D7375626D69743E536176653C47
:100190002F627574746F6E3E3C2F666F726D3E00F9
:1001A000273E3C2F6C6162656C3E003C6C61626571
:1001B0006C3E757365723C696E707574206E616D0E
:1001C000653D75736572206D61786C656E677468E6
:1001D0003D32332076616C75653D2700273E3C2F0C
:1001E0006C6162656C3E003C6C6162656C3E746F74
:1001F0007069633C696E707574206E616D653D74E5
:100200006F706963206D61786C656E6774683D33EB
:10021000312076616C75653D27003E3C2F6C616234
:10022000656C3E003C6C6162656C3E706F72743C44
:10023000696E70757420747970653D6E756D626558
:1002400072206D696E3D31206D61783D36353533F4
:1002500035206E616D653D706F72742076616C75CE
:10026000653D00273E3C2F6C6162656C3E003C6C36
:100270006162656C3E686F73743C696E7075742062
:100280006E616D653D686F7374206D61786C656E2D
:100290006774683D33312076616C75653D27003E9B
:1002A00020656E61626C65643C2F6C6162656C3EBA
:1002B0000020636865636B6564003C6C6162656C1B
:1002C0003E3C696E70757420747970653D63686535
:1002D000636B626F78206E616D653D656E61626C07
:1002E00065642076616C75653D31003C68313E4D3A
:1002F0005154543C2F68313E3C666F726D206D65E1
:1003000074686F643D706F737420616374696F6E9D
:100310003D272F6D717474273E004D515454002FAA
:1003200062757A7A6572003C703E3C736D616C6CEC
:100330003E616374697665206D6F646520617070DD
:100340006C69656420746F2062757A7A65722069C1
:100350006D6D6564696174656C792E3C2F736D6198
:100360006C6C3E3C2F703E003C627574746F6E2066
:10037000747970653D7375626D69743E536176651D
:100380003C2F627574746F6E3E3C2F666F726D3ECB
:10039000003E3C2F6C6162656C3E3C2F6669656C6B
:1003A000647365743E002076616C75653D003C6C3D
:1003B0006162656C3E6F6666286D73293C696E707C
:1003C000757420747970653D6E756D626572206D0F
:1003D000696E3D3130206D61783D35303030206EB2
:1003E000616D653D6F6666003E3C2F6C6162656CB9
:1003F0003E002076616C75653D003C6C6162656C09
:100400003E6F6E286D73293C696E70757420747927
:1004100070653D6E756D626572206D696E3D31303F
:10042000206D61783D35303030206E616D653D6FF7
:100430006E003C2F6C6567656E643E003C666965C6
:100440006C647365743E3C6C6567656E643E003C2D
:100450002F73656C6563743E3C2F6C6162656C3E06
:10046000003C2F6F7074696F6E3E002073656C6581
:1004700063746564003C6F7074696F6E2076616CA4
:1004800075653D003C68313E42757A7A657220534D
:10049000657474696E673C2F68313E3C703E466CF3
:1004A00069702D666C6F7020776974682075702094
:1004B000746F2033206D6F6465207072657365748E
:1004C000732E3C2F703E3C666F726D206D657468B4
:1004D0006F643D706F737420616374696F6E3D2744
:1004E0002F62757A7A6572273E3C6C6162656C3E5C
:1004F0004D6F64653C73656C656374206E616D65FA
:100500003D6D6F64653E0042757A7A6572002065C4
:100510006E74726965733C2F736D616C6C3E3C2F19
:10052000703E00202F20003C703E3C736D616C6C6F
:100530003E003C2F7461626C653E003C2F74643E4B
:100540003C2F74723E003C2F74643E3C74643E0049
:100550003C2F74643E3C74643E003C2F74643E3C0B
:1005600074643E003C2F74643E3C74643E0068003A
:100570006D0073003C2F74643E3C74643E003C7418
:10058000723E3C74643E003C7461626C653E3C7437
:10059000723E3C74683E233C2F74683E3C74683E57
:1005A0006167653C2F74683E3C74683E70696E3CC0
:1005B0002F74683E3C74683E6B616D61723C2F74B1
:1005C000683E3C74683E6265643C2F74683E3C74CF
:1005D000683E726F6C653C2F74683E3C2F74723EAF
:1005E000003C703E286E6F206576656E74732079CE
:1005F0006574293C2F703E003C68313E4576656E3F
:1006000074204C6F673C2F68313E004576656E74F0
:10061000204C6F67003C2F626F64793E3C2F6874FA
:100620006D6C3E003C2F736D616C6C3E3C2F703ED8
:100630000064697361626C656400656E61626C651B
:1006400064007320266D6964646F743B20697020B8
:10065000003C703E3C736D616C6C3E757074696DEE
:100660006520003C2F6F6C3E003C2F7370616E3E26
:100670003C2F6C693E003C6C693E3C6120687265B1
:10068000663D272F6D717474273E4D5154543C2F95
:10069000613E203C7370616E20636C6173733D70CA
:1006A000696C6C3E003C2F7370616E3E3C2F6C6930
:1006B0003E003C6C693E3C6120687265663D272FB8
:1006C00062757A7A6572273E42757A7A657220532E
:1006D000657474696E673C2F613E203C7370616E77
:1006E00020636C6173733D70696C6C3E6D6F646503
:1006F0003A20003C6C693E3C6120687265663D278B
:100700002F6576656E742D6C6F67273E4576656E36
:1007100074204C6F673C2F613E3C2F6C693E003C5F
:100720006F6C3E003C68313E4E75727365204361CC
:100730006C6C202D204D656E753C2F68313E004E4F
:10074000757273652043616C6C004E6F7420466F48
:10075000756E640042616420526571756573740042
:1007600000002100240027002A002D003000330063
:1007700001010000040107010A0100002200250018
:1007800028002B002E00310034000201000005017A
:1007900008010B01000020002300260029002C0086
:1007A0002F003200000100000301060109010505C8
:1007B0000505070508080808020202020A0A0808D7
:1007C0000404040401010101010101010303030305
:1007D00003030303040707070C0C0C0C0C0C0C0C94
:1007E0000202020206060606060606060B0B0B0BA5
:1007F0000B0B0B0B010210202008081020401020CA
:1008000040800201020108040201010204081020D4
:1008100040808040201008040201800402018040D2
:10082000201008040201080402010102040810203B
:100830004080010204081020408000000A0B0209D9
:100840000C0D0E080703040100000000000000006A
:100850000000000000000000000000000000000098
:100860000000000000001211100000000000000055
:100870000000000000000000000000000000000078
:10088000CDCCCC3D0AD7233C17B7D13877CC2B320F
:100890009595E6241FB14F0A000020410000C84290
:1008A00000401C4620BCBE4CCA1B0E5AAEC59D74EF
:1008B0003C6E61763E3C6120687265663D272F275D
:1008C0003E686F6D653C2F613E203C61206872651B
:1008D000663D272F6576656E742D6C6F67273E65C4
:1008E00076656E742D6C6F673C2F613E203C6120F5
:1008F000687265663D272F62757A7A6572273E6257
:10090000757A7A65723C2F613E203C612068726581
:10091000663D272F6D717474273E6D7174743C2F82
:10092000613E3C2F6E61763E3C68723E003C2F7407
:1009300069746C653E3C7374796C653E626F647972
:100940007B666F6E742D66616D696C793A73616E4A
:10095000732D73657269663B6D617267696E3A31BA
:10096000656D3B6D61782D77696474683A35323016
:1009700070787D68317B666F6E742D73697A653A25
:10098000312E32656D7D6E617620617B6469737096
:100990006C61793A696E6C696E652D626C6F636B20
:1009A0003B6D617267696E2D72696768743A316573
:1009B0006D7D7461626C657B626F726465722D63BC
:1009C0006F6C6C617073653A636F6C6C61707365AA
:1009D0003B77696474683A313030257D74642C74D7
:1009E000687B626F726465723A31707820736F6CE5
:1009F000696420236363633B70616464696E673A72
:100A00003470783B666F6E742D73697A653A2E394F
:100A1000656D7D6C6162656C7B646973706C617916
:100A20003A626C6F636B3B6D617267696E2D746FB8
:100A3000703A2E36656D7D696E7075742C73656CB9
:100A40006563747B666F6E742D73697A653A316580
:100A50006D3B70616464696E673A3470783B7769A6
:100A60006474683A313030253B626F782D73697A4F
:100A7000696E673A626F726465722D626F787D622B
:100A80007574746F6E7B6D617267696E2D746F70B3
:100A90003A31656D3B70616464696E673A2E356505
:100AA0006D2031656D3B666F6E742D73697A653AA2
:100AB00031656D7D2E70696C6C7B646973706C61DF
:100AC000793A696E6C696E652D626C6F636B3B7011
:100AD000616464696E673A327078203870783B627E
:100AE0006F726465722D7261646975733A387078DB
:100AF0003B6261636B67726F756E643A236565650F
:100B00003B6D617267696E2D72696768743A347003
:100B1000787D3C2F7374796C653E3C2F6865616409
:100B20003E3C626F64793E003C21646F637479706F
:100B3000652068746D6C3E3C68746D6C3E3C686505
:100B400061643E3C6D657461206E616D653D7669E2
:100B50006577706F727420636F6E74656E743D2775
:100B600077696474683D6465766963652D77696447
:100B700074682C696E697469616C2D7363616C654E
:100B80003D31273E3C7469746C653E00436F6E6E68
:100B9000656374696F6E3A20636C6F736500436FB1
:100BA0006E74656E742D547970653A20746578742E
:100BB0002F68746D6C3B20636861727365743D755A
:100BC00074662D3800485454502F312E3120323065
:100BD00030204F4B00436F6E6E656374696F6E3AE1
:100BE00020636C6F7365004C6F636174696F6E3A5C
:100BF0002000485454502F312E31203330332053AD
:100C00006565204F7468657200436F6E6E6563742E
:100C1000696F6E3A20636C6F736500436F6E746525
:100C20006E742D547970653A20746578742F706CE9
:100C300061696E00485454502F312E312000084114
:100C4000CA5511241FBECFEFD1E2DEBFCDBF14E0E5
:100C5000A0E0B2E0E2E5FDEB00E00BBF02C00790D0
:100C60000D92AE3AB107D9F72FE0AEEAB4E001C079
:100C70001D92AC35B207E1F716E0C0E2D6E004C041
:100C80002197FE010E94AD58CF31D107C9F70E94CC
:100C9000A7420C949C5E0C9400008CBD9DBD0895F1
:100CA00020E3FC0120833296862F82958F706F702F
:100CB0006A3030F4605D6293682F8111F5CF08953A
:100CC000695CF9CFFC01818D928D08950895209182
:100CD000EC07260F3327331F21323105ECF4209126
:100CE0001008FC0190E080E0243069F082E0089573
:100CF000A091EC072191AC014453584FA40FB52F9C
:100D0000B11D2C930196861798F38091EC07680F1C
:100D10006093EC0780E0089581E008958FEF9FEFE6
:100D200008958FEF9FEF08958091C50790E091950A
:100D3000819591090895CF92DF92EF92FF920F93E0
:100D40001F93CF93DF937C01CB018A012091C407CD
:100D5000222389F0EB016B01C40ED51ECC15DD05F5
:100D600069F06991D701ED91FC910190F081E02D3E
:100D7000C7010995F3CF642F0E946706C801DF9170
:100D8000CF911F910F91FF90EF90DF90CF9008953A
:100D9000CF93DF931F92CDB7DEB769832091C4074D
:100DA0002223F9F02091C307203258F021E030E0EF
:100DB000FC013383228390E080E00F90DF91CF919C
:100DC00008958091C207E82FF0E0EE55F84F998121
:100DD00090838F5F8093C2078093C30781E090E088
:100DE000ECCF61E0CE0101960E946706F7CF8150FB
:100DF000823108F058C0E82FF0E0EF5FF84F0C9414
:100E0000AD5821072507130719071D0753072807A2
:100E10002E07320738073C07400746074A075307A3
:100E20004E0754075807809180008F778093800089
:100E30000895809180008F7DF9CF80918000877F19
:100E4000F5CF84B58F7784BD089584B58F7DFBCFB2
:100E50008091B0008F778093B00008958091B000AA
:100E60008F7DF9CF809190008F77809390000895C7
:100E7000809190008F7DF9CF80919000877FF5CF92
:100E80008091A0008F778093A00008958091A000AA
:100E90008F7DF9CF8091A000877FF5CF80912001D1
:100EA0008F77809320010895809120018F7DF9CF65
:100EB00080912001877FF5CFCF93DF93282F30E0FB
:100EC000F901E65CF74F8491F901EC50F84FD491A9
:100ED000F901E255F84FC491CC23A1F081110E9491
:100EE000F706EC2FF0E0EE0FFF1FEC56F84FA59140
:100EF000B491EC91ED2381E090E009F480E0DF9182
:100F0000CF91089580E090E0FACF1F93CF93DF93C5
:100F1000282F30E0F901E65CF74F8491F901EC509D
:100F2000F84FD491F901E255F84FC491CC23A9F0C0
:100F3000162F81110E94F706EC2FF0E0EE0FFF1F35
:100F4000E658F84FA591B4918FB7F894EC91111130
:100F500008C0D095DE23DC938FBFDF91CF911F9126
:100F60000895DE2BF8CF1F93CF93DF93C1E0C0939A
:100F7000CB07882399F1D091B8001091BA008091E5
:100F8000BC008A7B8093BC0060E084E10E948507FE
:100F900060E085E10E94850710921008C093120856
:100FA0001092110861E084E10E94850761E085E10B
:100FB0000E9485078091B9008E7F8093B90080914F
:100FC000B9008D7F8093B90088E48093B80085E4F0
:100FD0008093BC001093BA00D093B800DF91CF91FA
:100FE0001F910895CF93DF9390E0FC01EC50F84FF0
:100FF00024918255984FFC0184918823D1F090E090
:10100000880F991FFC01E05AF84FA591B491FC019B
:10101000E658F84FC591D49161110EC09FB7F8946E
:101020008C91E22FE0958E238C932881E223E88334
:101030009FBFDF91CF9108958FB7F894EC91E22B89
:10104000EC938FBFF6CF3FB7F89480919E079091B5
:101050009F07A091A007B091A10726B5A89B05C046
:101060002F3F19F00196A11DB11D3FBFBA2FA92F27
:10107000982F8827BC01CD01620F711D811D911D24
:1010800042E0660F771F881F991F4A95D1F7089590
:101090008F929F92AF92BF92CF92DF92EF92FF9288
:1010A0006B017C010E9423084B015C01C114D10437
:1010B000E104F104B9F00E942308681979098A094A
:1010C0009B09683E73408105910580F321E0C21AB7
:1010D000D108E108F10888EE880E83E0981EA11C73
:1010E000B11CE4CFFF90EF90DF90CF90BF90AF9016
:1010F0009F908F9008952FB7F89460919A07709100
:101100009B0780919C0790919D072FBF089508959C
:10111000DC01ED91FC910190F081E02D0994EF92BA
:10112000FF920F931F93CF93DF938C017B01D0E04D
:10113000C0E0F701EC0FFD1F6491662361F0D80158
:10114000ED91FC910190F081E02DC8010995892B6A
:1011500011F02196EECFCE01DF91CF911F910F912B
:10116000FF90EF900895AF92BF92CF92DF92EF92EF
:10117000FF920F931F93CF93DF936C017B018B0141
:10118000040F151FEB015E01AE18BF08C017D10791
:1011900059F06991D601ED91FC910190F081E02D1B
:1011A000C6010995892B79F7C501DF91CF911F9170
:1011B0000F91FF90EF90DF90CF90BF90AF90089588
:1011C000FC01538D448D252F30E0842F90E0821B4D
:1011D000930B541710F0CF96089501970895FC01D2
:1011E000918D828D981761F0A28DAE0FBF2FB11D2A
:1011F0005D968C91928D9F5F9F73928F90E0089582
:101200008FEF9FEF0895FC01918D828D981731F03B
:10121000828DE80FF11D858D90E008958FEF9FEF8F
:101220000895FC01918D228D892F90E0805C9F4F65
:10123000821B91098F73992708958BE898E00E948B
:10124000110921E0892B09F420E0822F089588E21A
:1012500099E00E94110921E0892B09F420E0822FF6
:101260000895FC01A48DA80FB92FB11DA35ABF4F3B
:101270002C91848D90E001968F739927848FA68995
:10128000B7892C93A089B1898C91837080648C93E9
:10129000938D848D981306C00288F389E02D808198
:1012A0008F7D80830895EF92FF920F931F93CF93CA
:1012B000DF93EC0181E0888F9B8D8C8D98131AC091
:1012C000E889F989808185FF15C09FB7F894EE8978
:1012D000FF896083E889F9898081837080648083D5
:1012E0009FBF81E090E0DF91CF911F910F91FF9020
:1012F000EF900895F62E0B8D10E00F5F1F4F0F73C8
:101300001127E02E8C8D8E110CC00FB607FCFACF82
:10131000E889F989808185FFF5CFCE010E943109E6
:10132000F1CFEB8DEC0FFD2FF11DE35AFF4FF08253
:101330009FB7F8940B8FEA89FB8980818062CFCFB9
:10134000CF93DF93EC01888D8823B9F0AA89BB89FC
:10135000E889F9898C9185FD03C0808186FD0DC0E7
:101360000FB607FCF7CF8C9185FFF2CF808185FF08
:10137000EDCFCE010E943109E9CFDF91CF910895E1
:1013800080E090E0892B29F00E94270981110E94BA
:10139000000080E090E0892B29F00E941D09811156
:1013A0000E94000080E090E0892B49F080E090E00E
:1013B000892B29F00E94000081110E94000080E02A
:1013C00090E0892B49F080E090E0892B29F00E9481
:1013D000000081110C9400000895FC0120812EBDB5
:1013E0009B012150310941F051810DB407FEFDCF21
:1013F0004EB55EBD4193F5CF61507109860F971FC1
:101400000DB407FEFDCF2EB5FC0120830895E091B9
:10141000B204F091B30480819091B104892B808350
:101420000895E091B204F091B30490818091B104E9
:1014300080958923808308958EBD00000DB407FE3A
:10144000FDCF8EB50895AF92BF92CF92DF92EF920B
:10145000FF920F931F93CF93DF93CDB7DEB72897FB
:101460000FB6F894DEBF0FBECDBF8C017B016A01C1
:1014700080917E088333E1F45801A40EB51EA016B6
:10148000B10609F46FC00E94110A80EF0E941C0A85
:10149000812F0E941C0A802F0E941C0A0F5F1F4F81
:1014A000F70181917F010E941C0A0E94070AE7CF81
:1014B0005B01A40EB51E8433C1F40E94110A198386
:1014C0000A838D2D80688B83CC8264E070E0CE012E
:1014D00001960E94ED09AE14BF0409F441C0F70162
:1014E00081917F010E941C0AF6CF0E94110A0F3FD2
:1014F000110509F028F419820A8384E08B830CC05B
:1015000017FD17C019820A8333E0169507953A959F
:10151000E1F7007E0C600B8386E0C816D104A0F5CD
:10152000F701DE011496EA15FB0599F081918D9380
:10153000FACFC80126E0969587952A95E1F7807E37
:1015400019830A830115104C10F48461D7CF8C6184
:10155000D5CFB6016D5F7F4FCE0101960E94ED0998
:101560000E94070AC60128960FB6F894DEBF0FBE88
:10157000CDBFDF91CF911F910F91FF90EF90DF9042
:10158000CF90BF90AF90089563E070E0CE010196D8
:101590000E94ED09F70181917F010E941C0AAE149F
:1015A000BF04C1F7DDCFCF93DF931F92CDB7DEB776
:1015B000898341E050E0BE016F5F7F4F90E080E0A3
:1015C0000E94230A0F90DF91CF91089590E020911F
:1015D0007E08233339F40C96982F990F990F990FA1
:1015E00080E008954896F8CFDA01E091B504F0E084
:1015F000FE2FEE27E60FF71F90E0982F8827A9010E
:10160000BD018E0F9F1F0C94230ACF93DF9300D050
:10161000CDB7DEB779836A8322E030E0AE014F5F59
:101620005F4F60E170E00E94F40A0F900F90DF912D
:10163000CF910895CF93DF9300D0CDB7DEB77983F4
:101640006A8322E030E0AE014F5F5F4F64E070E0FC
:101650000E94F40A0F900F90DF91CF910895CF93DD
:10166000DF931F92CDB7DEB72091B50430E0322F63
:101670002227260F371F90E0982F8827498341E0C3
:1016800050E0BE016F5F7F4F820F931F0E94230ABD
:101690000F90DF91CF910895CF93DF931F92CDB735
:1016A000DEB76983DC01ED91FC910280F381E02DCE
:1016B00041E050E0BE016F5F7F4F09950F90DF91D1
:1016C000CF910895CF93DF931F92CDB7DEB7698393
:1016D000DC01ED91FC910280F381E02D41E050E0CE
:1016E000BE016F5F7F4F09950F90DF91CF910895F5
:1016F000FC019485FB018485981303C081E0983038
:1017000008F080E00895CF93DF931F92CDB7DEB746
:101710006983DC01ED91FC910280F381E02D41E0D1
:1017200050E0BE016F5F7F4F09950F90DF91CF9121
:101730000895FC01768765870895DC01ED91FC91A1
:1017400002A0F3A1E02D099591E089270895862F45
:10175000089581E08627089521E0FC018485883082
:1017600008F020E0822F0895089544E050E0BC0185
:101770008FE090E00C94230A0895FF920F931F933B
:10178000CF93DF93EB01FC01178A168A2A8121117E
:1017900009C02B81211106C02C81211103C02D818C
:1017A000222301F141155105E9F08A01FC01F08C79
:1017B00080E591E00E944D06AE014E5F5F4F24E050
:1017C00030E06CE070E08F2D0E94F40AB8018F2D9C
:1017D0000E94050B81E090E0DF91CF911F910F9166
:1017E000FF90089580E0F7CFDC01ED91FC9104803B
:1017F000F581E02D0994DC01ED91FC910280F381EB
:10180000E02D0994CF93DF93FC012285222359F028
:10181000EC0161E080850E9485076FEF88819981E6
:101820000E94F40B1A86DF91CF910895CF92DF9238
:10183000EF92FF920F931F93CF93DF93EC016A0116
:10184000888199810E94F40BE880F98086018EEFEF
:10185000D81AD8016D918D01D701ED91FC910480CA
:10186000F581E02DC70109950C151D0591F76FEF66
:10187000888199810E94F40B6FEF888199810E9481
:10188000F40B888199810E94FB0B8C878F718530C6
:1018900079F081E28987CE010E94020C80E0DF911D
:1018A000CF911F910F91FF90EF90DF90CF9008950F
:1018B00081E0F5CFCF93DF93FC01228521110EC08B
:1018C000EC0181E0828760E080850E9485076FEFF0
:1018D00088819981DF91CF910C94F40BDF91CF91A6
:1018E0000895CF93DF93FC01C081D1810E947B08D2
:1018F000C61BD70B8D2F881F8827881FDF91CF919C
:101900000895EF92FF920F931F93CF93DF9300D030
:10191000CDB7DEB77C018B010E947B08600F711F81
:101920007A836983F701808191810E94FB0B8F3F4D
:1019300081F0CE0101960E94710C882399F380E01A
:101940000F900F90DF91CF911F910F91FF90EF902B
:10195000089581E0F5CF1F93CF93DF93EC0168E505
:1019600072E00E94810C182F882371F06DEF88813E
:1019700099810E94F40BCE010E94020C1B86812FDC
:10198000DF91CF911F9108958FE18987CE010E9449
:10199000020CF5CFAF92BF92CF92DF92FF920F93DE
:1019A0001F93CF93DF9300D000D0CDB7DEB78C016B
:1019B000F62E29833A834B835C830E946D0E882325
:1019C00009F457C0F8018285811103C0C8010E9443
:1019D0005A0CF11043C06F2D6064F8018081918131
:1019E0000E94F40B6E01F5E0CF0ED11CCE010196E2
:1019F0005C01F60162916F01F801808191810E9482
:101A0000F40BCA14DB04A9F767E8F11001C065E91B
:101A1000F801808191810E94F40BF801808191810D
:101A20000E94FB0B8AE0F82EF801808191810E94D0
:101A3000FB0BF801848787FF03C0FA94F110F4CF01
:101A40000F900F900F900F90DF91CF911F910F91FA
:101A5000FF90DF90CF90BF90AF9008959CE0F91673
:101A600009F4B9CF6CE271E0C8010E94810C8111C8
:101A7000B2CF8FEFE5CF8F929F92AF92BF92CF926E
:101A8000DF92EF92FF920F931F93CF93DF93EC01BE
:101A90004A015B0169018B85823049F48A819B810F
:101AA000AC81BD8188159905AA05BB0571F18D85AD
:101AB000A5019401833039F089E0220F331F441FC0
:101AC000551F8A95D1F769E1CE010E94CA0C88237F
:101AD000B1F08EE08987CE010E94020CCE010E94F7
:101AE000020C80E0DF91CF911F910F91FF90EF905A
:101AF000DF90CF90BF90AF909F908F90089582E03D
:101B00008B878A829B82AC82BD82F12CE12CE0160D
:101B1000F106B1F068E572E0CE010E94810C8111FE
:101B200002C085E2D7CFA6016CEFCE010E94160C51
:101B3000882389F28FEFE81AF80A8EEFD81AE7CFD8
:101B40008A819B81AC81BD818E0D9F1DA11DB11D20
:101B50008A839B83AC83BD838E818111C3CFCE01E9
:101B6000DF91CF911F910F91FF90EF90DF90CF9079
:101B7000BF90AF909F908F900C94AB0CEF92FF9220
:101B80000F931F93CF93DF93EC0179018E8188230C
:101B900071F001E010E0CE010E943B0D182F812F63
:101BA000DF91CF911F910F91FF90EF9008958D8558
:101BB000833039F089E0440F551F661F771F8A95DF
:101BC000D1F79A01AB0168E1CE010E94CA0C8823CB
:101BD00039F08DE08987CE010E94020C10E0DFCF42
:101BE000A7016EEFCE010E94160C8823A1F368E5D1
:101BF00072E0CE010E94810C182F84E2112351F370
:101C000020E030E0A9016DE0CE010E94CA0C8823DB
:101C100011F08AE0DFCF888199810E94FB0B81114E
:101C2000F8CFCE010E94020CBACFEF92FF921F9321
:101C3000CF93DF93FC01208111E020FF12C0EC0163
:101C40007C01FCE0EF0EF11C4B815C816D817E819B
:101C5000970189819A810E94BE0D182F811108C0B9
:101C600010E0812FDF91CF911F91FF90EF900895A9
:101C7000888181FD04C088818E7F8883F2CF4B816B
:101C80005C816D817E818F819885A985BA85480F99
:101C9000591F6A1F7B1F970189819A810E94BE0D7F
:101CA0008111E9CFDDCFCF93DF93EC011B8620E0DC
:101CB00030E0A9016CE00E94CA0C882349F089E059
:101CC0008987CE010E94020C80E0DF91CF910895B8
:101CD000CE010E94020C81E0F8CFFC012385223066
:101CE00011F40C94AB0C213011F40C94530E81E0E0
:101CF00008952F923F924F925F926F927F928F92B0
:101D00009F92AF92BF92CF92DF92EF92FF920F938A
:101D10001F93CF93DF9300D0CDB7DEB77C012A01AC
:101D20003B014901DC011B968C911B97813059F4D2
:101D300012968D919D910D90BC91A02D84159505C5
:101D4000A605B705F9F0F7018585A3019201833057
:101D500039F099E0220F331F441F551F9A95D1F790
:101D600062E1C7010E94CA0C882329F08CE0D701E8
:101D700019968C9329C081E0F701838742825382B0
:101D800064827582D12CC12C1401BEEF3B1AC0169F
:101D9000D10609F461C00E947B08645D7E4F7A839E
:101DA0006983F701808191810E94FB0BD7011C960A
:101DB0008C938F3F11F5CE0101960E94710C882300
:101DC00081F38EE1F7018187C7010E94020C80E058
:101DD0000F900F90DF91CF911F910F91FF90EF9097
:101DE000DF90CF90BF90AF909F908F907F906F903B
:101DF0005F904F903F902F9008958E3F11F089E1B2
:101E0000B6CFF701608071802601542C4424550C14
:101E10005201A80CB91C420C531CD301ED91FC914A
:101E20000280F381E02DC3010995F50181935F01E3
:101E30004E165F0691F7D7011C961C921C978D9148
:101E40009C910E94FB0BF701808191810E94FB0B0A
:101E5000FFEFCF1ADF0A9BCFF70182819381A48124
:101E6000B5818C0D9D1DA11DB11D82839383A4831B
:101E7000B58386818111ACCFC7010E94530EA8CFD4
:101E80008F929F92AF92BF92FF920F931F93CF9327
:101E9000DF93DC011196ED91FC91EF2B61F490E062
:101EA00080E0DF91CF911F910F91FF90BF90AF9095
:101EB0009F908F900895F22E4A015B01EC018B8177
:101EC0009C81AD81BE8188159905AA05BB0561F08D
:101ED000CE010E94150E882311F3F2FE0DC0188268
:101EE0008B829C82AD82BE822F2D2370F880F22AD5
:101EF000F882CE010C96D5CF01E010E09E01245F60
:101F00003F4FB501A40189819A810E94790E811108
:101F1000E6CFC5CF4F925F926F927F928F929F9242
:101F2000AF92BF92CF92DF92EF92FF921F93CF9327
:101F3000DF939093450A8093440A1092490AC12C7A
:101F4000D12C7601C394C0924D0AD0924E0AE092F1
:101F50004F0AF092500A90936A0A8093690A10928D
:101F6000680A8FEF9FEFDC0180936B0A90936C0AF5
:101F7000A0936D0AB0936E0A662309F453C020E063
:101F800040E050E0BA0188E69AE00E94400F0097D6
:101F900089F480E0DF91CF911F91FF90EF90DF9067
:101FA000CF90BF90AF909F908F907F906F905F90F9
:101FB0004F900895FC01E254FE4F2481222349F3FF
:101FC00020812F7731F78A539E4FFC01C080D1804A
:101FD000E280F38020E0B701A60188E69AE00E9443
:101FE000400FFC01892BA9F28385948581159240CD
:101FF00081F620898FEF820F823058F620934A0AAB
:1020000095859093460A8FEF890F8093470A10E0D9
:1020100081E0981769F01F5F193041F488E08093E0
:10202000480AB7CFC12CD12C7601D4CF880FF1CF7D
:102030001093480A86899789B0E0A0E08093510AFE
:102040009093520AA093530AB093540A892B8A2B77
:102050008B2B61F484A195A1A6A1B7A18093510A0D
:102060009093520AA093530AB093540A8685978599
:1020700026013701480E591E611C711C4092590AF5
:1020800050925A0A60925B0A70925C0AC189D289A6
:10209000D0934C0AC0934B0A8090510A9090520AF8
:1020A000A090530AB090540AA22FB0E0A501940169
:1020B0000E944158460E571E681E791E4092610AC2
:1020C0005092620A6092630A7092640A85E0CC0FB3
:1020D000DD1F8A95E1F7C150DE4FCD2FDD27C69574
:1020E0004C0E5D1E611C711C4092550A5092560A9E
:1020F0006092570A7092580A83899489B0E0A0E0F0
:102100000097A105B10521F480A191A1A2A1B3A1DD
:10211000C418D508E608F7088C0D9D1DAE1DBF1D1F
:102120006C017D0104C0F694E794D794C7941A9586
:10213000D2F7D701C6010196A11DB11D80935D0A9A
:1021400090935E0AA0935F0AB093600A85EFC81669
:102150008FE0D806E104F10420F48CE08093490A72
:1021600018CF80E125EFC2162FEFD206E104F1046B
:1021700068F084A595A5A6A5B7A58093610A90935C
:10218000620AA093630AB093640A80E28093490ACA
:1021900080926F0A9092700AA092710AB092720AAD
:1021A00081E0F8CE8F929F92AF92BF92CF92DF9252
:1021B000EF92FF920F931F93423051056105710515
:1021C00060F480E01F910F91FF90EF90DF90CF902F
:1021D000BF90AF909F908F900895FC01C18CD28CDE
:1021E000E38CF48CC416D506E606F70650F34801D6
:1021F00059016A018581803249F585899689A789C7
:10220000B08D17E076956795579547951A95D1F754
:10221000480F591F6A1F7B1F868123E0823009F017
:1022200021E0CF0184960E94400F009751F2CC0C20
:10223000DD1CCC0CDD1CF1E0DF228C0D9D1DFC01B2
:1022400080829182A282B38281E0BCCF803109F08A
:10225000B8CF458956896789708D4D0D511D611D17
:10226000711D868123E0823009F021E0CF01849640
:102270000E94400F009709F4A4CFCC0CDD1CF1E0C4
:10228000DF22C80ED91EF60191828082DDCFCF9267
:10229000DF92EF92FF920F931F93CF93DF93423021
:1022A00051056105710550F48FEFDF91CF911F91BA
:1022B0000F91FF90EF90DF90CF900895FC01C18CBB
:1022C000D28CE38CF48CC416D506E606F70660F3D0
:1022D00089016A01EC0185818032B1F58589968991
:1022E000A789B08DE7E07695679557954795EA956C
:1022F000D1F7480F591F6A1F7B1F2E81223009F02A
:1023000020E0CE0184960E94400F009769F2CC0C29
:10231000DD1CCC0CDD1CF1E0DF228C0D9D1DFC01D1
:1023200080819181A281B381498D5A8D6B8D7C8D85
:10233000481759076A077B0748F1F80180839183A2
:10234000A283B38381E0B1CF803109F0ADCF45895D
:1023500056896789708D4D0D511D611D711D268136
:10236000223009F020E0CE0184960E94400F0097B1
:1023700009F49ACFCC0CDD1CF1E0DF22C80ED91E87
:10238000F60180819181B0E0A0E0CECF80E08DCFDA
:102390009F92AF92BF92CF92DF92EF92FF920F93F4
:1023A0001F93CF93DF9300D000D0CDB7DEB75C0191
:1023B0006A017B019E012F5F3F4FB701A601C50156
:1023C0000E944711982E87FD34C000E010E098016C
:1023D000B701A601C5010E94D210882351F1F50171
:1023E0004185528563857485C416D506E606F706D1
:1023F00050F4F1E0CF1AD108E108F108F501C186E7
:10240000D286E386F486C980DA80EB80FC80911066
:10241000D1CF0F900F900F900F90DF91CF911F9120
:102420000F91FF90EF90DF90CF90BF90AF909F9073
:10243000089580E0EECF0F931F93CF93DF93FC01BD
:102440002081211106C081E0DF91CF911F910F9172
:102450000895EC01828187FF3AC0448955896689D5
:1024600077898681978121E084960E94400F0097AA
:1024700029F489818160898380E0E6CFEC81FD8148
:10248000EF70FF2725E0EE0FFF1F2A95E1F7E80F19
:10249000F91F309771F38081853E59F388818773E6
:1024A0008387888183FF08C0888D998DAA8DBB8D15
:1024B000848F958FA68FB78F8C8D9D8DAE8DBF8DA0
:1024C000938F828FB58BA48B8A818F778A830E81BD
:1024D0001F81C80184960E94150E882351F2F801CD
:1024E000808191810E946D0E882319F2ACCF4F92AA
:1024F0005F926F927F928F929F92AF92BF92CF9294
:10250000DF92EF92FF920F931F93CF93DF93EC0133
:102510004A015B014C845D846E847F842881222380
:1025200009F45CC0488959896A897B89481559052D
:102530006A057B0581F081149104A104B10469F45A
:102540001C861D861E861F86888A998AAA8ABB8A4F
:102550008A818F7D8A8381E046C023FF2CC0888DCD
:10256000998DAA8DBB8D88159905AA05BB05B0F17B
:10257000EE81FF813481375F7501640181E0C81A03
:10258000D108E108F108032E04C0F694E794D7942B
:10259000C7940A94D2F78A8186FF36C08C8D9D8DB0
:1025A000AE8DBF8D8C0D9D1DAE1DBF1D8C879D8773
:1025B000AE87BF87C9CF26FFDBCFEE81FF81878142
:1025C000908525E0880F991F2A95E1F7B0E0A0E0FB
:1025D00088159905AA05BB0508F0B6CF4C865D861F
:1025E0006E867F8680E0DF91CF911F910F91FF90E3
:1025F000EF90DF90CF90BF90AF909F908F907F90A3
:102600006F905F904F900895DB01CA010197A10977
:10261000B10904C0B695A795979587953A95D2F7D5
:10262000C816D906EA06FB0620F0452B462B472B99
:1026300049F527FF22C0858D968DA78DB0A18C8787
:102640009D87AE87BF878E01045F1F4FC114D104E1
:10265000E104F10409F478CF4C855D856E857F85B2
:1026600098018E819F810E94471191E0C91AD1087B
:10267000E108F108181654F3B1CF8C8D9D8DAE8D05
:10268000BF8DDDCFC81AD90AEA0AFB0ADCCFCF9387
:10269000DF93EC010E941B1218821A82DF91CF9106
:1026A00008953F924F925F926F927F928F929F9286
:1026B000AF92BF92CF92DF92EF92FF920F931F9350
:1026C000CF93DF9300D000D0CDB7DEB75C01FC0123
:1026D000448455846684778486809780F401C1841D
:1026E000D284E384F484C414D504E604F704C0F46B
:1026F0007301620110E0FFEFCF1ADF0AEF0AFF0A51
:10270000F401818D928DA38DB48D8C159D05AE0540
:10271000BF0540F4111132C0C184D284E384F48433
:1027200011E0E9CF4C145D046E047F0439F19E0181
:102730002F5F3F4FB701A601C4010E94471187FDDB
:102740001DC08823C1F289819A81AB81BC81892B0C
:102750008A2B8B2B81F6112329F0F401C186D286B6
:10276000E386F4860FEF1FEF2FEF3FE0B701A601DE
:10277000C4010E94D210382E811118C0312C832D33
:102780000F900F900F900F90DF91CF911F910F91AD
:10279000FF90EF90DF90CF90BF90AF909F908F9081
:1027A0007F906F905F904F903F9008954114510437
:1027B00061047104B9F4F501C486D586E686F7860E
:1027C00082814114510461047104B1F0FFEF4F1A8A
:1027D0005F0A6F0A7F0A4C145D046E047F0479F06F
:1027E0008F7B0BC097018601B301A201C4010E9437
:1027F000D2108111E0CFC2CF8064F5018283F50150
:10280000828180688283BBCFCF92DF92EF92FF926A
:102810000F931F93CF93DF93FC01C48121E020939A
:10282000C407C093B0041092C2071092C3078485F6
:10283000682B8FE798E00E94C806D091C307D13279
:1028400008F092C00E9423086B017C01809110085F
:10285000811165C082E08093100881E080931208A6
:102860008FEF80930F0810923408D0933308A2EAB8
:10287000B7E0E3E1F8E080E0D81385C010923508B6
:1028800080913508CC0FC82BC09335088091110872
:10289000813009F07CC0109211080E9423086B015E
:1028A0007C01809135088093BB008091C70790918F
:1028B000C807A091C907B091CA07892B8A2B8B2B17
:1028C00099F00E9423080091C7071091C807209132
:1028D000C9073091CA076C197D098E099F0906172F
:1028E000170728073907E0F18091BC0083FDD9CF95
:1028F00085EC8093BC000E9423086B017C018091D1
:102900001008823009F445C080910F088F3F61F1B3
:1029100080910F08803241F180910F0825C080918D
:10292000C7079091C807A091C907B091CA07892B22
:102930008A2B8B2B09F48ACF0E9423080091C707AA
:102940001091C8072091C9073091CA076C197D09F9
:102950008E099F09061717072807390708F076CF51
:102960008091C6070E94B3071092C2071092C30756
:102970001092C407DF91CF911F910F91FF90EF90BC
:10298000DF90CF9008959D9191938F5F75CF85EEE5
:10299000B0CF8091C7079091C807A091C907B091A7
:1029A000CA07892B8A2B8B2B09F4A9CF0E942308F5
:1029B0000091C7071091C8072091C9073091CA0735
:1029C0006C197D098E099F09061717072807390713
:1029D00008F095CFC5CF28E0FC01248760E00C9477
:1029E000041420911D0A30E049E355E090E080E0B6
:1029F0008217930790F44D5E5F4FFA013497608120
:102A000071816230710539F460E08091090A0E9499
:102A1000850781E008950196EBCF60E08091070A79
:102A20000E94850782E008956F3FA9F0E62FE295A6
:102A3000EF7044E0E49F90011124DC01ED91FC91E2
:102A4000E20FF31F6F7082819381B6E06B9F800D60
:102A5000911D1124089590E080E00895FC01848583
:102A600083FF17C084A195A1A6A1B7A1448D558D60
:102A7000668D778D841B950BA60BB70B811520E80F
:102A80009207A105B10520F08FEF9FE7A0E0B0E02D
:102A9000089580E090E0DC01F1CF0C960C941B12BD
:102AA000862F90E03FB7F894AC01440F452F441FA8
:102AB000550B20910201452B09F4DBC020622093C5
:102AC00002013FBF3FB7F894209102012064209398
:102AD00002013FBF000000003FB7F89420910201BF
:102AE0002F7B209302013FBF3FB7F8942091020152
:102AF00086FFC1C02062209302013FBF3FB7F89418
:102B0000209102012064209302013FBF00000000D9
:102B10003FB7F894209102012F7B209302013FBF21
:102B20003FB7F8942091020185FFA7C0206220934F
:102B300002013FBF3FB7F894209102012064209327
:102B400002013FBF000000003FB7F894209102014E
:102B50002F7B209302013FBF3FB7F89420910201E1
:102B600084FF8DC02062209302013FBF3FB7F894DD
:102B7000209102012064209302013FBF0000000069
:102B80003FB7F894209102012F7B209302013FBFB1
:102B90003FB7F8942091020183FF73C02062209315
:102BA00002013FBF3FB7F8942091020120642093B7
:102BB00002013FBF000000003FB7F89420910201DE
:102BC0002F7B209302013FBF3FB7F8942091020171
:102BD00082FF59C02062209302013FBF2FB7F894B3
:102BE000909102019064909302012FBF00000000B9
:102BF0002FB7F894909102019F7B909302012FBF11
:102C00009FB7F89481FF41C0809102018062809358
:102C100002019FBF9FB7F894809102018064809366
:102C200002019FBF000000009FB7F894809102014D
:102C30008F7B809302019FBF9FB7F8948091020120
:102C400060FF27C08062809302019FBF9FB7F89406
:102C5000809102018064809302019FBF0000000008
:102C60009FB7F894809102018F7B809302019FBFF0
:102C700008952F7D24CF2F7D3ECF2F7D58CF2F7DE0
:102C800072CF2F7D8CCF2F7DA6CF809102018F7DBB
:102C9000BECF8F7DD8CF000000009FB7F894809101
:102CA00002018064809302019FBF8091000183FF35
:102CB000A4C080E82FB7F894909102019F7B909375
:102CC00002012FBF000000002FB7F894909102017D
:102CD0009064909302012FBF9091000193FD806456
:102CE0002FB7F894909102019F7B909302012FBF20
:102CF000000000002FB7F894909102019064909327
:102D000002012FBF9091000193FD80622FB7F894CC
:102D1000909102019F7B909302012FBF0000000061
:102D20002FB7F894909102019064909302012FBF05
:102D30009091000193FD80612FB7F894909102016A
:102D40009F7B909302012FBF000000002FB7F894E3
:102D5000909102019064909302012FBF9091000125
:102D600093FD88602FB7F894909102019F7B909318
:102D700002012FBF000000002FB7F89490910201CC
:102D80009064909302012FBF9091000193FD8460A5
:102D90002FB7F894909102019F7B909302012FBF6F
:102DA000000000002FB7F894909102019064909376
:102DB00002012FBF9091000193FD82602FB7F8941C
:102DC000909102019F7B909302012FBF00000000B1
:102DD0002FB7F894909102019064909302012FBF55
:102DE0009091000193FD81602FB7F89490910201BA
:102DF0009F7B909302012FBF089580E05BCF9FB728
:102E0000F894A1E0B1E08C91877F8C939FBF9FB72E
:102E1000F894E2E0F1E08081877F80839FBF9FB7D5
:102E2000F8948081877F80839FBF9FB7F8948C91AF
:102E300080628C939FBF9FB7F8948081806280836B
:102E40009FBF9FB7F8948C9180648C939FBF9FB76E
:102E5000F89480818F7B80839FBF0895CF93DF9309
:102E6000EC0188819981DC01ED91FC910190F08168
:102E7000E02D09952A813B81820F931F9B838A83D2
:102E8000DF91CF910895CF93DF93EC0188819981F1
:102E9000DC01ED91FC910280F381E02D09952A81FE
:102EA0003B81820F931F9B838A83DF91CF9108958B
:102EB0008F929F92AF92BF92CF92DF92EF92FF924A
:102EC0000F931F93CF93DF93CDB7DEB766970FB6FF
:102ED000F894DEBF0FBECDBF6C018E01095E1F4F9F
:102EE00078018AE0882E912CA12CB12CCB01BA015B
:102EF000A50194010E945458942F852F605DF8011C
:102F000062938F01A901692F782F41155105610541
:102F1000710561F7A7014E1B5F0BBF01C6010E943F
:102F2000431766960FB6F894DEBF0FBECDBFDF9194
:102F3000CF911F910F91FF90EF90DF90CF90BF90B6
:102F4000AF909F908F900895BF92CF92DF92EF92B3
:102F5000FF920F931F93CF93DF93FC016901EA0166
:102F6000209709F47EC077FF06C084E084835183F4
:102F7000408381E077C08B011F7704301105F8F49E
:102F8000DA0190E0242F8A2F8C1B861730F48D9164
:102F900031E0811130E0932BF6CF911110C082E027
:102FA0008483DF01842F821B861728F4EA0189912C
:102FB000AE018D93F7CFE60FF11D1082DACFB62E5A
:102FC0007F01D6011396ED91FC9198012C0F3D1FC6
:102FD0003097F9F083818017110671F4BE01CF019B
:102FE00004966217730761F0DB015D91BD01DC019E
:102FF0004D91CD015417A9F30190F081E02DE8CF58
:1030000082818F5F828385E0E7018C83F983E88387
:10301000B0CF0F3F110509F008F5B8016B5F7F4F86
:1030200060177107D8F0F60180819181DC01ED9184
:10303000FC910190F081E02D0995FC01892B71F044
:10304000B38281E08283DF0114969E01200F311F3D
:10305000C217D30789F089918D93FACF81E0E601F9
:103060008A8380E0DF91CF911F910F91FF90EF90C5
:10307000DF90CF90BF900895DF01A00FB11F14968D
:103080001C92D60113968D919C9114979183808305
:103090001496FC93EE931397B6CFDC0152969C9155
:1030A0005297915084E0989F900111245096ED9191
:1030B000FC91E20FF31F228133812115310579F054
:1030C00041818081481758F481E0840F818386E034
:1030D000489F200D311D11242115310521F460E098
:1030E00070E08FEF0895B901892F8295807F840F5A
:1030F0000895AF92BF92CF92DF92EF92FF920F931B
:103100001F93CF93DF93EC018B018C8180FF2CC048
:10311000A881B981FB018381948130E020E0009790
:1031200019F1A817B90709F041C0F8014081518190
:1031300012969C911297915012969C93129791110E
:1031400013C08D919C9111972115310561F1F90101
:1031500091838083FA0180819181FC0122813381F6
:10316000BD01CA01F90109958C81807631F1209762
:1031700021F1F8805801F5E1AF0EB11C8FEFF81680
:10318000D1F06F2DC5010E9414156C01FC01E58082
:10319000B8010E947918F801818DF6018083F80149
:1031A000F18EFE2CEBCF94838383D4CF9C01FC0162
:1031B00080819181B4CFF882F9821C82DF91CF9116
:1031C0001F910F91FF90EF90DF90CF90BF90AF9045
:1031D0000895AF92BF92DF92EF92FF920F931F93E9
:1031E000CF93DF93EC01088119816B817C8161159C
:1031F000710571F0DB018D919C919C838B83D801CB
:10320000ED91FC910280F381E02DC8010995EDCF8D
:103210005E01B5E0AB0EB11CE880F980D12C6D8960
:103220007E898F89D816E0F4E4E0DE9E80011124C7
:10323000060F171FD80112966D917C9161157105CB
:1032400041F0D701ED91FC910280F381E02DC7019F
:103250000995F8011382128210821182D394DFCF74
:103260001F8A8FEF898FA616B70689F0D701ED91D7
:10327000FC910280F381E02DC701DF91CF911F9176
:103280000F91FF90EF90DF90BF90AF900994DF9186
:10329000CF911F910F91FF90EF90DF90BF90AF9073
:1032A0000895EF92FF920F931F93CF93DF9300D077
:1032B00000D0CDB7DEB77C010E947712882309F4D5
:1032C00057C0F701928191FF21C0048D158D268D85
:1032D000378D011511052105310509F449C04485D3
:1032E000558566857785411551056105710509F498
:1032F0004AC019821A821B821C829E012F5F3F4F97
:10330000868197810E94471187FF02C080E030C00C
:10331000882379F0F70144855585668577850FEF19
:103320001FEF2FEF3FE0868197810E94D210882304
:1033300069F349815A816B817C8141155105610591
:10334000710539F0F701868197810E94C8118823A1
:10335000E9F2F70180899189A289B389808F918FE1
:10336000A28FB38F828180688283C7010E941B1263
:103370000F900F900F900F90DF91CF911F910F91B1
:10338000FF90EF90089509831A832B833C83148E5A
:10339000158E168E178ECDCF90ED980F9A3028F49B
:1033A000082E000C990BC09708959FE9980F96304E
:1033B00030F4082E000C990B8755910908959FEB66
:1033C000980F963028F4082E000C990BC797089593
:1033D0008FEF9FEF0895FC01848595850895FC018A
:1033E00084899589089521E633E0FC0131832083A7
:1033F000FB014089518962897389FC0142835383AF
:10340000648375830895DC01ED91FC91048CF58D46
:10341000E02D099490E080E00895AF92BF92CF92A2
:10342000DF92EF92FF920F931F93CF93DF9300D021
:1034300000D0CDB7DEB78C016B017A0180917E0898
:103440008333E9F45B016801C40ED51EC016D106B2
:10345000A9F10E94110A8FE00E941C0A812F0E948C
:103460001C0A802F0E941C0A0F5F1F4F80E00E94E1
:103470001C0AF50181935F010E94070AE7CF84339C
:1034800069F50E94110A19830A838F2D8F778B8328
:10349000EC8264E070E0CE0101960E94ED09A70184
:1034A00070E060E0C6010E94875BE114F10421F046
:1034B000B701C6010E94ED090E94070AC7010F90DB
:1034C0000F900F900F90DF91CF911F910F91FF9070
:1034D000EF90DF90CF90BF90AF9008950E94110AB7
:1034E0000F3F110509F030F419820A831B8263E053
:1034F00070E0D1CF17FD0BC019820A8333E0169517
:1035000007953A95E1F7007E08600B83F0CFC8017C
:1035100026E0969587952A95E1F7807E19830A83A0
:103520000115104C18F480618B83E1CF8861FCCFCA
:103530001F93CF93DF931F92CDB7DEB7182F80E58F
:1035400091E00E944D06812F0E94E60A27E0129F1B
:10355000F0011124EA5CF74F22813381377041E09A
:1035600050E0BE016F5F7F4F820F931F0E940D1AC4
:1035700089810F90DF91CF911F910895FC01808D7B
:10358000883040F4218D328D232B21F00E94981A2F
:1035900090E008958FEF9FEF0895CF93DF93FC01A4
:1035A0002485283028F08FEF9FEFDF91CF91089589
:1035B000EC010190F081E02D0084F185E02D09956A
:1035C000892B89F38C850E94981A90E0EECFCF93D7
:1035D000DF931F92CDB7DEB741E050E0BE016F5FD1
:1035E0007F4F0E940D1A89810F90DF91CF9108952E
:1035F00090E080E00C94E71ACF93DF93C4E1D0E031
:103600000E94F81A882361F061E070E080E090E0A9
:103610000E9448082197A1F780E0DF91CF9108959B
:1036200081E0FBCF1F93CF93DF9300D0CDB7DEB700
:1036300060E372E080E090E00E9448081FB7F894D1
:103640008091B404811127C0E3EEF7E08491E9E2B0
:10365000F8E09491E82FF0E0EE0FFF1FE05AF84FEA
:10366000A591B491EC91E92321F461E085E30E94F6
:10367000850761E085E30E94F2078CB580618CBD0F
:103680008CB580648CBD61E084E30E94F20761E048
:1036900083E30E94F2078091B4048F5F8093B404A7
:1036A0001FBFE8EBF7E0E491F0E0EE0FFF1FE658F4
:1036B000F84F859194919093B3048093B204EEEF08
:1036C000F7E0E491E093B10461E08AE00E94F20740
:1036D0000E94070A80E591E00E944D0684E38093F2
:1036E0007E0880E80E94D30A0E94FC1A882391F188
:1036F00088E00E94D30A0E94F81A883059F580E1C8
:103700000E94D30A0E94F81A803121F580E00E94BD
:10371000D30A0E94F81A182F81111CC08FE190E083
:103720000E94E71A8330B1F480E48093B50442E04C
:103730006EE170E0812F0E942F0B42E06FE170E09C
:10374000812F0E942F0B1F5F183089F781E0809333
:10375000270564C087E380937E0880E80E94D30A2F
:103760000E94FC1A8823F9F088E00E94D30A0E9484
:10377000F81A8830C1F480E10E94D30A0E94F81A36
:10378000182F803181F480E00E94D30A0E94F81A39
:10379000811109C089E390E00E94E71A843019F48E
:1037A0001093B504D3CF83E380937E0880E80E9412
:1037B000D30A0E94FC1A882371F180E10E94D30A87
:1037C0000E94F81A803139F582E10E94D30A0E94E2
:1037D000F81A823101F580E00E94D30A0E94F81A9B
:1037E000811119C084E08093B50415E51A8341E086
:1037F00050E0BE016E5F7F4F8BE190E00E94230A94
:10380000198341E050E0BE016F5F7F4F8AE190E095
:103810000E94230A9BCF10927E0880E00F900F90A9
:10382000DF91CF911F9108952091B50430E0322FA0
:103830002227620F731F90E0982F8827860F971F0B
:103840000C94E71ACF93C82F462F61E070E00E94D6
:103850002F0B61E070E08C2F0E94141C8111F9CFB6
:10386000CF910895CF93C82F80E591E00E944D0637
:1038700068E070E08C2FCF910C94221CCF93C82F5E
:1038800080E591E00E944D0660E170E08C2FCF91C1
:103890000C94221CCF93DF93EC01888D883020F4A8
:1038A0000E943E1C88E0888FDF91CF91089563E0ED
:1038B00070E00C94141CCF93C82F80E591E00E9417
:1038C0004D068C2FCF910C94571CEF92FF920F93C3
:1038D0001F93CF93DF937C0180917E08D4E08333E4
:1038E00009F0D8E00EE618E0C0E0F801219131912E
:1038F0008F01F701848195812817390729F0CF5F5F
:10390000DC13F3CF80E006C08C2F0E945B1C843157
:10391000B1F781E0DF91CF911F910F91FF90EF9070
:103920000895CF93DF93EC018C858830D0F40E940A
:103930005B1C843189F0882379F0883169F021E0BB
:103940008C3159F4E881F9810084F185E02DCE01B4
:10395000099521E0892B09F420E0822FDF91CF9196
:10396000089580E0FBCFCF92DF92EF92FF92CF934A
:10397000DF93EC018C85883068F40E94321C0E9431
:103980007B086B017C018C850E945B1C811109C046
:1039900088E08C87DF91CF91FF90EF90DF90CF9000
:1039A000089561E070E080E090E00E9448080E9485
:1039B0007B08AB01BC014C195D096E097F098D853F
:1039C0009E85B0E0A0E0481759076A077B07D8F248
:1039D0008C850E943E1CDCCFCF93FC01C08D80E51E
:1039E00091E00E944D0660E270E08C2F0E94221C44
:1039F00062E070E08C2F0E94141C84FD16C062E00F
:103A000070E08C2F0E94141C83FF0AC048E162E022
:103A100070E08C2F0E942F0B80E090E0CF910895F2
:103A200080E591E00E944D06E3CF40E162E070E066
:103A30008C2F0E942F0B81E0F0CFDA01E091B504CA
:103A4000F0E0FE2FEE27E60FF71F90E0982F882773
:103A5000A901BD018E0F9F1F0C940D1A8F929F928A
:103A6000AF92BF92CF92DF92EF92FF920F931F938C
:103A7000CF93DF93CDB7DEB760970FB6F894DEBF74
:103A80000FBECDBF7C0190917E08911115C018E04A
:103A9000812F60960FB6F894DEBF0FBECDBFDF91C9
:103AA000CF911F910F91FF90EF90DF90CF90BF903B
:103AB000AF909F908F90089508E0933309F404E04D
:103AC0006B0180E591E00E944D069E012F5F3F4F04
:103AD0005901490110E0812F0E94571CF401819384
:103AE0004F018823C1F01F5F0113F5CF00E0F501FE
:103AF00081915F018D3149F0883139F08A518230EE
:103B000020F00F5F1013F3CFC2CF60E170E0802F81
:103B10000E94221C102FA12EB12CF501EE0FFF1FC9
:103B2000E259F74F1182108283EE93E00197F1F78B
:103B300042E870E060E0812F0E942F0B4FEF62E0BF
:103B400070E0812F0E942F0BB601C114D10491F4B3
:103B5000809146029091470201968115F0EC9F07F3
:103B600008F45CC09093470280934602609146023D
:103B700070914702812F0E941A0B86E0E2E5F2E085
:103B8000DE01199601900D928A95E1F7F701838184
:103B90008F778C8784818D8785818E87A7014E5F83
:103BA0005F4F24E030E06CE070E0812F0E94F40A67
:103BB000B601812F0E94050B26E030E0AE01475F81
:103BC0005F4F66E070E0812F0E94F40A61E070E0D0
:103BD000812F0E94221C27E02A9DC0012B9D900D61
:103BE00011249C012A5C374F7901F901118210825E
:103BF00022E030E0AE01415F5F4F68E270E0812F6C
:103C00000E941D1D8F859889982789279827F7017D
:103C1000938382831682158214823ACF80E090ECDF
:103C2000A1CFCF92DF92EF92FF920F931F93CF938A
:103C3000DF9300D000D000D0CDB7DEB78C016B0190
:103C40007A01FC01808D883010F40E943E1C81E6D0
:103C500093E09A838983F60182819381A481B5815F
:103C60008B839C83AD83BE83B701CE0101960E94F6
:103C70002E1DF801808F8830A0F4F586E486128E20
:103C8000118E81E026960FB6F894DEBF0FBECDBF31
:103C9000DF91CF911F910F91FF90EF90DF90CF9028
:103CA000089580E0EFCF7F928F929F92AF92BF9264
:103CB000CF92DF92EF92FF920F931F93CF93DF93F8
:103CC00000D0CDB7DEB7782E8B014A01590122E032
:103CD00030E0AE014F5F5F4F64E270E00E941D1D57
:103CE000E980FA80FE24EF24FE24E00EF11E970105
:103CF000377040917E08072D10E0433309F042C031
:103D0000085F1F4F102F0027110F110F110FC9014E
:103D1000800F911F4733C9F1A9014A0D5B1D413046
:103D2000584098F160E078E06B01C21AD30AA6010E
:103D3000B4010E94230AA5014C195D09B4016C0D60
:103D40007D1DC8010E94230AEA0CFB1CF982EA824D
:103D500022E030E0AE014F5F5F4F64E270E0872DFC
:103D60000E94F40A0F900F90DF91CF911F910F9155
:103D7000FF90EF90DF90CF90BF90AF909F908F908B
:103D80007F900895005F1F4FBDCFA501B401DACF2A
:103D9000EF92FF921F93CF93DF9300D0CDB7DEB7A2
:103DA000182F22E030E0AE014F5F5F4F60E270E01D
:103DB0000E941D1DE980FA80FE24EF24FE2422E0EB
:103DC00030E0AE014F5F5F4F60E270E0812F0E94F4
:103DD0001D1D89819A81982789279827E816F90659
:103DE00089F487E0189FF0011124EA5CF74FF5820F
:103DF000E482C7010F900F90DF91CF911F91FF9048
:103E0000EF9008957C01DBCF1F93CF93DF93182FA2
:103E100080E591E00E944D06812F0E94C81EEC01B2
:103E2000812F0E94571C873121F08C3111F0D0E096
:103E3000C0E0CE01DF91CF911F910895CF93DF9322
:103E4000EC018C85883060F40E945B1C873111F096
:103E50008C3131F48C850E94041F8115984088F3C1
:103E6000DF91CF910895FC018485883010F40C9483
:103E7000041F90E080E00895CF92DF92EF92FF92CE
:103E80001F93CF93DF93182F7B01EA0141305840F5
:103E900010F0C0E0D8E080E591E00E944D06812F4F
:103EA0000E94C81E6C01812F0E94571C873111F09F
:103EB0008C3121F5CC16DD0670F380E591E00E948F
:103EC0004D069E01A70170E060E0812F0E94531E05
:103ED00060E270E0812F0E94221C62E070E0812F7E
:103EE0000E94141C84FD0DC0812F0E94571C882342
:103EF000B9F080E591E00E944D06EFCFD0E0C0E040
:103F0000DCCF40E162E070E0812F0E942F0BCE01F8
:103F1000DF91CF911F91FF90EF90DF90CF900895A8
:103F2000D0E0C0E0F4CF0F931F93CF93DF938C01C9
:103F3000EA01FC018485883048F40E943C1F892BEB
:103F400039F481E090E0F80193838283D0E0C0E00F
:103F5000CE01DF91CF911F910F9108959F92AF9263
:103F6000BF92CF92DF92EF92FF920F931F93CF9366
:103F7000DF938C015B01942EE52EFC01C688D78867
:103F8000F08C80E591E00E944D068F2D0E94C81EA6
:103F9000C92DDE2D8C179D0708F4EC019E01A501AB
:103FA000B6018F2D0E94531EF801868997898C0FC8
:103FB0009D1F978B868BCE01DF91CF911F910F9123
:103FC000FF90EF90DF90CF90BF90AF909F900895BB
:103FD000FF920F931F93CF93DF9300D0CDB7DEB73F
:103FE000F82E22E030E0AE014F5F5F4F66E270E0F6
:103FF0000E941D1D09811A8110270127102722E028
:1040000030E0AE014F5F5F4F66E270E08F2D0E949F
:104010001D1D89819A8198278927982708171907D4
:1040200049F4C8010F900F90DF91CF911F910F912C
:10403000FF9008958C01E3CF1F93CF93DF93182F48
:1040400087E0189FE0011124CA5CD74F88819981CD
:10405000009761F480E591E00E944D06812F0E9457
:10406000E81F2E81821B910999838883DF91CF916C
:104070001F9108959F92AF92BF92CF92DF92EF92DD
:10408000FF920F931F93CF93DF93EC017B018091FD
:104090007E08811121C01B821A8288EE93E0A0E085
:1040A000B0E08C839D83AE83BF8384E892E09983E4
:1040B000888388E08C8788EE93E09E878D87CE0189
:1040C000DF91CF911F910F91FF90EF90DF90CF90F4
:1040D000BF90AF909F90089534E0932E833311F0FA
:1040E00028E0922E8EE6C82E88E0D82E10E098E0C8
:1040F000B92EA12CD6012D913D916D01F70184813E
:1041000095812817390791F4812F0E945B1C082F95
:10411000873111F08C3139F5812F0E941C20892BB9
:1041200059F50C3119F4812F0E94321C1F5F911236
:10413000E1CFA11008C0D701ED91FC910084F18579
:10414000E02DC70109951B821A8288EE93E0A0E05A
:10415000B0E08C839D83AE83BF8384E892E0998333
:104160008883BC86A8CF843149F08111DFCFF60166
:10417000329711821082DACFB12ED8CFAA24A3941D
:10418000D5CF8F929F92AF92BF92CF92DF92EF9254
:10419000FF920F931F93CF93DF93CDB7DEB72F9787
:1041A0000FB6F894DEBF0FBECDBF5C014B017A01A4
:1041B00080917E088823C9F104E0833309F008E088
:1041C000B501CE0101960E943A208EE6C82E88E005
:1041D000D82E10E0F601219131916F01F501848113
:1041E00095812817390751F4812F0E945B1C873174
:1041F00029F4A701B401812F0E943C1F1F5F011306
:10420000E9CFC7012F960FB6F894DEBF0FBECDBF22
:10421000DF91CF911F910F91FF90EF90DF90CF90A2
:10422000BF90AF909F908F900895F12CE12CE9CF33
:10423000FC018485883010F40C941C2090E080E010
:1042400008954F925F927F928F929F92AF92BF920A
:10425000CF92DF92EF92FF920F931F93CF93DF9352
:1042600000D0CDB7DEB7782E6B014A01A82EB12C55
:1042700027E0829FC0011124FC01EA5CF74F7F0117
:104280000081118180E591E00E944D060815190515
:1042900054F4872D0E94E81FF70126818C01021B30
:1042A0001109118300830115110519F5872D0E944D
:1042B000571C843159F0882349F001E010E08C311B
:1042C00011F410E000E0119501951109C8010F905B
:1042D0000F90DF91CF911F910F91FF90EF90DF90A2
:1042E000CF90BF90AF909F908F907F905F904F90B6
:1042F0000895801691060CF4840187E08A9DF001F0
:104300008B9DF00D1124EA5CF74FE280F380C1141D
:10431000D10451F12701F7E05F22872D0E94E60AC0
:10432000840D951D20917E08273309F453C0980110
:10433000240D351D2130384008F44CC020E038E011
:10434000490184189508A401B6010E940D1A26019E
:10435000480C591C6801C818D908872D0E94E60A24
:10436000A601B2010E940D1AE00EF11E87E08A9D9F
:10437000F0018B9DF00D1124EA5CF74FF382E2828D
:1043800020813181201B310B318320838681800F76
:10439000912F911D8A3F910510F4232BF1F487E0B2
:1043A0008A9DF0018B9DF00D1124EA5CF74F168277
:1043B000F982EA8222E030E0AE014F5F5F4F68E2AF
:1043C00070E0872D0E94F40A60E470E0872D0E945F
:1043D000221C7CCFA801B601C5CF868377CFCF93AF
:1043E000DF93FC01218D328D2115310529F48FEFEA
:1043F0009FEFDF91CF910895EC01808D4217530715
:1044000008F0A9010E9421211816190684F7298DA8
:104410003A8D281B390B3A8F298FEBCF0F931F93BF
:10442000CF93DF931F92CDB7DEB7FC01218D328D84
:10443000232B41F48FEF9FEF0F90DF91CF911F91CE
:104440000F9108958C0141E050E0BE016F5F7F4FF6
:10445000FC01808D0E942121181619065CF7F801D5
:10446000818D928D0197928F818F898190E0E4CF29
:10447000CF93DF931F92CDB7DEB741E050E0BE018E
:104480006F5F7F4FFC0184850E9421211816190659
:1044900034F4898190E00F90DF91CF9108958FEFF0
:1044A0009FEFF9CFFC018485883010F40C94212112
:1044B00090E080E008958F929F92AF92BF92CF924A
:1044C000DF92EF92FF920F931F93CF93DF93CDB7BD
:1044D000DEB72A970FB6F894DEBF0FBECDBF90911E
:1044E0007E08911115C018E0812F2A960FB6F89416
:1044F000DEBF0FBECDBFDF91CF911F910F91FF9017
:10450000EF90DF90CF90BF90AF909F908F900895E5
:1045100028E0F22E933311F494E0F92E6B01082F6A
:1045200080E591E00E944D069E012F5F3F4F5901AB
:10453000490110E0812F0E94571CF40181934F0123
:104540008823C1F01F5FF112F5CFF12CF501919195
:104550005F019D3149F0983139F09A51923020F045
:10456000F3941F11F3CFBFCF60E170E08F2D0E9455
:10457000221C1F2DE12EF12CF701EE0FFF1FE25937
:10458000F74F1182108283EE93E00197F1F7402FED
:1045900070E060E0812F0E942F0B4FEF62E070E02F
:1045A000812F0E942F0BB601CD2889F480914602FD
:1045B0009091470201968115F0EC9F0798F1909336
:1045C0004702809346026091460270914702812F14
:1045D0000E941A0B61E070E0812F0E94221C27E0EC
:1045E0002E9DC0012F9D900D11249C012A5C374FF8
:1045F0007901F9011182108222E030E0AE01475FBB
:104600005F4F68E270E0812F0E941D1D89859A85A9
:10461000982789279827F70193838283168215822A
:10462000148262CF80E090ECCACF0F931F93CF9398
:10463000DF93EC018B01888D883010F40E943E1CC2
:10464000B80182E00E945B22888F883050F41D8779
:104650000C871A8E198E81E0DF91CF911F910F91F7
:10466000089580E0F9CF0F931F93CF938C01FC0145
:104670006481758181E20E945B22C82F8830F8F442
:1046800080E591E00E944D068C2F0E94571C8331DB
:1046900031F08C2FCF911F910F910C94321C62E05E
:1046A00070E08C2F0E94221CF80184819581EC2FF0
:1046B000F0E0EE0FFF1FE259F74F91838083CF9117
:1046C0001F910F910895CF92DF92EF92FF921F9367
:1046D000CF93DF93EC017B016A018C85883048F42D
:1046E0000E945B1C882319F08C850E94321C88E094
:1046F0008C87F70182819381A481B5810097A10500
:10470000B10551F490E080E0DF91CF911F91FF90CF
:10471000EF90DF90CF9008958F3F9F4FAF4FBF4FE7
:1047200089F370E060E081E20E945B22182F8C87A1
:10473000883040F780E591E00E944D06A7014E5F6A
:104740005F4F24E030E06CE070E0812F0E94F40ABB
:10475000B601812F0E94050B64E070E0812F0E945A
:10476000221C0E947B086B017C018C850E945B1CD3
:10477000873111F18C3101F1882321F20E947B08ED
:10478000AB01BC014C195D096E097F098D859E85C1
:10479000B0E0A0E084179507A607B70738F061E0FE
:1047A00070E080E090E00E944808DFCF8C850E9496
:1047B0003E1C88E08C87A6CF81E090E0A5CF0F93C8
:1047C0001F93CF93DF9300D0CDB7DEB7FC012485D4
:1047D0002830E0F48C0180E591E00E944D0622E053
:1047E00030E0AE014F5F5F4F60E170E0F80184851B
:1047F0000E941D1D89819A819827892798270F90EB
:104800000F90DF91CF911F910F91089590E080E07C
:10481000F6CF0F931F93CF93DF9300D0CDB7DEB7C2
:10482000FC0124852830E0F48C0180E591E00E94B1
:104830004D0622E030E0AE014F5F5F4F64E070E074
:10484000F80184850E941D1D89819A8198278927F6
:1048500098270F900F90DF91CF911F910F9108959E
:1048600090E080E0F6CFFC01808181110EC080E2F3
:10487000DF011D928A95E9F777836683DB01159640
:104880008C91803121F0803239F080E0089580E40D
:10489000808381E08283089580E8FACF0F931F938D
:1048A000CF938C01C62F0E9404146C2F6460C80142
:1048B0000E9404146C2F6B7FC8010E94041483ECC7
:1048C00090E00197F1F7CF911F910F9108950F9309
:1048D0001F93CF93DF938C01D62FC42F607F642B5F
:1048E0000E944E2480E1D89FB00111246C2BC80196
:1048F000DF91CF911F910F910C944E24FC016681A2
:10490000262F246026836C6040E00C946724CF93AC
:10491000DF93CDB7DEB728970FB6F894DEBF0FBE92
:10492000CDBF28E0E8E5F2E0DE01119601900D929E
:104930002A95E1F7FC012085241710F44FEF420F70
:1049400050E0440F551F21E030E02C0F3D1F420F77
:10495000531FFA012081620F606840E028960FB66D
:10496000F894DEBF0FBECDBFDF91CF910C946724CA
:10497000CF93DF93EC0140E061E00E9467248BE37A
:104980009FE10197F1F78985882339F040E060E0E5
:10499000CE01DF91CF910C948724DF91CF910895C0
:1049A00041E00E94672481E090E008952F923F92B9
:1049B0004F925F926F927F928F929F92AF92BF922F
:1049C000CF92DF92EF92FF920F931F93CF93DF93DB
:1049D0006C013B011A01FB011082FC0101900020D7
:1049E000E9F731974F01881A990AC091530ED09177
:1049F000540ECD5AD24F03E51DE00C171D0708F0E9
:104A000078C0AE01401B510B6DE370E0C8010E94FD
:104A1000645B5C01009709F46CC0AE01481B590B44
:104A200066E270E00E94645B7C01892B09F47E01E0
:104A3000C501801B910B8816990609F056C0A40188
:104A4000B601C8010E94715B892B09F04EC0E501D7
:104A50002196D12CC12C5301AC0CBD1CCE15DF0509
:104A600070F54601FFEF8F1A9F0A8214930438F500
:104A700088818B3221F480E2F50180831DC085326C
:104A8000D9F72E0192E0490E511C4E145F04A0F795
:104A900089810E94CC198C018A810E94CC1917FD52
:104AA0000CC097FD0AC094E0000F111F9A95E1F722
:104AB000082BF5010083E20164012196CCCFF501BA
:104AC000108281E0DF91CF911F910F91FF90EF90C5
:104AD000DF90CF90BF90AF909F908F907F906F901E
:104AE0005F904F903F902F90089587010F5F1F4F69
:104AF00084CF80E0E7CFFB0101900020E9F73197F8
:104B0000AF01461B570BDC01ED91FC910280F38154
:104B1000E02D09948F929F92AF92BF92EF92FF92F5
:104B20000F931F93CF93DF93CDB7DEB7A1970FB647
:104B3000F894DEBF0FBECDBF7C01FA01CB0119A2F4
:104B4000223008F42AE08E010F5D1F4F822E912C37
:104B5000B12CA12CBF01A50194010E945458F90168
:104B6000CA016A300CF5605DD8016E938D01232B6C
:104B7000242B252B79F790E080E0109721F0BD01E0
:104B8000C7010E947B25A1960FB6F894DEBF0FBE29
:104B9000CDBFDF91CF911F910F91FF90EF90BF900C
:104BA000AF909F908F900895695CDECFCF92DF9297
:104BB000EF92FF920F931F93CF93DF936B01770FC9
:104BC000EE08FF08F7FE1BC0EC016DE20E948808AA
:104BD0008C0144275527BA014C195D096E097F09DC
:104BE0002AE0CE010E948A25800F911FDF91CF918C
:104BF0001F910F91FF90EF90DF90CF9008952AE0E2
:104C0000B701A601DF91CF911F910F91FF90EF9017
:104C1000DF90CF900C948A25462F50E070E060E042
:104C20002AE00C948A258F929F92AF92BF92CF92E6
:104C3000DF92EF92FF920F931F93CF93DF937C014C
:104C40008B014C0182E0880E911C5701E5E0AE0E0D
:104C5000B11CD0E0C0E0F40161914F01C8010E9495
:104C60000C266C016EE2C8010E9488088C0D9D1D07
:104C7000C80FD91F8A149B0471F7F7016581C80119
:104C80000E940C268C0F9D1FDF91CF911F910F91D9
:104C9000FF90EF90DF90CF90BF90AF909F908F905C
:104CA000089563E673E00C947B25CF93DF93BC01FA
:104CB00088E299E00E947B25EC0188E299E00E945D
:104CC00051268C0F9D1FDF91CF9108950F931F9355
:104CD000CF93DF93EC010E948F088C01CE010E94DC
:104CE0005126800F911FDF91CF911F910F91089551
:104CF000EF92FF920F931F93CF93DF93EC017B0111
:104D00008A0164E37CE00E948F08B701CE010E9413
:104D1000D62560E2CE010E948808B801CE010E942B
:104D200066266BE17CE0CE010E94662669E07CE0AD
:104D3000CE010E946626CE010E945126B801CE0106
:104D4000DF91CF911F910F91FF90EF900C94662609
:104D50000F931F93CF93DF93EC018B0162EF7BE006
:104D60000E94662667EE7BE0CE010E948F08B801A4
:104D7000CE010E94662665ED7BE0CE010E9466268C
:104D8000CE01DF91CF911F910F910C9451260F937B
:104D90001F93CF93DF93EC018B0165EC7BE00E94C6
:104DA00066266EE97BE0CE010E9466266CE87BE019
:104DB000CE010E946626CE010E94512668E27BE069
:104DC000CE010E948F08B801CE010E948F086DE2CB
:104DD00079E0CE010E948F0860EB78E0CE01DF9190
:104DE000CF911F910F910C948F086115710511F0EF
:104DF0000C947B2590E080E00895FB010190002059
:104E0000E9F73197AF01461B570B0C944317CF922C
:104E1000DF92EF92FF920F931F93CF93DF938C015A
:104E20006B017A0162E20E942E17E601EC0CFD1C78
:104E3000EC16FD0699F06991E6E6F3E0D480DD20FA
:104E4000C9F0329683816813F9CF6CE5C8010E94DE
:104E50002E176D2DC8010E942E17EACF62E2C801FD
:104E6000DF91CF911F910F91FF90EF90DF90CF9046
:104E70000C942E176111EECF69E773E0C8010E9410
:104E8000FD26D6CFFC0130E020E06115710549F028
:104E9000DB010D900020E9F79D0121503109261B0F
:104EA000370B718360832283832F8F779381907870
:104EB000982B40FB97F9938308952F923F924F923E
:104EC0005F926F927F928F929F92AF92BF92CF929A
:104ED000DF92EF92FF920F931F93CF93DF93CDB7A3
:104EE000DEB76B970FB6F894DEBF0FBECDBF7C0167
:104EF0008B01DC0114968C911497863009F4A3C2BF
:104F0000F8F4833009F492C258F440E0B7018230DB
:104F100009F47BC260E873E0C8010E94FD2681C2EB
:104F2000843009F46EC28530A9F7ED91FC9143817C
:104F300050E0BF016C5F7F4FC8010E9407271CC271
:104F40008E3009F443C0E0F48A3009F477C28C3023
:104F500009F7CD90DD90ED90FC90B701A601F7FE2A
:104F60000BC06DE2C8010E942E1744275527BA01D5
:104F70004C195D096E097F09C8010E945817FCC1D0
:104F8000803209F415C2803429F66BE5C8010E940D
:104F90002E17D701FC90BFEFFB1609F4E9C1F80109
:104FA000848195816F2D45960E9414157C01B8016E
:104FB0000E945D27D7011596FC90BFEFFB1609F400
:104FC000D7C16CE2C8010E942E17E5CFF70180809F
:104FD0009180A280B380A5019401C501B4010E9413
:104FE000FE56882331F060E873E0C8010E94FD2678
:104FF000C3C120E030E0A901C501B4010E94FE5602
:10500000882371F0A5019401C501B4010E94BE5826
:105010009B01AC01C501B4010E94FE56882319F31F
:1050200020E030E0A901C501B4010E94FE5687FFCF
:1050300008C06DE2C8010E942E17B7FAB094B7F805
:10504000B09420E836E948E15BE4C501B4010E9470
:10505000595987FD83C074E1C72ED12CE0E2EE2EB2
:10506000F12C312C212CF601E856F74F6591759102
:1050700085919491A50194010E94FE5618167CF02A
:10508000F601E058F74F2591359145915491C501AE
:10509000B4010E9464574B015C012E0C3F1CF59437
:1050A000E794F4E0CF1AD1082CEFC2162FEFD20606
:1050B000D1F63FEF3F8B20E030E0A901C501B401FC
:1050C0000E94595918160CF051C02CEA35EC47E2F1
:1050D00057E3C501B4010E94FE5618160CF446C0F1
:1050E000AF89B4E0AB02C0011124D12CC12CFC016A
:1050F000E058F74F2F019C012856374F39013F895F
:105100003F3F09F433C0F201EC0DFD1D659175912F
:105110008591949120E030E040E251E40E94645790
:10512000A50194010E94595918167CF4F301EC0D65
:10513000FD1D2591359145915491C501B4010E9401
:1051400064574B015C012E183F08F594E7948F8952
:1051500081508F8B94E0C91AD108D1CF50E2E52E4F
:10516000F12C85E08F8B312C212CA5CFC501B4010A
:105170000E942A596B017C012B013C0180E492E4DE
:10518000AFE0B0E0888F998FAA8FBB8F96E09F8B9E
:10519000AAE04A16510461047104E0F0688D798D2B
:1051A0008A8D9B8D2AE030E040E050E00E94545808
:1051B000288F398F4A8F5B8FBF89B150BF8BC30156
:1051C000B2012AE030E040E050E00E94545829014A
:1051D0003A01DECFC701B6010E9403579B01AC0123
:1051E000C501B4010E94BD584B015C01688D798DE9
:1051F0008A8D9B8D0E9403579B01AC01C501B401B0
:105200000E9464572B013C010E942A594B015C010A
:105210000E9403579B01AC01C301B2010E94BD581B
:105220009B01AC010E94BE580E942A59860E971E0F
:10523000A81EB91E888D998DAA8DBB8D88169906DA
:10524000AA06BB06C0F09FEFC91AD90AE90AF90AF3
:105250002114310439F1AAE0CA16D104E104F104A1
:1052600008F1BFEF2B1A3B0A812C912C5401C12C61
:10527000D12C7601C3942AE0422E512C612C712C42
:10528000C501B401A30192010E945458672B682BF9
:10529000692B61F4EF891E164CF449015A01E15063
:1052A000EF8BEECF812C912C5401E5CFB701A601F5
:1052B000C8010E945817FF89FF2391F16E0121E177
:1052C000C20ED11CF88F76019AE0492E512C612C28
:1052D000712C388D3150388F3F3F69F0C501B401D2
:1052E000A30192010E945458605DD6016E936D0136
:1052F00049015A01EECFBF898B2F90E0BC01609528
:105300007095F701E81BF90B31978EE280834427F3
:105310005527461B570B6E0D7F1DC8010E94431772
:105320002114310449F165E6C8010E942E1771016C
:1053300037FE07C06DE2C8010E942E17F194E19478
:10534000F108FE0177969F018AE0C82ED12CC70193
:10535000B6010E948558805D82937B01672BB9F767
:10536000A9014E1B5F0BBF01C8010E94431704C077
:105370006DE5C8010E942E17F801828193816B961A
:105380000FB6F894DEBF0FBECDBFDF91CF911F9156
:105390000F91FF90EF90DF90CF90BF90AF909F90D4
:1053A0008F907F906F905F904F903F902F900895D7
:1053B0006BE7C8010E942E17D701FC90EE24E394FE
:1053C000BB24B394BFEFFB16D1F0F8018481958123
:1053D0006F2D45960E9414156C01B8010E945D273F
:1053E000D6011596FC90BFEFFB1639F06AE3E11089
:1053F00001C06CE2C8010E942E17EB24E3CF6DE7D9
:10540000B8CFF7016081718141E0CE0101960E9421
:1054100042274B815C815F7769817A81C8010E9454
:105420000727D80112968D919C91A9CFED91FC91FF
:10543000438150E0BF016C5F7F4F96CF4D915D91EE
:105440006D917C9199CD8C9165E873E08111CDCD02
:105450006AE873E0CACDCF93DF9300D000D000D0CC
:10546000CDB7DEB7DC01CB015A8349831C821B8296
:10547000BE83AD83009771F0BE016F5F7F4F0E94C6
:105480005D2726960FB6F894DEBF0FBECDBFDF9125
:10549000CF91089560E873E0CE0101960E94FD2649
:1054A0008B819C81EECF85ED8093BC008091C707F6
:1054B0009091C807A091C907B091CA070796A11D8E
:1054C000B11D23E0B695A795979587952A95D1F7B5
:1054D0002091BC0024FD03C0109210080895409153
:1054E000C7075091C8076091C9077091CA07452B3B
:1054F000462B472B69F30097A105B10541F02AE23D
:105500002A95F1F700C00197A109B109E1CF809177
:10551000C6070C94B307DC0181E693E08D939D935D
:1055200084E0FB0101900D928A95E1F70895EF92D6
:10553000FF920F931F93CF93DF9300D000D0CDB78E
:10554000DEB78C017B01FB0184858830A8F081E601
:1055500093E0F80191838083128213821482158272
:10556000C8010F900F900F900F90DF91CF911F9176
:105570000F91FF90EF90089580E591E00E944D0615
:1055800024E030E0AE014F5F5F4F6CE070E0F70168
:1055900084850E941D1DBE016F5F7F4FC8010E9460
:1055A0008B2ADECF0F931F93CF93DF93CDB7DEB758
:1055B00028970FB6F894DEBF0FBECDBF8C01D8017F
:1055C00059964D915C915A974115510551F0ED91C5
:1055D000FC91048CF58DE02D70E060E0C801099528
:1055E000EECFF801808D0E941C20892BB1F148E09C
:1055F00050E0BE016F5F7F4FD80158968C910E949A
:10560000212118161906F4F4D801509684E0FE0101
:10561000319601900D928A95E1F78D8190E0982F57
:1056200088272E81820F911DF801958B848B8F81A5
:10563000282F30E0322F22278885820F932F911D4B
:10564000928F818F28960FB6F894DEBF0FBECDBF24
:10565000DF91CF911F910F91089590E080E0F2CFFC
:105660004F925F926F927F928F929F92AF92BF9272
:10567000CF92DF92EF92FF920F931F93CF93DF931E
:10568000CDB7DEB763970FB6F894DEBF0FBECDBFC0
:105690007C016B013A01FB0120E090E080E06AE0D0
:1056A0003191332309F461C040ED430F4A3008F0D3
:1056B0004DC0689FA001699F500D1124CA01C09779
:1056C000830F911D37FD9A958F3F910549F340F364
:1056D000F70142815381648175818091C70990915E
:1056E000C809A091C909B091CA09481759076A07A2
:1056F0007B0709F40DC28701085F1F4F0E947B08DA
:105700006F7077277C5FC8010E941523813009F0F4
:1057100004C281E693E09A838983F70182819381B1
:10572000A481B5818B839C83AD83BE8345E350E028
:10573000BE016F5F7F4FC8010E94BD0B892BA9F589
:10574000D12CC12CC8010E944A1C17C03E3209F05E
:10575000BFCF233009F4BCCFD301A20FB11D1296E5
:105760008C932F5F90E080E09BCF233009F0B0CF87
:10577000F3018583CC24C394D12CC60163960FB664
:10578000F894DEBF0FBECDBFDF91CF911F910F9177
:10579000FF90EF90DF90CF90BF90AF909F908F9051
:1057A0007F906F905F904F9008950E947B08F70163
:1057B0007783668342E050E0B7016A5F7F4FC8019C
:1057C0000E94AE1F81E090E09A83898342E050E01E
:1057D000BE016F5F7F4FC8010E94AE1F80E091E065
:1057E0009A83898342E050E0BE016F5F7F4FC8011A
:1057F0000E94AE1F1A82198242E050E0BE016F5F24
:105800007F4FC8010E94AE1F42E050E0BE016F5FB3
:105810007F4FC8010E94AE1F42E050E0BE016F5FA3
:105820007F4FC8010E94AE1F5601F6018081882378
:1058300001F16501F60181912F01882311F08E326B
:10584000B1F446018A189B081814190474F48D8663
:1058500041E050E0BE01635F7F4FC8010E94AE1F70
:10586000A401B501C8010E94AE1F5201DECF620142
:10587000E1CF1D8641E050E0BE01635F7F4FC8016C
:105880000E94AE1FC12CDD24D394DA82C98242E08B
:1058900050E0BE016F5F7F4FC8010E94AE1FDA82E9
:1058A000C98242E050E0BE016F5F7F4FC8010E9495
:1058B000AE1FC8010E94EC1C892B09F441CFF3E014
:1058C000AF2EB12C230122E0420E511CD4C0F701AF
:1058D0004281538164817581808D918DA28DB38DBC
:1058E000481759076A077B0709F008C1848D958D11
:1058F000C59709F003C181A192A15DEFC52EDD24FA
:10590000DA940C970CF4ADC04CE050E0BE016F5F30
:105910007F4FC8010E94EF218B819C8198278927A6
:1059200098279A8B898BF7014681578129813A8183
:105930004217530709F0E7C097FFE5C08F709270D8
:105940003BEFC32EDD24DA94892B09F08AC06F80E7
:1059500078847624672476242AEFC22EDD24DA9414
:105960006114710409F47DC0D12CC12C8D819E81FC
:10597000982789279827C816D906F8F441E050E0FF
:10598000BE01635F7F4FC8010E94EF214D85442314
:1059900031F050E070E060E0C8010E94EF218D8599
:1059A0008111ECCF44E050E070E060E0C8010E945B
:1059B000EF21FFEFCF1ADF0AD9CF912C812C41E0E4
:1059C00050E0BE016D5E7F4FC8010E94EF214B8900
:1059D000842F807C09F06CC0442331F050E070E0EB
:1059E00060E0C8010E94EF218B898111E8CF42E07D
:1059F00050E0BE01615F7F4FC8010E94EF2142E08D
:105A000050E0BE01635F7F4FC8010E94EF2144E078
:105A100050E070E060E0C8010E94EF2142E050E0F9
:105A2000BE016F5E7F4FC8010E94EF218F8598896C
:105A300049895A898115914009F043C0CD84DE849B
:105A4000DC24CD24DC2481E0C816D104D1F5411535
:105A5000544009F04AC044E050E0B201C8010E943D
:105A6000EF2121E0A21AB10809F46CCEFFEFCF16A6
:105A7000DF0609F067CE0E947B083B014C01C8019C
:105A80000E94D22A181619060CF421CF0E947B0816
:105A90006619770988099909693873418105910563
:105AA00048F562E370E080E090E00E944808E7CFAC
:105AB00041E050E070E060E0C8010E94EF211B8AE5
:105AC00093CF54274527542770E060E0C8010E9417
:105AD000EF21FFEF8F1A9F0A6814790409F06FCF46
